8=FIX.4.4|9=75|35=A|34=1|49=CLIENT|52=20250415-07:24:54.106|56=EXCHANGE|98=0|108=30|141=Y|10=049|