8=FIX.4.4|9=76|35=A|34=1|49=CLIENTY|52=20250415-07:44:13.731|56=EXCHANGE|98=0|108=30|141=Y|10=140|