8=FIX.4.4|9=77|35=A|34=1|49=IRISPAR1|52=20250606-00:00:17.179|56=EXCHANGE|98=0|108=30|141=Y|10=189|8=FIX.4.4|9=59|35=0|34=2|49=IRISPAR1|52=20250606-00:00:17.274|56=EXCHANGE|10=099|8=FIX.4.4|9=59|35=0|34=3|49=IRISPAR1|52=20250606-00:00:27.274|56=EXCHANGE|10=101|8=FIX.4.4|9=59|35=0|34=4|49=IRISPAR1|52=20250606-00:00:37.274|56=EXCHANGE|10=103|8=FIX.4.4|9=59|35=0|34=5|49=IRISPAR1|52=20250606-00:00:47.274|56=EXCHANGE|10=105|8=FIX.4.4|9=59|35=0|34=6|49=IRISPAR1|52=20250606-00:00:57.274|56=EXCHANGE|10=107|8=FIX.4.4|9=59|35=0|34=7|49=IRISPAR1|52=20250606-00:01:07.274|56=EXCHANGE|10=104|8=FIX.4.4|9=59|35=0|34=8|49=IRISPAR1|52=20250606-00:01:17.274|56=EXCHANGE|10=106|8=FIX.4.4|9=59|35=0|34=9|49=IRISPAR1|52=20250606-00:01:27.274|56=EXCHANGE|10=108|8=FIX.4.4|9=60|35=0|34=10|49=IRISPAR1|52=20250606-00:01:37.274|56=EXCHANGE|10=141|8=FIX.4.4|9=60|35=0|34=11|49=IRISPAR1|52=20250606-00:01:47.275|56=EXCHANGE|10=144|8=FIX.4.4|9=60|35=0|34=12|49=IRISPAR1|52=20250606-00:01:57.275|56=EXCHANGE|10=146|8=FIX.4.4|9=60|35=0|34=13|49=IRISPAR1|52=20250606-00:02:07.275|56=EXCHANGE|10=143|8=FIX.4.4|9=60|35=0|34=14|49=IRISPAR1|52=20250606-00:02:17.275|56=EXCHANGE|10=145|8=FIX.4.4|9=60|35=0|34=15|49=IRISPAR1|52=20250606-00:02:27.275|56=EXCHANGE|10=147|8=FIX.4.4|9=60|35=0|34=16|49=IRISPAR1|52=20250606-00:02:37.275|56=EXCHANGE|10=149|8=FIX.4.4|9=60|35=0|34=17|49=IRISPAR1|52=20250606-00:02:47.275|56=EXCHANGE|10=151|8=FIX.4.4|9=60|35=0|34=18|49=IRISPAR1|52=20250606-00:02:57.275|56=EXCHANGE|10=153|8=FIX.4.4|9=60|35=0|34=19|49=IRISPAR1|52=20250606-00:03:07.275|56=EXCHANGE|10=150|8=FIX.4.4|9=60|35=0|34=20|49=IRISPAR1|52=20250606-00:03:17.276|56=EXCHANGE|10=144|8=FIX.4.4|9=60|35=0|34=21|49=IRISPAR1|52=20250606-00:03:27.276|56=EXCHANGE|10=146|8=FIX.4.4|9=60|35=0|34=22|49=IRISPAR1|52=20250606-00:03:37.276|56=EXCHANGE|10=148|8=FIX.4.4|9=60|35=0|34=23|49=IRISPAR1|52=20250606-00:03:47.276|56=EXCHANGE|10=150|8=FIX.4.4|9=60|35=0|34=24|49=IRISPAR1|52=20250606-00:03:57.276|56=EXCHANGE|10=152|8=FIX.4.4|9=60|35=0|34=25|49=IRISPAR1|52=20250606-00:04:07.276|56=EXCHANGE|10=149|8=FIX.4.4|9=60|35=0|34=26|49=IRISPAR1|52=20250606-00:04:17.276|56=EXCHANGE|10=151|8=FIX.4.4|9=60|35=0|34=27|49=IRISPAR1|52=20250606-00:04:27.276|56=EXCHANGE|10=153|8=FIX.4.4|9=60|35=0|34=28|49=IRISPAR1|52=20250606-00:04:37.276|56=EXCHANGE|10=155|8=FIX.4.4|9=60|35=0|34=29|49=IRISPAR1|52=20250606-00:04:47.277|56=EXCHANGE|10=158|8=FIX.4.4|9=60|35=0|34=30|49=IRISPAR1|52=20250606-00:04:57.277|56=EXCHANGE|10=151|8=FIX.4.4|9=60|35=0|34=31|49=IRISPAR1|52=20250606-00:05:07.277|56=EXCHANGE|10=148|8=FIX.4.4|9=60|35=0|34=32|49=IRISPAR1|52=20250606-00:05:17.277|56=EXCHANGE|10=150|8=FIX.4.4|9=60|35=0|34=33|49=IRISPAR1|52=20250606-00:05:27.277|56=EXCHANGE|10=152|8=FIX.4.4|9=60|35=0|34=34|49=IRISPAR1|52=20250606-00:05:37.277|56=EXCHANGE|10=154|8=FIX.4.4|9=60|35=0|34=35|49=IRISPAR1|52=20250606-00:05:47.277|56=EXCHANGE|10=156|8=FIX.4.4|9=60|35=0|34=36|49=IRISPAR1|52=20250606-00:05:57.277|56=EXCHANGE|10=158|8=FIX.4.4|9=60|35=0|34=37|49=IRISPAR1|52=20250606-00:06:07.277|56=EXCHANGE|10=155|8=FIX.4.4|9=60|35=0|34=38|49=IRISPAR1|52=20250606-00:06:17.278|56=EXCHANGE|10=158|8=FIX.4.4|9=60|35=0|34=39|49=IRISPAR1|52=20250606-00:06:27.278|56=EXCHANGE|10=160|8=FIX.4.4|9=60|35=0|34=40|49=IRISPAR1|52=20250606-00:06:37.278|56=EXCHANGE|10=153|8=FIX.4.4|9=60|35=0|34=41|49=IRISPAR1|52=20250606-00:06:47.278|56=EXCHANGE|10=155|8=FIX.4.4|9=60|35=0|34=42|49=IRISPAR1|52=20250606-00:06:57.278|56=EXCHANGE|10=157|8=FIX.4.4|9=60|35=0|34=43|49=IRISPAR1|52=20250606-00:07:07.278|56=EXCHANGE|10=154|8=FIX.4.4|9=60|35=0|34=44|49=IRISPAR1|52=20250606-00:07:17.278|56=EXCHANGE|10=156|8=FIX.4.4|9=60|35=0|34=45|49=IRISPAR1|52=20250606-00:07:27.278|56=EXCHANGE|10=158|8=FIX.4.4|9=60|35=0|34=46|49=IRISPAR1|52=20250606-00:07:37.278|56=EXCHANGE|10=160|8=FIX.4.4|9=60|35=0|34=47|49=IRISPAR1|52=20250606-00:07:47.279|56=EXCHANGE|10=163|8=FIX.4.4|9=60|35=0|34=48|49=IRISPAR1|52=20250606-00:07:57.279|56=EXCHANGE|10=165|8=FIX.4.4|9=60|35=0|34=49|49=IRISPAR1|52=20250606-00:08:07.279|56=EXCHANGE|10=162|8=FIX.4.4|9=60|35=0|34=50|49=IRISPAR1|52=20250606-00:08:17.279|56=EXCHANGE|10=155|8=FIX.4.4|9=60|35=0|34=51|49=IRISPAR1|52=20250606-00:08:27.279|56=EXCHANGE|10=157|8=FIX.4.4|9=60|35=0|34=52|49=IRISPAR1|52=20250606-00:08:37.279|56=EXCHANGE|10=159|8=FIX.4.4|9=60|35=0|34=53|49=IRISPAR1|52=20250606-00:08:47.279|56=EXCHANGE|10=161|8=FIX.4.4|9=60|35=0|34=54|49=IRISPAR1|52=20250606-00:08:57.279|56=EXCHANGE|10=163|8=FIX.4.4|9=60|35=0|34=55|49=IRISPAR1|52=20250606-00:09:07.279|56=EXCHANGE|10=160|8=FIX.4.4|9=60|35=0|34=56|49=IRISPAR1|52=20250606-00:09:17.280|56=EXCHANGE|10=154|8=FIX.4.4|9=60|35=0|34=57|49=IRISPAR1|52=20250606-00:09:27.280|56=EXCHANGE|10=156|8=FIX.4.4|9=60|35=0|34=58|49=IRISPAR1|52=20250606-00:09:37.280|56=EXCHANGE|10=158|8=FIX.4.4|9=60|35=0|34=59|49=IRISPAR1|52=20250606-00:09:47.280|56=EXCHANGE|10=160|8=FIX.4.4|9=60|35=0|34=60|49=IRISPAR1|52=20250606-00:09:57.280|56=EXCHANGE|10=153|8=FIX.4.4|9=60|35=0|34=61|49=IRISPAR1|52=20250606-00:10:07.280|56=EXCHANGE|10=141|8=FIX.4.4|9=60|35=0|34=62|49=IRISPAR1|52=20250606-00:10:17.280|56=EXCHANGE|10=143|8=FIX.4.4|9=60|35=0|34=63|49=IRISPAR1|52=20250606-00:10:27.280|56=EXCHANGE|10=145|8=FIX.4.4|9=60|35=0|34=64|49=IRISPAR1|52=20250606-00:10:37.280|56=EXCHANGE|10=147|8=FIX.4.4|9=60|35=0|34=65|49=IRISPAR1|52=20250606-00:10:47.281|56=EXCHANGE|10=150|8=FIX.4.4|9=60|35=0|34=66|49=IRISPAR1|52=20250606-00:10:57.281|56=EXCHANGE|10=152|8=FIX.4.4|9=60|35=0|34=67|49=IRISPAR1|52=20250606-00:11:07.281|56=EXCHANGE|10=149|8=FIX.4.4|9=60|35=0|34=68|49=IRISPAR1|52=20250606-00:11:17.281|56=EXCHANGE|10=151|8=FIX.4.4|9=60|35=0|34=69|49=IRISPAR1|52=20250606-00:11:27.281|56=EXCHANGE|10=153|8=FIX.4.4|9=60|35=0|34=70|49=IRISPAR1|52=20250606-00:11:37.281|56=EXCHANGE|10=146|8=FIX.4.4|9=60|35=0|34=71|49=IRISPAR1|52=20250606-00:11:47.281|56=EXCHANGE|10=148|8=FIX.4.4|9=60|35=0|34=72|49=IRISPAR1|52=20250606-00:11:57.281|56=EXCHANGE|10=150|8=FIX.4.4|9=60|35=0|34=73|49=IRISPAR1|52=20250606-00:12:07.282|56=EXCHANGE|10=148|8=FIX.4.4|9=60|35=0|34=74|49=IRISPAR1|52=20250606-00:12:17.282|56=EXCHANGE|10=150|8=FIX.4.4|9=60|35=0|34=75|49=IRISPAR1|52=20250606-00:12:27.282|56=EXCHANGE|10=152|8=FIX.4.4|9=60|35=0|34=76|49=IRISPAR1|52=20250606-00:12:37.282|56=EXCHANGE|10=154|8=FIX.4.4|9=60|35=0|34=77|49=IRISPAR1|52=20250606-00:12:47.282|56=EXCHANGE|10=156|8=FIX.4.4|9=60|35=0|34=78|49=IRISPAR1|52=20250606-00:12:57.282|56=EXCHANGE|10=158|8=FIX.4.4|9=60|35=0|34=79|49=IRISPAR1|52=20250606-00:13:07.282|56=EXCHANGE|10=155|8=FIX.4.4|9=60|35=0|34=80|49=IRISPAR1|52=20250606-00:13:17.282|56=EXCHANGE|10=148|8=FIX.4.4|9=60|35=0|34=81|49=IRISPAR1|52=20250606-00:13:27.283|56=EXCHANGE|10=151|8=FIX.4.4|9=60|35=0|34=82|49=IRISPAR1|52=20250606-00:13:37.283|56=EXCHANGE|10=153|8=FIX.4.4|9=60|35=0|34=83|49=IRISPAR1|52=20250606-00:13:47.283|56=EXCHANGE|10=155|8=FIX.4.4|9=60|35=0|34=84|49=IRISPAR1|52=20250606-00:13:57.283|56=EXCHANGE|10=157|8=FIX.4.4|9=60|35=0|34=85|49=IRISPAR1|52=20250606-00:14:07.283|56=EXCHANGE|10=154|8=FIX.4.4|9=60|35=0|34=86|49=IRISPAR1|52=20250606-00:14:17.283|56=EXCHANGE|10=156|8=FIX.4.4|9=60|35=0|34=87|49=IRISPAR1|52=20250606-00:14:27.283|56=EXCHANGE|10=158|8=FIX.4.4|9=60|35=0|34=88|49=IRISPAR1|52=20250606-00:14:37.283|56=EXCHANGE|10=160|8=FIX.4.4|9=60|35=0|34=89|49=IRISPAR1|52=20250606-00:14:47.283|56=EXCHANGE|10=162|8=FIX.4.4|9=60|35=0|34=90|49=IRISPAR1|52=20250606-00:14:57.283|56=EXCHANGE|10=155|8=FIX.4.4|9=60|35=0|34=91|49=IRISPAR1|52=20250606-00:15:07.284|56=EXCHANGE|10=153|8=FIX.4.4|9=60|35=0|34=92|49=IRISPAR1|52=20250606-00:15:17.284|56=EXCHANGE|10=155|8=FIX.4.4|9=60|35=0|34=93|49=IRISPAR1|52=20250606-00:15:27.284|56=EXCHANGE|10=157|8=FIX.4.4|9=60|35=0|34=94|49=IRISPAR1|52=20250606-00:15:37.284|56=EXCHANGE|10=159|8=FIX.4.4|9=60|35=0|34=95|49=IRISPAR1|52=20250606-00:15:47.284|56=EXCHANGE|10=161|8=FIX.4.4|9=60|35=0|34=96|49=IRISPAR1|52=20250606-00:15:57.284|56=EXCHANGE|10=163|8=FIX.4.4|9=60|35=0|34=97|49=IRISPAR1|52=20250606-00:16:07.284|56=EXCHANGE|10=160|8=FIX.4.4|9=60|35=0|34=98|49=IRISPAR1|52=20250606-00:16:17.284|56=EXCHANGE|10=162|8=FIX.4.4|9=60|35=0|34=99|49=IRISPAR1|52=20250606-00:16:27.285|56=EXCHANGE|10=165|8=FIX.4.4|9=61|35=0|34=100|49=IRISPAR1|52=20250606-00:16:37.285|56=EXCHANGE|10=198|8=FIX.4.4|9=61|35=0|34=101|49=IRISPAR1|52=20250606-00:16:47.285|56=EXCHANGE|10=200|8=FIX.4.4|9=61|35=0|34=102|49=IRISPAR1|52=20250606-00:16:57.285|56=EXCHANGE|10=202|8=FIX.4.4|9=61|35=0|34=103|49=IRISPAR1|52=20250606-00:17:07.285|56=EXCHANGE|10=199|8=FIX.4.4|9=61|35=0|34=104|49=IRISPAR1|52=20250606-00:17:17.285|56=EXCHANGE|10=201|8=FIX.4.4|9=61|35=0|34=105|49=IRISPAR1|52=20250606-00:17:27.285|56=EXCHANGE|10=203|8=FIX.4.4|9=61|35=0|34=106|49=IRISPAR1|52=20250606-00:17:37.285|56=EXCHANGE|10=205|8=FIX.4.4|9=61|35=0|34=107|49=IRISPAR1|52=20250606-00:17:47.286|56=EXCHANGE|10=208|8=FIX.4.4|9=61|35=0|34=108|49=IRISPAR1|52=20250606-00:17:57.286|56=EXCHANGE|10=210|8=FIX.4.4|9=61|35=0|34=109|49=IRISPAR1|52=20250606-00:18:07.286|56=EXCHANGE|10=207|8=FIX.4.4|9=61|35=0|34=110|49=IRISPAR1|52=20250606-00:18:17.286|56=EXCHANGE|10=200|8=FIX.4.4|9=61|35=0|34=111|49=IRISPAR1|52=20250606-00:18:27.286|56=EXCHANGE|10=202|8=FIX.4.4|9=61|35=0|34=112|49=IRISPAR1|52=20250606-00:18:37.286|56=EXCHANGE|10=204|8=FIX.4.4|9=61|35=0|34=113|49=IRISPAR1|52=20250606-00:18:47.286|56=EXCHANGE|10=206|8=FIX.4.4|9=61|35=0|34=114|49=IRISPAR1|52=20250606-00:18:57.286|56=EXCHANGE|10=208|8=FIX.4.4|9=61|35=0|34=115|49=IRISPAR1|52=20250606-00:19:07.287|56=EXCHANGE|10=206|8=FIX.4.4|9=61|35=0|34=116|49=IRISPAR1|52=20250606-00:19:17.287|56=EXCHANGE|10=208|8=FIX.4.4|9=61|35=0|34=117|49=IRISPAR1|52=20250606-00:19:27.287|56=EXCHANGE|10=210|8=FIX.4.4|9=61|35=0|34=118|49=IRISPAR1|52=20250606-00:19:37.287|56=EXCHANGE|10=212|8=FIX.4.4|9=61|35=0|34=119|49=IRISPAR1|52=20250606-00:19:47.287|56=EXCHANGE|10=214|8=FIX.4.4|9=61|35=0|34=120|49=IRISPAR1|52=20250606-00:19:57.287|56=EXCHANGE|10=207|8=FIX.4.4|9=61|35=0|34=121|49=IRISPAR1|52=20250606-00:20:07.287|56=EXCHANGE|10=195|8=FIX.4.4|9=61|35=0|34=122|49=IRISPAR1|52=20250606-00:20:17.288|56=EXCHANGE|10=198|8=FIX.4.4|9=61|35=0|34=123|49=IRISPAR1|52=20250606-00:20:27.288|56=EXCHANGE|10=200|8=FIX.4.4|9=61|35=0|34=124|49=IRISPAR1|52=20250606-00:20:37.288|56=EXCHANGE|10=202|8=FIX.4.4|9=61|35=0|34=125|49=IRISPAR1|52=20250606-00:20:47.288|56=EXCHANGE|10=204|8=FIX.4.4|9=61|35=0|34=126|49=IRISPAR1|52=20250606-00:20:57.288|56=EXCHANGE|10=206|8=FIX.4.4|9=61|35=0|34=127|49=IRISPAR1|52=20250606-00:21:07.288|56=EXCHANGE|10=203|8=FIX.4.4|9=61|35=0|34=128|49=IRISPAR1|52=20250606-00:21:17.288|56=EXCHANGE|10=205|8=FIX.4.4|9=61|35=0|34=129|49=IRISPAR1|52=20250606-00:21:27.288|56=EXCHANGE|10=207|8=FIX.4.4|9=61|35=0|34=130|49=IRISPAR1|52=20250606-00:21:37.289|56=EXCHANGE|10=201|8=FIX.4.4|9=61|35=0|34=131|49=IRISPAR1|52=20250606-00:21:47.289|56=EXCHANGE|10=203|8=FIX.4.4|9=61|35=0|34=132|49=IRISPAR1|52=20250606-00:21:57.289|56=EXCHANGE|10=205|8=FIX.4.4|9=61|35=0|34=133|49=IRISPAR1|52=20250606-00:22:07.289|56=EXCHANGE|10=202|8=FIX.4.4|9=61|35=0|34=134|49=IRISPAR1|52=20250606-00:22:17.289|56=EXCHANGE|10=204|8=FIX.4.4|9=61|35=0|34=135|49=IRISPAR1|52=20250606-00:22:27.289|56=EXCHANGE|10=206|8=FIX.4.4|9=61|35=0|34=136|49=IRISPAR1|52=20250606-00:22:37.289|56=EXCHANGE|10=208|8=FIX.4.4|9=61|35=0|34=137|49=IRISPAR1|52=20250606-00:22:47.289|56=EXCHANGE|10=210|8=FIX.4.4|9=61|35=0|34=138|49=IRISPAR1|52=20250606-00:22:57.289|56=EXCHANGE|10=212|8=FIX.4.4|9=61|35=0|34=139|49=IRISPAR1|52=20250606-00:23:07.289|56=EXCHANGE|10=209|8=FIX.4.4|9=61|35=0|34=140|49=IRISPAR1|52=20250606-00:23:17.290|56=EXCHANGE|10=194|8=FIX.4.4|9=61|35=0|34=141|49=IRISPAR1|52=20250606-00:23:27.290|56=EXCHANGE|10=196|8=FIX.4.4|9=61|35=0|34=142|49=IRISPAR1|52=20250606-00:23:37.290|56=EXCHANGE|10=198|8=FIX.4.4|9=61|35=0|34=143|49=IRISPAR1|52=20250606-00:23:47.290|56=EXCHANGE|10=200|8=FIX.4.4|9=61|35=0|34=144|49=IRISPAR1|52=20250606-00:23:57.290|56=EXCHANGE|10=202|8=FIX.4.4|9=61|35=0|34=145|49=IRISPAR1|52=20250606-00:24:07.290|56=EXCHANGE|10=199|8=FIX.4.4|9=61|35=0|34=146|49=IRISPAR1|52=20250606-00:24:17.290|56=EXCHANGE|10=201|8=FIX.4.4|9=61|35=0|34=147|49=IRISPAR1|52=20250606-00:24:27.290|56=EXCHANGE|10=203|8=FIX.4.4|9=61|35=0|34=148|49=IRISPAR1|52=20250606-00:24:37.290|56=EXCHANGE|10=205|8=FIX.4.4|9=61|35=0|34=149|49=IRISPAR1|52=20250606-00:24:47.290|56=EXCHANGE|10=207|8=FIX.4.4|9=61|35=0|34=150|49=IRISPAR1|52=20250606-00:24:57.291|56=EXCHANGE|10=201|8=FIX.4.4|9=61|35=0|34=151|49=IRISPAR1|52=20250606-00:25:07.291|56=EXCHANGE|10=198|8=FIX.4.4|9=61|35=0|34=152|49=IRISPAR1|52=20250606-00:25:17.291|56=EXCHANGE|10=200|8=FIX.4.4|9=61|35=0|34=153|49=IRISPAR1|52=20250606-00:25:27.291|56=EXCHANGE|10=202|8=FIX.4.4|9=61|35=0|34=154|49=IRISPAR1|52=20250606-00:25:37.291|56=EXCHANGE|10=204|8=FIX.4.4|9=61|35=0|34=155|49=IRISPAR1|52=20250606-00:25:47.291|56=EXCHANGE|10=206|8=FIX.4.4|9=61|35=0|34=156|49=IRISPAR1|52=20250606-00:25:57.291|56=EXCHANGE|10=208|8=FIX.4.4|9=61|35=0|34=157|49=IRISPAR1|52=20250606-00:26:07.291|56=EXCHANGE|10=205|8=FIX.4.4|9=61|35=0|34=158|49=IRISPAR1|52=20250606-00:26:17.291|56=EXCHANGE|10=207|8=FIX.4.4|9=61|35=0|34=159|49=IRISPAR1|52=20250606-00:26:27.291|56=EXCHANGE|10=209|8=FIX.4.4|9=61|35=0|34=160|49=IRISPAR1|52=20250606-00:26:37.292|56=EXCHANGE|10=203|8=FIX.4.4|9=61|35=0|34=161|49=IRISPAR1|52=20250606-00:26:47.292|56=EXCHANGE|10=205|8=FIX.4.4|9=61|35=0|34=162|49=IRISPAR1|52=20250606-00:26:57.292|56=EXCHANGE|10=207|8=FIX.4.4|9=61|35=0|34=163|49=IRISPAR1|52=20250606-00:27:07.292|56=EXCHANGE|10=204|8=FIX.4.4|9=61|35=0|34=164|49=IRISPAR1|52=20250606-00:27:17.292|56=EXCHANGE|10=206|8=FIX.4.4|9=61|35=0|34=165|49=IRISPAR1|52=20250606-00:27:27.292|56=EXCHANGE|10=208|8=FIX.4.4|9=61|35=0|34=166|49=IRISPAR1|52=20250606-00:27:37.292|56=EXCHANGE|10=210|8=FIX.4.4|9=61|35=0|34=167|49=IRISPAR1|52=20250606-00:27:47.292|56=EXCHANGE|10=212|8=FIX.4.4|9=61|35=0|34=168|49=IRISPAR1|52=20250606-00:27:57.292|56=EXCHANGE|10=214|8=FIX.4.4|9=61|35=0|34=169|49=IRISPAR1|52=20250606-00:28:07.293|56=EXCHANGE|10=212|8=FIX.4.4|9=61|35=0|34=170|49=IRISPAR1|52=20250606-00:28:17.293|56=EXCHANGE|10=205|8=FIX.4.4|9=61|35=0|34=171|49=IRISPAR1|52=20250606-00:28:27.293|56=EXCHANGE|10=207|8=FIX.4.4|9=61|35=0|34=172|49=IRISPAR1|52=20250606-00:28:37.293|56=EXCHANGE|10=209|8=FIX.4.4|9=61|35=0|34=173|49=IRISPAR1|52=20250606-00:28:47.293|56=EXCHANGE|10=211|8=FIX.4.4|9=61|35=0|34=174|49=IRISPAR1|52=20250606-00:28:57.293|56=EXCHANGE|10=213|8=FIX.4.4|9=61|35=0|34=175|49=IRISPAR1|52=20250606-00:29:07.293|56=EXCHANGE|10=210|8=FIX.4.4|9=61|35=0|34=176|49=IRISPAR1|52=20250606-00:29:17.294|56=EXCHANGE|10=213|8=FIX.4.4|9=61|35=0|34=177|49=IRISPAR1|52=20250606-00:29:27.294|56=EXCHANGE|10=215|8=FIX.4.4|9=61|35=0|34=178|49=IRISPAR1|52=20250606-00:29:37.294|56=EXCHANGE|10=217|8=FIX.4.4|9=61|35=0|34=179|49=IRISPAR1|52=20250606-00:29:47.294|56=EXCHANGE|10=219|8=FIX.4.4|9=61|35=0|34=180|49=IRISPAR1|52=20250606-00:29:57.294|56=EXCHANGE|10=212|8=FIX.4.4|9=61|35=0|34=181|49=IRISPAR1|52=20250606-00:30:07.294|56=EXCHANGE|10=200|8=FIX.4.4|9=61|35=0|34=182|49=IRISPAR1|52=20250606-00:30:17.294|56=EXCHANGE|10=202|8=FIX.4.4|9=61|35=0|34=183|49=IRISPAR1|52=20250606-00:30:27.294|56=EXCHANGE|10=204|8=FIX.4.4|9=61|35=0|34=184|49=IRISPAR1|52=20250606-00:30:37.294|56=EXCHANGE|10=206|8=FIX.4.4|9=61|35=0|34=185|49=IRISPAR1|52=20250606-00:30:47.294|56=EXCHANGE|10=208|8=FIX.4.4|9=61|35=0|34=186|49=IRISPAR1|52=20250606-00:30:57.294|56=EXCHANGE|10=210|8=FIX.4.4|9=61|35=0|34=187|49=IRISPAR1|52=20250606-00:31:07.295|56=EXCHANGE|10=208|8=FIX.4.4|9=61|35=0|34=188|49=IRISPAR1|52=20250606-00:31:17.295|56=EXCHANGE|10=210|8=FIX.4.4|9=61|35=0|34=189|49=IRISPAR1|52=20250606-00:31:27.295|56=EXCHANGE|10=212|8=FIX.4.4|9=61|35=0|34=190|49=IRISPAR1|52=20250606-00:31:37.295|56=EXCHANGE|10=205|8=FIX.4.4|9=61|35=0|34=191|49=IRISPAR1|52=20250606-00:31:47.295|56=EXCHANGE|10=207|8=FIX.4.4|9=61|35=0|34=192|49=IRISPAR1|52=20250606-00:31:57.295|56=EXCHANGE|10=209|8=FIX.4.4|9=61|35=0|34=193|49=IRISPAR1|52=20250606-00:32:07.296|56=EXCHANGE|10=207|8=FIX.4.4|9=61|35=0|34=194|49=IRISPAR1|52=20250606-00:32:17.296|56=EXCHANGE|10=209|8=FIX.4.4|9=61|35=0|34=195|49=IRISPAR1|52=20250606-00:32:27.296|56=EXCHANGE|10=211|8=FIX.4.4|9=61|35=0|34=196|49=IRISPAR1|52=20250606-00:32:37.296|56=EXCHANGE|10=213|8=FIX.4.4|9=61|35=0|34=197|49=IRISPAR1|52=20250606-00:32:47.296|56=EXCHANGE|10=215|8=FIX.4.4|9=61|35=0|34=198|49=IRISPAR1|52=20250606-00:32:57.296|56=EXCHANGE|10=217|8=FIX.4.4|9=61|35=0|34=199|49=IRISPAR1|52=20250606-00:33:07.296|56=EXCHANGE|10=214|8=FIX.4.4|9=61|35=0|34=200|49=IRISPAR1|52=20250606-00:33:17.296|56=EXCHANGE|10=198|8=FIX.4.4|9=61|35=0|34=201|49=IRISPAR1|52=20250606-00:33:27.296|56=EXCHANGE|10=200|8=FIX.4.4|9=61|35=0|34=202|49=IRISPAR1|52=20250606-00:33:37.297|56=EXCHANGE|10=203|8=FIX.4.4|9=61|35=0|34=203|49=IRISPAR1|52=20250606-00:33:47.297|56=EXCHANGE|10=205|8=FIX.4.4|9=61|35=0|34=204|49=IRISPAR1|52=20250606-00:33:57.297|56=EXCHANGE|10=207|8=FIX.4.4|9=61|35=0|34=205|49=IRISPAR1|52=20250606-00:34:07.297|56=EXCHANGE|10=204|8=FIX.4.4|9=61|35=0|34=206|49=IRISPAR1|52=20250606-00:34:17.297|56=EXCHANGE|10=206|8=FIX.4.4|9=61|35=0|34=207|49=IRISPAR1|52=20250606-00:34:27.297|56=EXCHANGE|10=208|8=FIX.4.4|9=61|35=0|34=208|49=IRISPAR1|52=20250606-00:34:37.297|56=EXCHANGE|10=210|8=FIX.4.4|9=61|35=0|34=209|49=IRISPAR1|52=20250606-00:34:47.297|56=EXCHANGE|10=212|8=FIX.4.4|9=61|35=0|34=210|49=IRISPAR1|52=20250606-00:34:57.298|56=EXCHANGE|10=206|8=FIX.4.4|9=61|35=0|34=211|49=IRISPAR1|52=20250606-00:35:07.298|56=EXCHANGE|10=203|8=FIX.4.4|9=61|35=0|34=212|49=IRISPAR1|52=20250606-00:35:17.298|56=EXCHANGE|10=205|8=FIX.4.4|9=61|35=0|34=213|49=IRISPAR1|52=20250606-00:35:27.298|56=EXCHANGE|10=207|8=FIX.4.4|9=61|35=0|34=214|49=IRISPAR1|52=20250606-00:35:37.298|56=EXCHANGE|10=209|8=FIX.4.4|9=61|35=0|34=215|49=IRISPAR1|52=20250606-00:35:47.298|56=EXCHANGE|10=211|8=FIX.4.4|9=61|35=0|34=216|49=IRISPAR1|52=20250606-00:35:57.298|56=EXCHANGE|10=213|8=FIX.4.4|9=61|35=0|34=217|49=IRISPAR1|52=20250606-00:36:07.298|56=EXCHANGE|10=210|8=FIX.4.4|9=61|35=0|34=218|49=IRISPAR1|52=20250606-00:36:17.298|56=EXCHANGE|10=212|8=FIX.4.4|9=61|35=0|34=219|49=IRISPAR1|52=20250606-00:36:27.298|56=EXCHANGE|10=214|8=FIX.4.4|9=61|35=0|34=220|49=IRISPAR1|52=20250606-00:36:37.299|56=EXCHANGE|10=208|8=FIX.4.4|9=61|35=0|34=221|49=IRISPAR1|52=20250606-00:36:47.299|56=EXCHANGE|10=210|8=FIX.4.4|9=61|35=0|34=222|49=IRISPAR1|52=20250606-00:36:57.299|56=EXCHANGE|10=212|8=FIX.4.4|9=61|35=0|34=223|49=IRISPAR1|52=20250606-00:37:07.299|56=EXCHANGE|10=209|8=FIX.4.4|9=61|35=0|34=224|49=IRISPAR1|52=20250606-00:37:17.299|56=EXCHANGE|10=211|8=FIX.4.4|9=61|35=0|34=225|49=IRISPAR1|52=20250606-00:37:27.299|56=EXCHANGE|10=213|8=FIX.4.4|9=61|35=0|34=226|49=IRISPAR1|52=20250606-00:37:37.299|56=EXCHANGE|10=215|8=FIX.4.4|9=61|35=0|34=227|49=IRISPAR1|52=20250606-00:37:47.299|56=EXCHANGE|10=217|8=FIX.4.4|9=61|35=0|34=228|49=IRISPAR1|52=20250606-00:37:57.299|56=EXCHANGE|10=219|8=FIX.4.4|9=61|35=0|34=229|49=IRISPAR1|52=20250606-00:38:07.300|56=EXCHANGE|10=199|8=FIX.4.4|9=61|35=0|34=230|49=IRISPAR1|52=20250606-00:38:17.300|56=EXCHANGE|10=192|8=FIX.4.4|9=61|35=0|34=231|49=IRISPAR1|52=20250606-00:38:27.300|56=EXCHANGE|10=194|8=FIX.4.4|9=61|35=0|34=232|49=IRISPAR1|52=20250606-00:38:37.300|56=EXCHANGE|10=196|8=FIX.4.4|9=61|35=0|34=233|49=IRISPAR1|52=20250606-00:38:47.300|56=EXCHANGE|10=198|8=FIX.4.4|9=61|35=0|34=234|49=IRISPAR1|52=20250606-00:38:57.300|56=EXCHANGE|10=200|8=FIX.4.4|9=61|35=0|34=235|49=IRISPAR1|52=20250606-00:39:07.300|56=EXCHANGE|10=197|8=FIX.4.4|9=61|35=0|34=236|49=IRISPAR1|52=20250606-00:39:17.300|56=EXCHANGE|10=199|8=FIX.4.4|9=61|35=0|34=237|49=IRISPAR1|52=20250606-00:39:27.300|56=EXCHANGE|10=201|8=FIX.4.4|9=61|35=0|34=238|49=IRISPAR1|52=20250606-00:39:37.301|56=EXCHANGE|10=204|8=FIX.4.4|9=61|35=0|34=239|49=IRISPAR1|52=20250606-00:39:47.301|56=EXCHANGE|10=206|8=FIX.4.4|9=61|35=0|34=240|49=IRISPAR1|52=20250606-00:39:57.301|56=EXCHANGE|10=199|8=FIX.4.4|9=61|35=0|34=241|49=IRISPAR1|52=20250606-00:40:07.301|56=EXCHANGE|10=187|8=FIX.4.4|9=61|35=0|34=242|49=IRISPAR1|52=20250606-00:40:17.301|56=EXCHANGE|10=189|8=FIX.4.4|9=61|35=0|34=243|49=IRISPAR1|52=20250606-00:40:27.301|56=EXCHANGE|10=191|8=FIX.4.4|9=61|35=0|34=244|49=IRISPAR1|52=20250606-00:40:37.301|56=EXCHANGE|10=193|8=FIX.4.4|9=61|35=0|34=245|49=IRISPAR1|52=20250606-00:40:47.301|56=EXCHANGE|10=195|8=FIX.4.4|9=61|35=0|34=246|49=IRISPAR1|52=20250606-00:40:57.301|56=EXCHANGE|10=197|8=FIX.4.4|9=61|35=0|34=247|49=IRISPAR1|52=20250606-00:41:07.301|56=EXCHANGE|10=194|8=FIX.4.4|9=61|35=0|34=248|49=IRISPAR1|52=20250606-00:41:17.302|56=EXCHANGE|10=197|8=FIX.4.4|9=61|35=0|34=249|49=IRISPAR1|52=20250606-00:41:27.302|56=EXCHANGE|10=199|8=FIX.4.4|9=61|35=0|34=250|49=IRISPAR1|52=20250606-00:41:37.302|56=EXCHANGE|10=192|8=FIX.4.4|9=61|35=0|34=251|49=IRISPAR1|52=20250606-00:41:47.302|56=EXCHANGE|10=194|8=FIX.4.4|9=61|35=0|34=252|49=IRISPAR1|52=20250606-00:41:57.302|56=EXCHANGE|10=196|8=FIX.4.4|9=61|35=0|34=253|49=IRISPAR1|52=20250606-00:42:07.302|56=EXCHANGE|10=193|8=FIX.4.4|9=61|35=0|34=254|49=IRISPAR1|52=20250606-00:42:17.302|56=EXCHANGE|10=195|8=FIX.4.4|9=61|35=0|34=255|49=IRISPAR1|52=20250606-00:42:27.302|56=EXCHANGE|10=197|8=FIX.4.4|9=61|35=0|34=256|49=IRISPAR1|52=20250606-00:42:37.302|56=EXCHANGE|10=199|8=FIX.4.4|9=61|35=0|34=257|49=IRISPAR1|52=20250606-00:42:47.303|56=EXCHANGE|10=202|8=FIX.4.4|9=61|35=0|34=258|49=IRISPAR1|52=20250606-00:42:57.303|56=EXCHANGE|10=204|8=FIX.4.4|9=61|35=0|34=259|49=IRISPAR1|52=20250606-00:43:07.303|56=EXCHANGE|10=201|8=FIX.4.4|9=61|35=0|34=260|49=IRISPAR1|52=20250606-00:43:17.303|56=EXCHANGE|10=194|8=FIX.4.4|9=61|35=0|34=261|49=IRISPAR1|52=20250606-00:43:27.303|56=EXCHANGE|10=196|8=FIX.4.4|9=61|35=0|34=262|49=IRISPAR1|52=20250606-00:43:37.303|56=EXCHANGE|10=198|8=FIX.4.4|9=61|35=0|34=263|49=IRISPAR1|52=20250606-00:43:47.303|56=EXCHANGE|10=200|8=FIX.4.4|9=61|35=0|34=264|49=IRISPAR1|52=20250606-00:43:57.303|56=EXCHANGE|10=202|8=FIX.4.4|9=61|35=0|34=265|49=IRISPAR1|52=20250606-00:44:07.303|56=EXCHANGE|10=199|8=FIX.4.4|9=61|35=0|34=266|49=IRISPAR1|52=20250606-00:44:17.304|56=EXCHANGE|10=202|8=FIX.4.4|9=61|35=0|34=267|49=IRISPAR1|52=20250606-00:44:27.304|56=EXCHANGE|10=204|8=FIX.4.4|9=61|35=0|34=268|49=IRISPAR1|52=20250606-00:44:37.304|56=EXCHANGE|10=206|8=FIX.4.4|9=61|35=0|34=269|49=IRISPAR1|52=20250606-00:44:47.304|56=EXCHANGE|10=208|8=FIX.4.4|9=61|35=0|34=270|49=IRISPAR1|52=20250606-00:44:57.304|56=EXCHANGE|10=201|8=FIX.4.4|9=61|35=0|34=271|49=IRISPAR1|52=20250606-00:45:07.304|56=EXCHANGE|10=198|8=FIX.4.4|9=61|35=0|34=272|49=IRISPAR1|52=20250606-00:45:17.304|56=EXCHANGE|10=200|8=FIX.4.4|9=61|35=0|34=273|49=IRISPAR1|52=20250606-00:45:27.304|56=EXCHANGE|10=202|8=FIX.4.4|9=61|35=0|34=274|49=IRISPAR1|52=20250606-00:45:37.304|56=EXCHANGE|10=204|8=FIX.4.4|9=61|35=0|34=275|49=IRISPAR1|52=20250606-00:45:47.305|56=EXCHANGE|10=207|8=FIX.4.4|9=61|35=0|34=276|49=IRISPAR1|52=20250606-00:45:57.305|56=EXCHANGE|10=209|8=FIX.4.4|9=61|35=0|34=277|49=IRISPAR1|52=20250606-00:46:07.305|56=EXCHANGE|10=206|8=FIX.4.4|9=61|35=0|34=278|49=IRISPAR1|52=20250606-00:46:17.305|56=EXCHANGE|10=208|8=FIX.4.4|9=61|35=0|34=279|49=IRISPAR1|52=20250606-00:46:27.305|56=EXCHANGE|10=210|8=FIX.4.4|9=61|35=0|34=280|49=IRISPAR1|52=20250606-00:46:37.305|56=EXCHANGE|10=203|8=FIX.4.4|9=61|35=0|34=281|49=IRISPAR1|52=20250606-00:46:47.305|56=EXCHANGE|10=205|8=FIX.4.4|9=61|35=0|34=282|49=IRISPAR1|52=20250606-00:46:57.305|56=EXCHANGE|10=207|8=FIX.4.4|9=61|35=0|34=283|49=IRISPAR1|52=20250606-00:47:07.305|56=EXCHANGE|10=204|8=FIX.4.4|9=61|35=0|34=284|49=IRISPAR1|52=20250606-00:47:17.305|56=EXCHANGE|10=206|8=FIX.4.4|9=61|35=0|34=285|49=IRISPAR1|52=20250606-00:47:27.305|56=EXCHANGE|10=208|8=FIX.4.4|9=61|35=0|34=286|49=IRISPAR1|52=20250606-00:47:37.306|56=EXCHANGE|10=211|8=FIX.4.4|9=61|35=0|34=287|49=IRISPAR1|52=20250606-00:47:47.306|56=EXCHANGE|10=213|8=FIX.4.4|9=61|35=0|34=288|49=IRISPAR1|52=20250606-00:47:57.306|56=EXCHANGE|10=215|8=FIX.4.4|9=61|35=0|34=289|49=IRISPAR1|52=20250606-00:48:07.306|56=EXCHANGE|10=212|8=FIX.4.4|9=61|35=0|34=290|49=IRISPAR1|52=20250606-00:48:17.306|56=EXCHANGE|10=205|8=FIX.4.4|9=61|35=0|34=291|49=IRISPAR1|52=20250606-00:48:27.306|56=EXCHANGE|10=207|8=FIX.4.4|9=61|35=0|34=292|49=IRISPAR1|52=20250606-00:48:37.306|56=EXCHANGE|10=209|8=FIX.4.4|9=61|35=0|34=293|49=IRISPAR1|52=20250606-00:48:47.306|56=EXCHANGE|10=211|8=FIX.4.4|9=61|35=0|34=294|49=IRISPAR1|52=20250606-00:48:57.306|56=EXCHANGE|10=213|8=FIX.4.4|9=61|35=0|34=295|49=IRISPAR1|52=20250606-00:49:07.307|56=EXCHANGE|10=211|8=FIX.4.4|9=61|35=0|34=296|49=IRISPAR1|52=20250606-00:49:17.307|56=EXCHANGE|10=213|8=FIX.4.4|9=61|35=0|34=297|49=IRISPAR1|52=20250606-00:49:27.307|56=EXCHANGE|10=215|8=FIX.4.4|9=61|35=0|34=298|49=IRISPAR1|52=20250606-00:49:37.307|56=EXCHANGE|10=217|8=FIX.4.4|9=61|35=0|34=299|49=IRISPAR1|52=20250606-00:49:47.307|56=EXCHANGE|10=219|8=FIX.4.4|9=61|35=0|34=300|49=IRISPAR1|52=20250606-00:49:57.307|56=EXCHANGE|10=203|8=FIX.4.4|9=61|35=0|34=301|49=IRISPAR1|52=20250606-00:50:07.307|56=EXCHANGE|10=191|8=FIX.4.4|9=61|35=0|34=302|49=IRISPAR1|52=20250606-00:50:17.307|56=EXCHANGE|10=193|8=FIX.4.4|9=61|35=0|34=303|49=IRISPAR1|52=20250606-00:50:27.307|56=EXCHANGE|10=195|8=FIX.4.4|9=61|35=0|34=304|49=IRISPAR1|52=20250606-00:50:37.308|56=EXCHANGE|10=198|8=FIX.4.4|9=61|35=0|34=305|49=IRISPAR1|52=20250606-00:50:47.308|56=EXCHANGE|10=200|8=FIX.4.4|9=61|35=0|34=306|49=IRISPAR1|52=20250606-00:50:57.308|56=EXCHANGE|10=202|8=FIX.4.4|9=61|35=0|34=307|49=IRISPAR1|52=20250606-00:51:07.308|56=EXCHANGE|10=199|8=FIX.4.4|9=61|35=0|34=308|49=IRISPAR1|52=20250606-00:51:17.308|56=EXCHANGE|10=201|8=FIX.4.4|9=61|35=0|34=309|49=IRISPAR1|52=20250606-00:51:27.308|56=EXCHANGE|10=203|8=FIX.4.4|9=61|35=0|34=310|49=IRISPAR1|52=20250606-00:51:37.308|56=EXCHANGE|10=196|8=FIX.4.4|9=61|35=0|34=311|49=IRISPAR1|52=20250606-00:51:47.308|56=EXCHANGE|10=198|8=FIX.4.4|9=61|35=0|34=312|49=IRISPAR1|52=20250606-00:51:57.308|56=EXCHANGE|10=200|8=FIX.4.4|9=61|35=0|34=313|49=IRISPAR1|52=20250606-00:52:07.309|56=EXCHANGE|10=198|8=FIX.4.4|9=61|35=0|34=314|49=IRISPAR1|52=20250606-00:52:17.309|56=EXCHANGE|10=200|8=FIX.4.4|9=61|35=0|34=315|49=IRISPAR1|52=20250606-00:52:27.309|56=EXCHANGE|10=202|8=FIX.4.4|9=61|35=0|34=316|49=IRISPAR1|52=20250606-00:52:37.309|56=EXCHANGE|10=204|8=FIX.4.4|9=61|35=0|34=317|49=IRISPAR1|52=20250606-00:52:47.309|56=EXCHANGE|10=206|8=FIX.4.4|9=61|35=0|34=318|49=IRISPAR1|52=20250606-00:52:57.309|56=EXCHANGE|10=208|8=FIX.4.4|9=61|35=0|34=319|49=IRISPAR1|52=20250606-00:53:07.309|56=EXCHANGE|10=205|8=FIX.4.4|9=61|35=0|34=320|49=IRISPAR1|52=20250606-00:53:17.309|56=EXCHANGE|10=198|8=FIX.4.4|9=61|35=0|34=321|49=IRISPAR1|52=20250606-00:53:27.309|56=EXCHANGE|10=200|8=FIX.4.4|9=61|35=0|34=322|49=IRISPAR1|52=20250606-00:53:37.309|56=EXCHANGE|10=202|8=FIX.4.4|9=61|35=0|34=323|49=IRISPAR1|52=20250606-00:53:47.309|56=EXCHANGE|10=204|8=FIX.4.4|9=61|35=0|34=324|49=IRISPAR1|52=20250606-00:53:57.309|56=EXCHANGE|10=206|8=FIX.4.4|9=61|35=0|34=325|49=IRISPAR1|52=20250606-00:54:07.310|56=EXCHANGE|10=195|8=FIX.4.4|9=61|35=0|34=326|49=IRISPAR1|52=20250606-00:54:17.310|56=EXCHANGE|10=197|8=FIX.4.4|9=61|35=0|34=327|49=IRISPAR1|52=20250606-00:54:27.310|56=EXCHANGE|10=199|8=FIX.4.4|9=61|35=0|34=328|49=IRISPAR1|52=20250606-00:54:37.310|56=EXCHANGE|10=201|8=FIX.4.4|9=61|35=0|34=329|49=IRISPAR1|52=20250606-00:54:47.310|56=EXCHANGE|10=203|8=FIX.4.4|9=61|35=0|34=330|49=IRISPAR1|52=20250606-00:54:57.310|56=EXCHANGE|10=196|8=FIX.4.4|9=61|35=0|34=331|49=IRISPAR1|52=20250606-00:55:07.310|56=EXCHANGE|10=193|8=FIX.4.4|9=61|35=0|34=332|49=IRISPAR1|52=20250606-00:55:17.310|56=EXCHANGE|10=195|8=FIX.4.4|9=61|35=0|34=333|49=IRISPAR1|52=20250606-00:55:27.311|56=EXCHANGE|10=198|8=FIX.4.4|9=61|35=0|34=334|49=IRISPAR1|52=20250606-00:55:37.311|56=EXCHANGE|10=200|8=FIX.4.4|9=61|35=0|34=335|49=IRISPAR1|52=20250606-00:55:47.311|56=EXCHANGE|10=202|8=FIX.4.4|9=61|35=0|34=336|49=IRISPAR1|52=20250606-00:55:57.311|56=EXCHANGE|10=204|8=FIX.4.4|9=61|35=0|34=337|49=IRISPAR1|52=20250606-00:56:07.311|56=EXCHANGE|10=201|8=FIX.4.4|9=61|35=0|34=338|49=IRISPAR1|52=20250606-00:56:17.311|56=EXCHANGE|10=203|8=FIX.4.4|9=61|35=0|34=339|49=IRISPAR1|52=20250606-00:56:27.311|56=EXCHANGE|10=205|8=FIX.4.4|9=61|35=0|34=340|49=IRISPAR1|52=20250606-00:56:37.311|56=EXCHANGE|10=198|8=FIX.4.4|9=61|35=0|34=341|49=IRISPAR1|52=20250606-00:56:47.311|56=EXCHANGE|10=200|8=FIX.4.4|9=61|35=0|34=342|49=IRISPAR1|52=20250606-00:56:57.311|56=EXCHANGE|10=202|8=FIX.4.4|9=61|35=0|34=343|49=IRISPAR1|52=20250606-00:57:07.312|56=EXCHANGE|10=200|8=FIX.4.4|9=61|35=0|34=344|49=IRISPAR1|52=20250606-00:57:17.312|56=EXCHANGE|10=202|8=FIX.4.4|9=61|35=0|34=345|49=IRISPAR1|52=20250606-00:57:27.312|56=EXCHANGE|10=204|8=FIX.4.4|9=61|35=0|34=346|49=IRISPAR1|52=20250606-00:57:37.312|56=EXCHANGE|10=206|8=FIX.4.4|9=61|35=0|34=347|49=IRISPAR1|52=20250606-00:57:47.312|56=EXCHANGE|10=208|8=FIX.4.4|9=61|35=0|34=348|49=IRISPAR1|52=20250606-00:57:57.312|56=EXCHANGE|10=210|8=FIX.4.4|9=61|35=0|34=349|49=IRISPAR1|52=20250606-00:58:07.312|56=EXCHANGE|10=207|8=FIX.4.4|9=61|35=0|34=350|49=IRISPAR1|52=20250606-00:58:17.312|56=EXCHANGE|10=200|8=FIX.4.4|9=61|35=0|34=351|49=IRISPAR1|52=20250606-00:58:27.312|56=EXCHANGE|10=202|8=FIX.4.4|9=61|35=0|34=352|49=IRISPAR1|52=20250606-00:58:37.312|56=EXCHANGE|10=204|8=FIX.4.4|9=61|35=0|34=353|49=IRISPAR1|52=20250606-00:58:47.313|56=EXCHANGE|10=207|8=FIX.4.4|9=61|35=0|34=354|49=IRISPAR1|52=20250606-00:58:57.313|56=EXCHANGE|10=209|8=FIX.4.4|9=61|35=0|34=355|49=IRISPAR1|52=20250606-00:59:07.313|56=EXCHANGE|10=206|8=FIX.4.4|9=61|35=0|34=356|49=IRISPAR1|52=20250606-00:59:17.313|56=EXCHANGE|10=208|8=FIX.4.4|9=61|35=0|34=357|49=IRISPAR1|52=20250606-00:59:27.313|56=EXCHANGE|10=210|8=FIX.4.4|9=61|35=0|34=358|49=IRISPAR1|52=20250606-00:59:37.313|56=EXCHANGE|10=212|8=FIX.4.4|9=61|35=0|34=359|49=IRISPAR1|52=20250606-00:59:47.313|56=EXCHANGE|10=214|8=FIX.4.4|9=61|35=0|34=360|49=IRISPAR1|52=20250606-00:59:57.313|56=EXCHANGE|10=207|8=FIX.4.4|9=61|35=0|34=361|49=IRISPAR1|52=20250606-01:00:07.313|56=EXCHANGE|10=190|8=FIX.4.4|9=61|35=0|34=362|49=IRISPAR1|52=20250606-01:00:17.313|56=EXCHANGE|10=192|8=FIX.4.4|9=61|35=0|34=363|49=IRISPAR1|52=20250606-01:00:27.313|56=EXCHANGE|10=194|8=FIX.4.4|9=61|35=0|34=364|49=IRISPAR1|52=20250606-01:00:37.314|56=EXCHANGE|10=197|8=FIX.4.4|9=61|35=0|34=365|49=IRISPAR1|52=20250606-01:00:47.314|56=EXCHANGE|10=199|8=FIX.4.4|9=61|35=0|34=366|49=IRISPAR1|52=20250606-01:00:57.314|56=EXCHANGE|10=201|8=FIX.4.4|9=61|35=0|34=367|49=IRISPAR1|52=20250606-01:01:07.314|56=EXCHANGE|10=198|8=FIX.4.4|9=61|35=0|34=368|49=IRISPAR1|52=20250606-01:01:17.314|56=EXCHANGE|10=200|8=FIX.4.4|9=61|35=0|34=369|49=IRISPAR1|52=20250606-01:01:27.314|56=EXCHANGE|10=202|8=FIX.4.4|9=61|35=0|34=370|49=IRISPAR1|52=20250606-01:01:37.314|56=EXCHANGE|10=195|8=FIX.4.4|9=61|35=0|34=371|49=IRISPAR1|52=20250606-01:01:47.314|56=EXCHANGE|10=197|8=FIX.4.4|9=61|35=0|34=372|49=IRISPAR1|52=20250606-01:01:57.314|56=EXCHANGE|10=199|8=FIX.4.4|9=61|35=0|34=373|49=IRISPAR1|52=20250606-01:02:07.314|56=EXCHANGE|10=196|8=FIX.4.4|9=61|35=0|34=374|49=IRISPAR1|52=20250606-01:02:17.315|56=EXCHANGE|10=199|8=FIX.4.4|9=61|35=0|34=375|49=IRISPAR1|52=20250606-01:02:27.315|56=EXCHANGE|10=201|8=FIX.4.4|9=61|35=0|34=376|49=IRISPAR1|52=20250606-01:02:37.315|56=EXCHANGE|10=203|8=FIX.4.4|9=61|35=0|34=377|49=IRISPAR1|52=20250606-01:02:47.315|56=EXCHANGE|10=205|8=FIX.4.4|9=61|35=0|34=378|49=IRISPAR1|52=20250606-01:02:57.315|56=EXCHANGE|10=207|8=FIX.4.4|9=61|35=0|34=379|49=IRISPAR1|52=20250606-01:03:07.315|56=EXCHANGE|10=204|8=FIX.4.4|9=61|35=0|34=380|49=IRISPAR1|52=20250606-01:03:17.315|56=EXCHANGE|10=197|8=FIX.4.4|9=61|35=0|34=381|49=IRISPAR1|52=20250606-01:03:27.315|56=EXCHANGE|10=199|8=FIX.4.4|9=61|35=0|34=382|49=IRISPAR1|52=20250606-01:03:37.315|56=EXCHANGE|10=201|8=FIX.4.4|9=61|35=0|34=383|49=IRISPAR1|52=20250606-01:03:47.315|56=EXCHANGE|10=203|8=FIX.4.4|9=61|35=0|34=384|49=IRISPAR1|52=20250606-01:03:57.316|56=EXCHANGE|10=206|8=FIX.4.4|9=61|35=0|34=385|49=IRISPAR1|52=20250606-01:04:07.316|56=EXCHANGE|10=203|8=FIX.4.4|9=61|35=0|34=386|49=IRISPAR1|52=20250606-01:04:17.316|56=EXCHANGE|10=205|8=FIX.4.4|9=61|35=0|34=387|49=IRISPAR1|52=20250606-01:04:27.316|56=EXCHANGE|10=207|8=FIX.4.4|9=61|35=0|34=388|49=IRISPAR1|52=20250606-01:04:37.316|56=EXCHANGE|10=209|8=FIX.4.4|9=61|35=0|34=389|49=IRISPAR1|52=20250606-01:04:47.316|56=EXCHANGE|10=211|8=FIX.4.4|9=61|35=0|34=390|49=IRISPAR1|52=20250606-01:04:57.316|56=EXCHANGE|10=204|8=FIX.4.4|9=61|35=0|34=391|49=IRISPAR1|52=20250606-01:05:07.316|56=EXCHANGE|10=201|8=FIX.4.4|9=61|35=0|34=392|49=IRISPAR1|52=20250606-01:05:17.316|56=EXCHANGE|10=203|8=FIX.4.4|9=61|35=0|34=393|49=IRISPAR1|52=20250606-01:05:27.316|56=EXCHANGE|10=205|8=FIX.4.4|9=61|35=0|34=394|49=IRISPAR1|52=20250606-01:05:37.317|56=EXCHANGE|10=208|8=FIX.4.4|9=61|35=0|34=395|49=IRISPAR1|52=20250606-01:05:47.317|56=EXCHANGE|10=210|8=FIX.4.4|9=61|35=0|34=396|49=IRISPAR1|52=20250606-01:05:57.317|56=EXCHANGE|10=212|8=FIX.4.4|9=61|35=0|34=397|49=IRISPAR1|52=20250606-01:06:07.317|56=EXCHANGE|10=209|8=FIX.4.4|9=61|35=0|34=398|49=IRISPAR1|52=20250606-01:06:17.317|56=EXCHANGE|10=211|8=FIX.4.4|9=61|35=0|34=399|49=IRISPAR1|52=20250606-01:06:27.317|56=EXCHANGE|10=213|8=FIX.4.4|9=61|35=0|34=400|49=IRISPAR1|52=20250606-01:06:37.317|56=EXCHANGE|10=197|8=FIX.4.4|9=61|35=0|34=401|49=IRISPAR1|52=20250606-01:06:47.317|56=EXCHANGE|10=199|8=FIX.4.4|9=61|35=0|34=402|49=IRISPAR1|52=20250606-01:06:57.318|56=EXCHANGE|10=202|8=FIX.4.4|9=61|35=0|34=403|49=IRISPAR1|52=20250606-01:07:07.318|56=EXCHANGE|10=199|8=FIX.4.4|9=61|35=0|34=404|49=IRISPAR1|52=20250606-01:07:17.318|56=EXCHANGE|10=201|8=FIX.4.4|9=61|35=0|34=405|49=IRISPAR1|52=20250606-01:07:27.318|56=EXCHANGE|10=203|8=FIX.4.4|9=61|35=0|34=406|49=IRISPAR1|52=20250606-01:07:37.318|56=EXCHANGE|10=205|8=FIX.4.4|9=61|35=0|34=407|49=IRISPAR1|52=20250606-01:07:47.318|56=EXCHANGE|10=207|8=FIX.4.4|9=61|35=0|34=408|49=IRISPAR1|52=20250606-01:07:57.318|56=EXCHANGE|10=209|8=FIX.4.4|9=61|35=0|34=409|49=IRISPAR1|52=20250606-01:08:07.318|56=EXCHANGE|10=206|8=FIX.4.4|9=61|35=0|34=410|49=IRISPAR1|52=20250606-01:08:17.318|56=EXCHANGE|10=199|8=FIX.4.4|9=61|35=0|34=411|49=IRISPAR1|52=20250606-01:08:27.319|56=EXCHANGE|10=202|8=FIX.4.4|9=61|35=0|34=412|49=IRISPAR1|52=20250606-01:08:37.319|56=EXCHANGE|10=204|8=FIX.4.4|9=61|35=0|34=413|49=IRISPAR1|52=20250606-01:08:47.319|56=EXCHANGE|10=206|8=FIX.4.4|9=61|35=0|34=414|49=IRISPAR1|52=20250606-01:08:57.319|56=EXCHANGE|10=208|8=FIX.4.4|9=61|35=0|34=415|49=IRISPAR1|52=20250606-01:09:07.319|56=EXCHANGE|10=205|8=FIX.4.4|9=61|35=0|34=416|49=IRISPAR1|52=20250606-01:09:17.319|56=EXCHANGE|10=207|8=FIX.4.4|9=61|35=0|34=417|49=IRISPAR1|52=20250606-01:09:27.319|56=EXCHANGE|10=209|8=FIX.4.4|9=61|35=0|34=418|49=IRISPAR1|52=20250606-01:09:37.319|56=EXCHANGE|10=211|8=FIX.4.4|9=61|35=0|34=419|49=IRISPAR1|52=20250606-01:09:47.319|56=EXCHANGE|10=213|8=FIX.4.4|9=61|35=0|34=420|49=IRISPAR1|52=20250606-01:09:57.319|56=EXCHANGE|10=206|8=FIX.4.4|9=61|35=0|34=421|49=IRISPAR1|52=20250606-01:10:07.320|56=EXCHANGE|10=186|8=FIX.4.4|9=61|35=0|34=422|49=IRISPAR1|52=20250606-01:10:17.320|56=EXCHANGE|10=188|8=FIX.4.4|9=61|35=0|34=423|49=IRISPAR1|52=20250606-01:10:27.320|56=EXCHANGE|10=190|8=FIX.4.4|9=61|35=0|34=424|49=IRISPAR1|52=20250606-01:10:37.320|56=EXCHANGE|10=192|8=FIX.4.4|9=61|35=0|34=425|49=IRISPAR1|52=20250606-01:10:47.320|56=EXCHANGE|10=194|8=FIX.4.4|9=61|35=0|34=426|49=IRISPAR1|52=20250606-01:10:57.320|56=EXCHANGE|10=196|8=FIX.4.4|9=61|35=0|34=427|49=IRISPAR1|52=20250606-01:11:07.320|56=EXCHANGE|10=193|8=FIX.4.4|9=61|35=0|34=428|49=IRISPAR1|52=20250606-01:11:17.320|56=EXCHANGE|10=195|8=FIX.4.4|9=61|35=0|34=429|49=IRISPAR1|52=20250606-01:11:27.320|56=EXCHANGE|10=197|8=FIX.4.4|9=61|35=0|34=430|49=IRISPAR1|52=20250606-01:11:37.321|56=EXCHANGE|10=191|8=FIX.4.4|9=61|35=0|34=431|49=IRISPAR1|52=20250606-01:11:47.321|56=EXCHANGE|10=193|8=FIX.4.4|9=61|35=0|34=432|49=IRISPAR1|52=20250606-01:11:57.321|56=EXCHANGE|10=195|8=FIX.4.4|9=61|35=0|34=433|49=IRISPAR1|52=20250606-01:12:07.321|56=EXCHANGE|10=192|8=FIX.4.4|9=61|35=0|34=434|49=IRISPAR1|52=20250606-01:12:17.321|56=EXCHANGE|10=194|8=FIX.4.4|9=61|35=0|34=435|49=IRISPAR1|52=20250606-01:12:27.321|56=EXCHANGE|10=196|8=FIX.4.4|9=61|35=0|34=436|49=IRISPAR1|52=20250606-01:12:37.321|56=EXCHANGE|10=198|8=FIX.4.4|9=61|35=0|34=437|49=IRISPAR1|52=20250606-01:12:47.321|56=EXCHANGE|10=200|8=FIX.4.4|9=61|35=0|34=438|49=IRISPAR1|52=20250606-01:12:57.321|56=EXCHANGE|10=202|8=FIX.4.4|9=61|35=0|34=439|49=IRISPAR1|52=20250606-01:13:07.322|56=EXCHANGE|10=200|8=FIX.4.4|9=61|35=0|34=440|49=IRISPAR1|52=20250606-01:13:17.322|56=EXCHANGE|10=193|8=FIX.4.4|9=61|35=0|34=441|49=IRISPAR1|52=20250606-01:13:27.322|56=EXCHANGE|10=195|8=FIX.4.4|9=61|35=0|34=442|49=IRISPAR1|52=20250606-01:13:37.322|56=EXCHANGE|10=197|8=FIX.4.4|9=61|35=0|34=443|49=IRISPAR1|52=20250606-01:13:47.322|56=EXCHANGE|10=199|8=FIX.4.4|9=61|35=0|34=444|49=IRISPAR1|52=20250606-01:13:57.322|56=EXCHANGE|10=201|8=FIX.4.4|9=61|35=0|34=445|49=IRISPAR1|52=20250606-01:14:07.322|56=EXCHANGE|10=198|8=FIX.4.4|9=61|35=0|34=446|49=IRISPAR1|52=20250606-01:14:17.323|56=EXCHANGE|10=201|8=FIX.4.4|9=61|35=0|34=447|49=IRISPAR1|52=20250606-01:14:27.323|56=EXCHANGE|10=203|8=FIX.4.4|9=61|35=0|34=448|49=IRISPAR1|52=20250606-01:14:37.323|56=EXCHANGE|10=205|8=FIX.4.4|9=61|35=0|34=449|49=IRISPAR1|52=20250606-01:14:47.323|56=EXCHANGE|10=207|8=FIX.4.4|9=61|35=0|34=450|49=IRISPAR1|52=20250606-01:14:57.323|56=EXCHANGE|10=200|8=FIX.4.4|9=61|35=0|34=451|49=IRISPAR1|52=20250606-01:15:07.323|56=EXCHANGE|10=197|8=FIX.4.4|9=61|35=0|34=452|49=IRISPAR1|52=20250606-01:15:17.323|56=EXCHANGE|10=199|8=FIX.4.4|9=61|35=0|34=453|49=IRISPAR1|52=20250606-01:15:27.323|56=EXCHANGE|10=201|8=FIX.4.4|9=61|35=0|34=454|49=IRISPAR1|52=20250606-01:15:37.324|56=EXCHANGE|10=204|8=FIX.4.4|9=61|35=0|34=455|49=IRISPAR1|52=20250606-01:15:47.324|56=EXCHANGE|10=206|8=FIX.4.4|9=61|35=0|34=456|49=IRISPAR1|52=20250606-01:15:57.324|56=EXCHANGE|10=208|8=FIX.4.4|9=61|35=0|34=457|49=IRISPAR1|52=20250606-01:16:07.324|56=EXCHANGE|10=205|8=FIX.4.4|9=61|35=0|34=458|49=IRISPAR1|52=20250606-01:16:17.324|56=EXCHANGE|10=207|8=FIX.4.4|9=61|35=0|34=459|49=IRISPAR1|52=20250606-01:16:27.324|56=EXCHANGE|10=209|8=FIX.4.4|9=61|35=0|34=460|49=IRISPAR1|52=20250606-01:16:37.324|56=EXCHANGE|10=202|8=FIX.4.4|9=61|35=0|34=461|49=IRISPAR1|52=20250606-01:16:47.324|56=EXCHANGE|10=204|8=FIX.4.4|9=61|35=0|34=462|49=IRISPAR1|52=20250606-01:16:57.324|56=EXCHANGE|10=206|8=FIX.4.4|9=61|35=0|34=463|49=IRISPAR1|52=20250606-01:17:07.324|56=EXCHANGE|10=203|8=FIX.4.4|9=61|35=0|34=464|49=IRISPAR1|52=20250606-01:17:17.324|56=EXCHANGE|10=205|8=FIX.4.4|9=61|35=0|34=465|49=IRISPAR1|52=20250606-01:17:27.324|56=EXCHANGE|10=207|8=FIX.4.4|9=61|35=0|34=466|49=IRISPAR1|52=20250606-01:17:37.325|56=EXCHANGE|10=210|8=FIX.4.4|9=61|35=0|34=467|49=IRISPAR1|52=20250606-01:17:47.325|56=EXCHANGE|10=212|8=FIX.4.4|9=61|35=0|34=468|49=IRISPAR1|52=20250606-01:17:57.325|56=EXCHANGE|10=214|8=FIX.4.4|9=61|35=0|34=469|49=IRISPAR1|52=20250606-01:18:07.325|56=EXCHANGE|10=211|8=FIX.4.4|9=61|35=0|34=470|49=IRISPAR1|52=20250606-01:18:17.325|56=EXCHANGE|10=204|8=FIX.4.4|9=61|35=0|34=471|49=IRISPAR1|52=20250606-01:18:27.325|56=EXCHANGE|10=206|8=FIX.4.4|9=61|35=0|34=472|49=IRISPAR1|52=20250606-01:18:37.325|56=EXCHANGE|10=208|8=FIX.4.4|9=61|35=0|34=473|49=IRISPAR1|52=20250606-01:18:47.325|56=EXCHANGE|10=210|8=FIX.4.4|9=61|35=0|34=474|49=IRISPAR1|52=20250606-01:18:57.325|56=EXCHANGE|10=212|8=FIX.4.4|9=61|35=0|34=475|49=IRISPAR1|52=20250606-01:19:07.326|56=EXCHANGE|10=210|8=FIX.4.4|9=61|35=0|34=476|49=IRISPAR1|52=20250606-01:19:17.326|56=EXCHANGE|10=212|8=FIX.4.4|9=61|35=0|34=477|49=IRISPAR1|52=20250606-01:19:27.326|56=EXCHANGE|10=214|8=FIX.4.4|9=61|35=0|34=478|49=IRISPAR1|52=20250606-01:19:37.326|56=EXCHANGE|10=216|8=FIX.4.4|9=61|35=0|34=479|49=IRISPAR1|52=20250606-01:19:47.326|56=EXCHANGE|10=218|8=FIX.4.4|9=61|35=0|34=480|49=IRISPAR1|52=20250606-01:19:57.326|56=EXCHANGE|10=211|8=FIX.4.4|9=61|35=0|34=481|49=IRISPAR1|52=20250606-01:20:07.326|56=EXCHANGE|10=199|8=FIX.4.4|9=61|35=0|34=482|49=IRISPAR1|52=20250606-01:20:17.326|56=EXCHANGE|10=201|8=FIX.4.4|9=61|35=0|34=483|49=IRISPAR1|52=20250606-01:20:27.326|56=EXCHANGE|10=203|8=FIX.4.4|9=61|35=0|34=484|49=IRISPAR1|52=20250606-01:20:37.326|56=EXCHANGE|10=205|8=FIX.4.4|9=61|35=0|34=485|49=IRISPAR1|52=20250606-01:20:47.326|56=EXCHANGE|10=207|8=FIX.4.4|9=61|35=0|34=486|49=IRISPAR1|52=20250606-01:20:57.327|56=EXCHANGE|10=210|8=FIX.4.4|9=61|35=0|34=487|49=IRISPAR1|52=20250606-01:21:07.327|56=EXCHANGE|10=207|8=FIX.4.4|9=61|35=0|34=488|49=IRISPAR1|52=20250606-01:21:17.327|56=EXCHANGE|10=209|8=FIX.4.4|9=61|35=0|34=489|49=IRISPAR1|52=20250606-01:21:27.327|56=EXCHANGE|10=211|8=FIX.4.4|9=61|35=0|34=490|49=IRISPAR1|52=20250606-01:21:37.327|56=EXCHANGE|10=204|8=FIX.4.4|9=61|35=0|34=491|49=IRISPAR1|52=20250606-01:21:47.327|56=EXCHANGE|10=206|8=FIX.4.4|9=61|35=0|34=492|49=IRISPAR1|52=20250606-01:21:57.327|56=EXCHANGE|10=208|8=FIX.4.4|9=61|35=0|34=493|49=IRISPAR1|52=20250606-01:22:07.327|56=EXCHANGE|10=205|8=FIX.4.4|9=61|35=0|34=494|49=IRISPAR1|52=20250606-01:22:17.327|56=EXCHANGE|10=207|8=FIX.4.4|9=61|35=0|34=495|49=IRISPAR1|52=20250606-01:22:27.327|56=EXCHANGE|10=209|8=FIX.4.4|9=61|35=0|34=496|49=IRISPAR1|52=20250606-01:22:37.327|56=EXCHANGE|10=211|8=FIX.4.4|9=61|35=0|34=497|49=IRISPAR1|52=20250606-01:22:47.328|56=EXCHANGE|10=214|8=FIX.4.4|9=61|35=0|34=498|49=IRISPAR1|52=20250606-01:22:57.328|56=EXCHANGE|10=216|8=FIX.4.4|9=61|35=0|34=499|49=IRISPAR1|52=20250606-01:23:07.328|56=EXCHANGE|10=213|8=FIX.4.4|9=61|35=0|34=500|49=IRISPAR1|52=20250606-01:23:17.328|56=EXCHANGE|10=197|8=FIX.4.4|9=61|35=0|34=501|49=IRISPAR1|52=20250606-01:23:27.328|56=EXCHANGE|10=199|8=FIX.4.4|9=61|35=0|34=502|49=IRISPAR1|52=20250606-01:23:37.328|56=EXCHANGE|10=201|8=FIX.4.4|9=61|35=0|34=503|49=IRISPAR1|52=20250606-01:23:47.328|56=EXCHANGE|10=203|8=FIX.4.4|9=61|35=0|34=504|49=IRISPAR1|52=20250606-01:23:57.328|56=EXCHANGE|10=205|8=FIX.4.4|9=61|35=0|34=505|49=IRISPAR1|52=20250606-01:24:07.329|56=EXCHANGE|10=203|8=FIX.4.4|9=61|35=0|34=506|49=IRISPAR1|52=20250606-01:24:17.329|56=EXCHANGE|10=205|8=FIX.4.4|9=61|35=0|34=507|49=IRISPAR1|52=20250606-01:24:27.329|56=EXCHANGE|10=207|8=FIX.4.4|9=61|35=0|34=508|49=IRISPAR1|52=20250606-01:24:37.329|56=EXCHANGE|10=209|8=FIX.4.4|9=61|35=0|34=509|49=IRISPAR1|52=20250606-01:24:47.329|56=EXCHANGE|10=211|8=FIX.4.4|9=61|35=0|34=510|49=IRISPAR1|52=20250606-01:24:57.329|56=EXCHANGE|10=204|8=FIX.4.4|9=61|35=0|34=511|49=IRISPAR1|52=20250606-01:25:07.329|56=EXCHANGE|10=201|8=FIX.4.4|9=61|35=0|34=512|49=IRISPAR1|52=20250606-01:25:17.329|56=EXCHANGE|10=203|8=FIX.4.4|9=61|35=0|34=513|49=IRISPAR1|52=20250606-01:25:27.329|56=EXCHANGE|10=205|8=FIX.4.4|9=61|35=0|34=514|49=IRISPAR1|52=20250606-01:25:37.329|56=EXCHANGE|10=207|8=FIX.4.4|9=61|35=0|34=515|49=IRISPAR1|52=20250606-01:25:47.330|56=EXCHANGE|10=201|8=FIX.4.4|9=61|35=0|34=516|49=IRISPAR1|52=20250606-01:25:57.330|56=EXCHANGE|10=203|8=FIX.4.4|9=61|35=0|34=517|49=IRISPAR1|52=20250606-01:26:07.330|56=EXCHANGE|10=200|8=FIX.4.4|9=61|35=0|34=518|49=IRISPAR1|52=20250606-01:26:17.330|56=EXCHANGE|10=202|8=FIX.4.4|9=61|35=0|34=519|49=IRISPAR1|52=20250606-01:26:27.330|56=EXCHANGE|10=204|8=FIX.4.4|9=61|35=0|34=520|49=IRISPAR1|52=20250606-01:26:37.330|56=EXCHANGE|10=197|8=FIX.4.4|9=61|35=0|34=521|49=IRISPAR1|52=20250606-01:26:47.330|56=EXCHANGE|10=199|8=FIX.4.4|9=61|35=0|34=522|49=IRISPAR1|52=20250606-01:26:57.330|56=EXCHANGE|10=201|8=FIX.4.4|9=61|35=0|34=523|49=IRISPAR1|52=20250606-01:27:07.330|56=EXCHANGE|10=198|8=FIX.4.4|9=61|35=0|34=524|49=IRISPAR1|52=20250606-01:27:17.331|56=EXCHANGE|10=201|8=FIX.4.4|9=61|35=0|34=525|49=IRISPAR1|52=20250606-01:27:27.331|56=EXCHANGE|10=203|8=FIX.4.4|9=61|35=0|34=526|49=IRISPAR1|52=20250606-01:27:37.331|56=EXCHANGE|10=205|8=FIX.4.4|9=61|35=0|34=527|49=IRISPAR1|52=20250606-01:27:47.331|56=EXCHANGE|10=207|8=FIX.4.4|9=61|35=0|34=528|49=IRISPAR1|52=20250606-01:27:57.331|56=EXCHANGE|10=209|8=FIX.4.4|9=61|35=0|34=529|49=IRISPAR1|52=20250606-01:28:07.331|56=EXCHANGE|10=206|8=FIX.4.4|9=61|35=0|34=530|49=IRISPAR1|52=20250606-01:28:17.331|56=EXCHANGE|10=199|8=FIX.4.4|9=61|35=0|34=531|49=IRISPAR1|52=20250606-01:28:27.331|56=EXCHANGE|10=201|8=FIX.4.4|9=61|35=0|34=532|49=IRISPAR1|52=20250606-01:28:37.331|56=EXCHANGE|10=203|8=FIX.4.4|9=61|35=0|34=533|49=IRISPAR1|52=20250606-01:28:47.331|56=EXCHANGE|10=205|8=FIX.4.4|9=61|35=0|34=534|49=IRISPAR1|52=20250606-01:28:57.331|56=EXCHANGE|10=207|8=FIX.4.4|9=61|35=0|34=535|49=IRISPAR1|52=20250606-01:29:07.332|56=EXCHANGE|10=205|8=FIX.4.4|9=61|35=0|34=536|49=IRISPAR1|52=20250606-01:29:17.332|56=EXCHANGE|10=207|8=FIX.4.4|9=61|35=0|34=537|49=IRISPAR1|52=20250606-01:29:27.332|56=EXCHANGE|10=209|8=FIX.4.4|9=61|35=0|34=538|49=IRISPAR1|52=20250606-01:29:37.332|56=EXCHANGE|10=211|8=FIX.4.4|9=61|35=0|34=539|49=IRISPAR1|52=20250606-01:29:47.332|56=EXCHANGE|10=213|8=FIX.4.4|9=61|35=0|34=540|49=IRISPAR1|52=20250606-01:29:57.332|56=EXCHANGE|10=206|8=FIX.4.4|9=61|35=0|34=541|49=IRISPAR1|52=20250606-01:30:07.332|56=EXCHANGE|10=194|8=FIX.4.4|9=61|35=0|34=542|49=IRISPAR1|52=20250606-01:30:17.332|56=EXCHANGE|10=196|8=FIX.4.4|9=61|35=0|34=543|49=IRISPAR1|52=20250606-01:30:27.332|56=EXCHANGE|10=198|8=FIX.4.4|9=61|35=0|34=544|49=IRISPAR1|52=20250606-01:30:37.332|56=EXCHANGE|10=200|8=FIX.4.4|9=61|35=0|34=545|49=IRISPAR1|52=20250606-01:30:47.333|56=EXCHANGE|10=203|8=FIX.4.4|9=61|35=0|34=546|49=IRISPAR1|52=20250606-01:30:57.333|56=EXCHANGE|10=205|8=FIX.4.4|9=61|35=0|34=547|49=IRISPAR1|52=20250606-01:31:07.333|56=EXCHANGE|10=202|8=FIX.4.4|9=61|35=0|34=548|49=IRISPAR1|52=20250606-01:31:17.333|56=EXCHANGE|10=204|8=FIX.4.4|9=61|35=0|34=549|49=IRISPAR1|52=20250606-01:31:27.333|56=EXCHANGE|10=206|8=FIX.4.4|9=61|35=0|34=550|49=IRISPAR1|52=20250606-01:31:37.333|56=EXCHANGE|10=199|8=FIX.4.4|9=61|35=0|34=551|49=IRISPAR1|52=20250606-01:31:47.333|56=EXCHANGE|10=201|8=FIX.4.4|9=61|35=0|34=552|49=IRISPAR1|52=20250606-01:31:57.334|56=EXCHANGE|10=204|8=FIX.4.4|9=61|35=0|34=553|49=IRISPAR1|52=20250606-01:32:07.334|56=EXCHANGE|10=201|8=FIX.4.4|9=61|35=0|34=554|49=IRISPAR1|52=20250606-01:32:17.334|56=EXCHANGE|10=203|8=FIX.4.4|9=61|35=0|34=555|49=IRISPAR1|52=20250606-01:32:27.334|56=EXCHANGE|10=205|8=FIX.4.4|9=61|35=0|34=556|49=IRISPAR1|52=20250606-01:32:37.334|56=EXCHANGE|10=207|8=FIX.4.4|9=61|35=0|34=557|49=IRISPAR1|52=20250606-01:32:47.335|56=EXCHANGE|10=210|8=FIX.4.4|9=61|35=0|34=558|49=IRISPAR1|52=20250606-01:32:57.335|56=EXCHANGE|10=212|8=FIX.4.4|9=61|35=0|34=559|49=IRISPAR1|52=20250606-01:33:07.335|56=EXCHANGE|10=209|8=FIX.4.4|9=61|35=0|34=560|49=IRISPAR1|52=20250606-01:33:17.335|56=EXCHANGE|10=202|8=FIX.4.4|9=61|35=0|34=561|49=IRISPAR1|52=20250606-01:33:27.335|56=EXCHANGE|10=204|8=FIX.4.4|9=61|35=0|34=562|49=IRISPAR1|52=20250606-01:33:37.335|56=EXCHANGE|10=206|8=FIX.4.4|9=61|35=0|34=563|49=IRISPAR1|52=20250606-01:33:47.336|56=EXCHANGE|10=209|8=FIX.4.4|9=61|35=0|34=564|49=IRISPAR1|52=20250606-01:33:57.336|56=EXCHANGE|10=211|8=FIX.4.4|9=61|35=0|34=565|49=IRISPAR1|52=20250606-01:34:07.336|56=EXCHANGE|10=208|8=FIX.4.4|9=61|35=0|34=566|49=IRISPAR1|52=20250606-01:34:17.336|56=EXCHANGE|10=210|8=FIX.4.4|9=61|35=0|34=567|49=IRISPAR1|52=20250606-01:34:27.336|56=EXCHANGE|10=212|8=FIX.4.4|9=61|35=0|34=568|49=IRISPAR1|52=20250606-01:34:37.336|56=EXCHANGE|10=214|8=FIX.4.4|9=61|35=0|34=569|49=IRISPAR1|52=20250606-01:34:47.336|56=EXCHANGE|10=216|8=FIX.4.4|9=61|35=0|34=570|49=IRISPAR1|52=20250606-01:34:57.336|56=EXCHANGE|10=209|8=FIX.4.4|9=61|35=0|34=571|49=IRISPAR1|52=20250606-01:35:07.337|56=EXCHANGE|10=207|8=FIX.4.4|9=61|35=0|34=572|49=IRISPAR1|52=20250606-01:35:17.337|56=EXCHANGE|10=209|8=FIX.4.4|9=61|35=0|34=573|49=IRISPAR1|52=20250606-01:35:27.337|56=EXCHANGE|10=211|8=FIX.4.4|9=61|35=0|34=574|49=IRISPAR1|52=20250606-01:35:37.337|56=EXCHANGE|10=213|8=FIX.4.4|9=61|35=0|34=575|49=IRISPAR1|52=20250606-01:35:47.337|56=EXCHANGE|10=215|8=FIX.4.4|9=61|35=0|34=576|49=IRISPAR1|52=20250606-01:35:57.337|56=EXCHANGE|10=217|8=FIX.4.4|9=61|35=0|34=577|49=IRISPAR1|52=20250606-01:36:07.337|56=EXCHANGE|10=214|8=FIX.4.4|9=61|35=0|34=578|49=IRISPAR1|52=20250606-01:36:17.337|56=EXCHANGE|10=216|8=FIX.4.4|9=61|35=0|34=579|49=IRISPAR1|52=20250606-01:36:27.337|56=EXCHANGE|10=218|8=FIX.4.4|9=61|35=0|34=580|49=IRISPAR1|52=20250606-01:36:37.337|56=EXCHANGE|10=211|8=FIX.4.4|9=61|35=0|34=581|49=IRISPAR1|52=20250606-01:36:47.338|56=EXCHANGE|10=214|8=FIX.4.4|9=61|35=0|34=582|49=IRISPAR1|52=20250606-01:36:57.338|56=EXCHANGE|10=216|8=FIX.4.4|9=61|35=0|34=583|49=IRISPAR1|52=20250606-01:37:07.338|56=EXCHANGE|10=213|8=FIX.4.4|9=61|35=0|34=584|49=IRISPAR1|52=20250606-01:37:17.338|56=EXCHANGE|10=215|8=FIX.4.4|9=61|35=0|34=585|49=IRISPAR1|52=20250606-01:37:27.338|56=EXCHANGE|10=217|8=FIX.4.4|9=61|35=0|34=586|49=IRISPAR1|52=20250606-01:37:37.338|56=EXCHANGE|10=219|8=FIX.4.4|9=61|35=0|34=587|49=IRISPAR1|52=20250606-01:37:47.338|56=EXCHANGE|10=221|8=FIX.4.4|9=61|35=0|34=588|49=IRISPAR1|52=20250606-01:37:57.338|56=EXCHANGE|10=223|8=FIX.4.4|9=61|35=0|34=589|49=IRISPAR1|52=20250606-01:38:07.338|56=EXCHANGE|10=220|8=FIX.4.4|9=61|35=0|34=590|49=IRISPAR1|52=20250606-01:38:17.339|56=EXCHANGE|10=214|8=FIX.4.4|9=61|35=0|34=591|49=IRISPAR1|52=20250606-01:38:27.339|56=EXCHANGE|10=216|8=FIX.4.4|9=61|35=0|34=592|49=IRISPAR1|52=20250606-01:38:37.339|56=EXCHANGE|10=218|8=FIX.4.4|9=61|35=0|34=593|49=IRISPAR1|52=20250606-01:38:47.339|56=EXCHANGE|10=220|8=FIX.4.4|9=61|35=0|34=594|49=IRISPAR1|52=20250606-01:38:57.339|56=EXCHANGE|10=222|8=FIX.4.4|9=61|35=0|34=595|49=IRISPAR1|52=20250606-01:39:07.339|56=EXCHANGE|10=219|8=FIX.4.4|9=61|35=0|34=596|49=IRISPAR1|52=20250606-01:39:17.339|56=EXCHANGE|10=221|8=FIX.4.4|9=61|35=0|34=597|49=IRISPAR1|52=20250606-01:39:27.339|56=EXCHANGE|10=223|8=FIX.4.4|9=61|35=0|34=598|49=IRISPAR1|52=20250606-01:39:37.340|56=EXCHANGE|10=217|8=FIX.4.4|9=61|35=0|34=599|49=IRISPAR1|52=20250606-01:39:47.340|56=EXCHANGE|10=219|8=FIX.4.4|9=61|35=0|34=600|49=IRISPAR1|52=20250606-01:39:57.340|56=EXCHANGE|10=203|8=FIX.4.4|9=61|35=0|34=601|49=IRISPAR1|52=20250606-01:40:07.340|56=EXCHANGE|10=191|8=FIX.4.4|9=61|35=0|34=602|49=IRISPAR1|52=20250606-01:40:17.340|56=EXCHANGE|10=193|8=FIX.4.4|9=61|35=0|34=603|49=IRISPAR1|52=20250606-01:40:27.340|56=EXCHANGE|10=195|8=FIX.4.4|9=61|35=0|34=604|49=IRISPAR1|52=20250606-01:40:37.340|56=EXCHANGE|10=197|8=FIX.4.4|9=61|35=0|34=605|49=IRISPAR1|52=20250606-01:40:47.340|56=EXCHANGE|10=199|8=FIX.4.4|9=61|35=0|34=606|49=IRISPAR1|52=20250606-01:40:57.340|56=EXCHANGE|10=201|8=FIX.4.4|9=61|35=0|34=607|49=IRISPAR1|52=20250606-01:41:07.341|56=EXCHANGE|10=199|8=FIX.4.4|9=61|35=0|34=608|49=IRISPAR1|52=20250606-01:41:17.341|56=EXCHANGE|10=201|8=FIX.4.4|9=61|35=0|34=609|49=IRISPAR1|52=20250606-01:41:27.341|56=EXCHANGE|10=203|8=FIX.4.4|9=61|35=0|34=610|49=IRISPAR1|52=20250606-01:41:37.341|56=EXCHANGE|10=196|8=FIX.4.4|9=61|35=0|34=611|49=IRISPAR1|52=20250606-01:41:47.341|56=EXCHANGE|10=198|8=FIX.4.4|9=61|35=0|34=612|49=IRISPAR1|52=20250606-01:41:57.341|56=EXCHANGE|10=200|8=FIX.4.4|9=61|35=0|34=613|49=IRISPAR1|52=20250606-01:42:07.341|56=EXCHANGE|10=197|8=FIX.4.4|9=61|35=0|34=614|49=IRISPAR1|52=20250606-01:42:17.341|56=EXCHANGE|10=199|8=FIX.4.4|9=61|35=0|34=615|49=IRISPAR1|52=20250606-01:42:27.342|56=EXCHANGE|10=202|8=FIX.4.4|9=61|35=0|34=616|49=IRISPAR1|52=20250606-01:42:37.342|56=EXCHANGE|10=204|8=FIX.4.4|9=61|35=0|34=617|49=IRISPAR1|52=20250606-01:42:47.342|56=EXCHANGE|10=206|8=FIX.4.4|9=61|35=0|34=618|49=IRISPAR1|52=20250606-01:42:57.342|56=EXCHANGE|10=208|8=FIX.4.4|9=61|35=0|34=619|49=IRISPAR1|52=20250606-01:43:07.342|56=EXCHANGE|10=205|8=FIX.4.4|9=61|35=0|34=620|49=IRISPAR1|52=20250606-01:43:17.342|56=EXCHANGE|10=198|8=FIX.4.4|9=61|35=0|34=621|49=IRISPAR1|52=20250606-01:43:27.342|56=EXCHANGE|10=200|8=FIX.4.4|9=61|35=0|34=622|49=IRISPAR1|52=20250606-01:43:37.342|56=EXCHANGE|10=202|8=FIX.4.4|9=61|35=0|34=623|49=IRISPAR1|52=20250606-01:43:47.342|56=EXCHANGE|10=204|8=FIX.4.4|9=61|35=0|34=624|49=IRISPAR1|52=20250606-01:43:57.343|56=EXCHANGE|10=207|8=FIX.4.4|9=61|35=0|34=625|49=IRISPAR1|52=20250606-01:44:07.343|56=EXCHANGE|10=204|8=FIX.4.4|9=61|35=0|34=626|49=IRISPAR1|52=20250606-01:44:17.343|56=EXCHANGE|10=206|8=FIX.4.4|9=61|35=0|34=627|49=IRISPAR1|52=20250606-01:44:27.343|56=EXCHANGE|10=208|8=FIX.4.4|9=61|35=0|34=628|49=IRISPAR1|52=20250606-01:44:37.343|56=EXCHANGE|10=210|8=FIX.4.4|9=61|35=0|34=629|49=IRISPAR1|52=20250606-01:44:47.343|56=EXCHANGE|10=212|8=FIX.4.4|9=61|35=0|34=630|49=IRISPAR1|52=20250606-01:44:57.343|56=EXCHANGE|10=205|8=FIX.4.4|9=61|35=0|34=631|49=IRISPAR1|52=20250606-01:45:07.344|56=EXCHANGE|10=203|8=FIX.4.4|9=61|35=0|34=632|49=IRISPAR1|52=20250606-01:45:17.344|56=EXCHANGE|10=205|8=FIX.4.4|9=61|35=0|34=633|49=IRISPAR1|52=20250606-01:45:27.344|56=EXCHANGE|10=207|8=FIX.4.4|9=61|35=0|34=634|49=IRISPAR1|52=20250606-01:45:37.344|56=EXCHANGE|10=209|8=FIX.4.4|9=61|35=0|34=635|49=IRISPAR1|52=20250606-01:45:47.344|56=EXCHANGE|10=211|8=FIX.4.4|9=61|35=0|34=636|49=IRISPAR1|52=20250606-01:45:57.344|56=EXCHANGE|10=213|8=FIX.4.4|9=61|35=0|34=637|49=IRISPAR1|52=20250606-01:46:07.344|56=EXCHANGE|10=210|8=FIX.4.4|9=61|35=0|34=638|49=IRISPAR1|52=20250606-01:46:17.344|56=EXCHANGE|10=212|8=FIX.4.4|9=61|35=0|34=639|49=IRISPAR1|52=20250606-01:46:27.345|56=EXCHANGE|10=215|8=FIX.4.4|9=61|35=0|34=640|49=IRISPAR1|52=20250606-01:46:37.345|56=EXCHANGE|10=208|8=FIX.4.4|9=61|35=0|34=641|49=IRISPAR1|52=20250606-01:46:47.345|56=EXCHANGE|10=210|8=FIX.4.4|9=61|35=0|34=642|49=IRISPAR1|52=20250606-01:46:57.345|56=EXCHANGE|10=212|8=FIX.4.4|9=61|35=0|34=643|49=IRISPAR1|52=20250606-01:47:07.345|56=EXCHANGE|10=209|8=FIX.4.4|9=61|35=0|34=644|49=IRISPAR1|52=20250606-01:47:17.345|56=EXCHANGE|10=211|8=FIX.4.4|9=61|35=0|34=645|49=IRISPAR1|52=20250606-01:47:27.345|56=EXCHANGE|10=213|8=FIX.4.4|9=61|35=0|34=646|49=IRISPAR1|52=20250606-01:47:37.345|56=EXCHANGE|10=215|8=FIX.4.4|9=61|35=0|34=647|49=IRISPAR1|52=20250606-01:47:47.345|56=EXCHANGE|10=217|8=FIX.4.4|9=61|35=0|34=648|49=IRISPAR1|52=20250606-01:47:57.345|56=EXCHANGE|10=219|8=FIX.4.4|9=61|35=0|34=649|49=IRISPAR1|52=20250606-01:48:07.346|56=EXCHANGE|10=217|8=FIX.4.4|9=61|35=0|34=650|49=IRISPAR1|52=20250606-01:48:17.346|56=EXCHANGE|10=210|8=FIX.4.4|9=61|35=0|34=651|49=IRISPAR1|52=20250606-01:48:27.346|56=EXCHANGE|10=212|8=FIX.4.4|9=61|35=0|34=652|49=IRISPAR1|52=20250606-01:48:37.346|56=EXCHANGE|10=214|8=FIX.4.4|9=61|35=0|34=653|49=IRISPAR1|52=20250606-01:48:47.346|56=EXCHANGE|10=216|8=FIX.4.4|9=61|35=0|34=654|49=IRISPAR1|52=20250606-01:48:57.346|56=EXCHANGE|10=218|8=FIX.4.4|9=61|35=0|34=655|49=IRISPAR1|52=20250606-01:49:07.346|56=EXCHANGE|10=215|8=FIX.4.4|9=61|35=0|34=656|49=IRISPAR1|52=20250606-01:49:17.346|56=EXCHANGE|10=217|8=FIX.4.4|9=61|35=0|34=657|49=IRISPAR1|52=20250606-01:49:27.346|56=EXCHANGE|10=219|8=FIX.4.4|9=61|35=0|34=658|49=IRISPAR1|52=20250606-01:49:37.346|56=EXCHANGE|10=221|8=FIX.4.4|9=61|35=0|34=659|49=IRISPAR1|52=20250606-01:49:47.346|56=EXCHANGE|10=223|8=FIX.4.4|9=61|35=0|34=660|49=IRISPAR1|52=20250606-01:49:57.347|56=EXCHANGE|10=217|8=FIX.4.4|9=61|35=0|34=661|49=IRISPAR1|52=20250606-01:50:07.347|56=EXCHANGE|10=205|8=FIX.4.4|9=61|35=0|34=662|49=IRISPAR1|52=20250606-01:50:17.347|56=EXCHANGE|10=207|8=FIX.4.4|9=61|35=0|34=663|49=IRISPAR1|52=20250606-01:50:27.347|56=EXCHANGE|10=209|8=FIX.4.4|9=61|35=0|34=664|49=IRISPAR1|52=20250606-01:50:37.347|56=EXCHANGE|10=211|8=FIX.4.4|9=61|35=0|34=665|49=IRISPAR1|52=20250606-01:50:47.347|56=EXCHANGE|10=213|8=FIX.4.4|9=61|35=0|34=666|49=IRISPAR1|52=20250606-01:50:57.347|56=EXCHANGE|10=215|8=FIX.4.4|9=61|35=0|34=667|49=IRISPAR1|52=20250606-01:51:07.347|56=EXCHANGE|10=212|8=FIX.4.4|9=61|35=0|34=668|49=IRISPAR1|52=20250606-01:51:17.347|56=EXCHANGE|10=214|8=FIX.4.4|9=61|35=0|34=669|49=IRISPAR1|52=20250606-01:51:27.348|56=EXCHANGE|10=217|8=FIX.4.4|9=61|35=0|34=670|49=IRISPAR1|52=20250606-01:51:37.348|56=EXCHANGE|10=210|8=FIX.4.4|9=61|35=0|34=671|49=IRISPAR1|52=20250606-01:51:47.348|56=EXCHANGE|10=212|8=FIX.4.4|9=61|35=0|34=672|49=IRISPAR1|52=20250606-01:51:57.348|56=EXCHANGE|10=214|8=FIX.4.4|9=61|35=0|34=673|49=IRISPAR1|52=20250606-01:52:07.348|56=EXCHANGE|10=211|8=FIX.4.4|9=61|35=0|34=674|49=IRISPAR1|52=20250606-01:52:17.348|56=EXCHANGE|10=213|8=FIX.4.4|9=61|35=0|34=675|49=IRISPAR1|52=20250606-01:52:27.348|56=EXCHANGE|10=215|8=FIX.4.4|9=61|35=0|34=676|49=IRISPAR1|52=20250606-01:52:37.348|56=EXCHANGE|10=217|8=FIX.4.4|9=61|35=0|34=677|49=IRISPAR1|52=20250606-01:52:47.348|56=EXCHANGE|10=219|8=FIX.4.4|9=61|35=0|34=678|49=IRISPAR1|52=20250606-01:52:57.348|56=EXCHANGE|10=221|8=FIX.4.4|9=61|35=0|34=679|49=IRISPAR1|52=20250606-01:53:07.349|56=EXCHANGE|10=219|8=FIX.4.4|9=61|35=0|34=680|49=IRISPAR1|52=20250606-01:53:17.349|56=EXCHANGE|10=212|8=FIX.4.4|9=61|35=0|34=681|49=IRISPAR1|52=20250606-01:53:27.349|56=EXCHANGE|10=214|8=FIX.4.4|9=61|35=0|34=682|49=IRISPAR1|52=20250606-01:53:37.349|56=EXCHANGE|10=216|8=FIX.4.4|9=61|35=0|34=683|49=IRISPAR1|52=20250606-01:53:47.349|56=EXCHANGE|10=218|8=FIX.4.4|9=61|35=0|34=684|49=IRISPAR1|52=20250606-01:53:57.349|56=EXCHANGE|10=220|8=FIX.4.4|9=61|35=0|34=685|49=IRISPAR1|52=20250606-01:54:07.349|56=EXCHANGE|10=217|8=FIX.4.4|9=61|35=0|34=686|49=IRISPAR1|52=20250606-01:54:17.349|56=EXCHANGE|10=219|8=FIX.4.4|9=61|35=0|34=687|49=IRISPAR1|52=20250606-01:54:27.349|56=EXCHANGE|10=221|8=FIX.4.4|9=61|35=0|34=688|49=IRISPAR1|52=20250606-01:54:37.349|56=EXCHANGE|10=223|8=FIX.4.4|9=61|35=0|34=689|49=IRISPAR1|52=20250606-01:54:47.350|56=EXCHANGE|10=217|8=FIX.4.4|9=61|35=0|34=690|49=IRISPAR1|52=20250606-01:54:57.350|56=EXCHANGE|10=210|8=FIX.4.4|9=61|35=0|34=691|49=IRISPAR1|52=20250606-01:55:07.350|56=EXCHANGE|10=207|8=FIX.4.4|9=61|35=0|34=692|49=IRISPAR1|52=20250606-01:55:17.350|56=EXCHANGE|10=209|8=FIX.4.4|9=61|35=0|34=693|49=IRISPAR1|52=20250606-01:55:27.350|56=EXCHANGE|10=211|8=FIX.4.4|9=61|35=0|34=694|49=IRISPAR1|52=20250606-01:55:37.350|56=EXCHANGE|10=213|8=FIX.4.4|9=61|35=0|34=695|49=IRISPAR1|52=20250606-01:55:47.350|56=EXCHANGE|10=215|8=FIX.4.4|9=61|35=0|34=696|49=IRISPAR1|52=20250606-01:55:57.350|56=EXCHANGE|10=217|8=FIX.4.4|9=61|35=0|34=697|49=IRISPAR1|52=20250606-01:56:07.350|56=EXCHANGE|10=214|8=FIX.4.4|9=61|35=0|34=698|49=IRISPAR1|52=20250606-01:56:17.351|56=EXCHANGE|10=217|8=FIX.4.4|9=61|35=0|34=699|49=IRISPAR1|52=20250606-01:56:27.351|56=EXCHANGE|10=219|8=FIX.4.4|9=61|35=0|34=700|49=IRISPAR1|52=20250606-01:56:37.351|56=EXCHANGE|10=203|8=FIX.4.4|9=61|35=0|34=701|49=IRISPAR1|52=20250606-01:56:47.351|56=EXCHANGE|10=205|8=FIX.4.4|9=61|35=0|34=702|49=IRISPAR1|52=20250606-01:56:57.351|56=EXCHANGE|10=207|8=FIX.4.4|9=61|35=0|34=703|49=IRISPAR1|52=20250606-01:57:07.351|56=EXCHANGE|10=204|8=FIX.4.4|9=61|35=0|34=704|49=IRISPAR1|52=20250606-01:57:17.351|56=EXCHANGE|10=206|8=FIX.4.4|9=61|35=0|34=705|49=IRISPAR1|52=20250606-01:57:27.351|56=EXCHANGE|10=208|8=FIX.4.4|9=61|35=0|34=706|49=IRISPAR1|52=20250606-01:57:37.352|56=EXCHANGE|10=211|8=FIX.4.4|9=61|35=0|34=707|49=IRISPAR1|52=20250606-01:57:47.352|56=EXCHANGE|10=213|8=FIX.4.4|9=61|35=0|34=708|49=IRISPAR1|52=20250606-01:57:57.352|56=EXCHANGE|10=215|8=FIX.4.4|9=61|35=0|34=709|49=IRISPAR1|52=20250606-01:58:07.352|56=EXCHANGE|10=212|8=FIX.4.4|9=61|35=0|34=710|49=IRISPAR1|52=20250606-01:58:17.352|56=EXCHANGE|10=205|8=FIX.4.4|9=61|35=0|34=711|49=IRISPAR1|52=20250606-01:58:27.352|56=EXCHANGE|10=207|8=FIX.4.4|9=61|35=0|34=712|49=IRISPAR1|52=20250606-01:58:37.352|56=EXCHANGE|10=209|8=FIX.4.4|9=61|35=0|34=713|49=IRISPAR1|52=20250606-01:58:47.352|56=EXCHANGE|10=211|8=FIX.4.4|9=61|35=0|34=714|49=IRISPAR1|52=20250606-01:58:57.352|56=EXCHANGE|10=213|8=FIX.4.4|9=61|35=0|34=715|49=IRISPAR1|52=20250606-01:59:07.353|56=EXCHANGE|10=211|8=FIX.4.4|9=61|35=0|34=716|49=IRISPAR1|52=20250606-01:59:17.353|56=EXCHANGE|10=213|8=FIX.4.4|9=61|35=0|34=717|49=IRISPAR1|52=20250606-01:59:27.353|56=EXCHANGE|10=215|8=FIX.4.4|9=61|35=0|34=718|49=IRISPAR1|52=20250606-01:59:37.353|56=EXCHANGE|10=217|8=FIX.4.4|9=61|35=0|34=719|49=IRISPAR1|52=20250606-01:59:47.353|56=EXCHANGE|10=219|8=FIX.4.4|9=61|35=0|34=720|49=IRISPAR1|52=20250606-01:59:57.353|56=EXCHANGE|10=212|8=FIX.4.4|9=61|35=0|34=721|49=IRISPAR1|52=20250606-02:00:07.353|56=EXCHANGE|10=195|8=FIX.4.4|9=61|35=0|34=722|49=IRISPAR1|52=20250606-02:00:17.353|56=EXCHANGE|10=197|8=FIX.4.4|9=61|35=0|34=723|49=IRISPAR1|52=20250606-02:00:27.353|56=EXCHANGE|10=199|8=FIX.4.4|9=61|35=0|34=724|49=IRISPAR1|52=20250606-02:00:37.353|56=EXCHANGE|10=201|8=FIX.4.4|9=61|35=0|34=725|49=IRISPAR1|52=20250606-02:00:47.354|56=EXCHANGE|10=204|8=FIX.4.4|9=61|35=0|34=726|49=IRISPAR1|52=20250606-02:00:57.354|56=EXCHANGE|10=206|8=FIX.4.4|9=61|35=0|34=727|49=IRISPAR1|52=20250606-02:01:07.354|56=EXCHANGE|10=203|8=FIX.4.4|9=61|35=0|34=728|49=IRISPAR1|52=20250606-02:01:17.354|56=EXCHANGE|10=205|8=FIX.4.4|9=61|35=0|34=729|49=IRISPAR1|52=20250606-02:01:27.354|56=EXCHANGE|10=207|8=FIX.4.4|9=61|35=0|34=730|49=IRISPAR1|52=20250606-02:01:37.354|56=EXCHANGE|10=200|8=FIX.4.4|9=61|35=0|34=731|49=IRISPAR1|52=20250606-02:01:47.354|56=EXCHANGE|10=202|8=FIX.4.4|9=61|35=0|34=732|49=IRISPAR1|52=20250606-02:01:57.354|56=EXCHANGE|10=204|8=FIX.4.4|9=61|35=0|34=733|49=IRISPAR1|52=20250606-02:02:07.354|56=EXCHANGE|10=201|8=FIX.4.4|9=61|35=0|34=734|49=IRISPAR1|52=20250606-02:02:17.355|56=EXCHANGE|10=204|8=FIX.4.4|9=61|35=0|34=735|49=IRISPAR1|52=20250606-02:02:27.355|56=EXCHANGE|10=206|8=FIX.4.4|9=61|35=0|34=736|49=IRISPAR1|52=20250606-02:02:37.355|56=EXCHANGE|10=208|8=FIX.4.4|9=61|35=0|34=737|49=IRISPAR1|52=20250606-02:02:47.355|56=EXCHANGE|10=210|8=FIX.4.4|9=61|35=0|34=738|49=IRISPAR1|52=20250606-02:02:57.355|56=EXCHANGE|10=212|8=FIX.4.4|9=61|35=0|34=739|49=IRISPAR1|52=20250606-02:03:07.355|56=EXCHANGE|10=209|8=FIX.4.4|9=61|35=0|34=740|49=IRISPAR1|52=20250606-02:03:17.355|56=EXCHANGE|10=202|8=FIX.4.4|9=61|35=0|34=741|49=IRISPAR1|52=20250606-02:03:27.355|56=EXCHANGE|10=204|8=FIX.4.4|9=61|35=0|34=742|49=IRISPAR1|52=20250606-02:03:37.355|56=EXCHANGE|10=206|8=FIX.4.4|9=61|35=0|34=743|49=IRISPAR1|52=20250606-02:03:47.355|56=EXCHANGE|10=208|8=FIX.4.4|9=61|35=0|34=744|49=IRISPAR1|52=20250606-02:03:57.356|56=EXCHANGE|10=211|8=FIX.4.4|9=61|35=0|34=745|49=IRISPAR1|52=20250606-02:04:07.356|56=EXCHANGE|10=208|8=FIX.4.4|9=61|35=0|34=746|49=IRISPAR1|52=20250606-02:04:17.356|56=EXCHANGE|10=210|8=FIX.4.4|9=61|35=0|34=747|49=IRISPAR1|52=20250606-02:04:27.356|56=EXCHANGE|10=212|8=FIX.4.4|9=61|35=0|34=748|49=IRISPAR1|52=20250606-02:04:37.356|56=EXCHANGE|10=214|8=FIX.4.4|9=61|35=0|34=749|49=IRISPAR1|52=20250606-02:04:47.356|56=EXCHANGE|10=216|8=FIX.4.4|9=61|35=0|34=750|49=IRISPAR1|52=20250606-02:04:57.356|56=EXCHANGE|10=209|8=FIX.4.4|9=61|35=0|34=751|49=IRISPAR1|52=20250606-02:05:07.356|56=EXCHANGE|10=206|8=FIX.4.4|9=61|35=0|34=752|49=IRISPAR1|52=20250606-02:05:17.356|56=EXCHANGE|10=208|8=FIX.4.4|9=61|35=0|34=753|49=IRISPAR1|52=20250606-02:05:27.356|56=EXCHANGE|10=210|8=FIX.4.4|9=61|35=0|34=754|49=IRISPAR1|52=20250606-02:05:37.356|56=EXCHANGE|10=212|8=FIX.4.4|9=61|35=0|34=755|49=IRISPAR1|52=20250606-02:05:47.357|56=EXCHANGE|10=215|8=FIX.4.4|9=61|35=0|34=756|49=IRISPAR1|52=20250606-02:05:57.357|56=EXCHANGE|10=217|8=FIX.4.4|9=61|35=0|34=757|49=IRISPAR1|52=20250606-02:06:07.357|56=EXCHANGE|10=214|8=FIX.4.4|9=61|35=0|34=758|49=IRISPAR1|52=20250606-02:06:17.357|56=EXCHANGE|10=216|8=FIX.4.4|9=61|35=0|34=759|49=IRISPAR1|52=20250606-02:06:27.357|56=EXCHANGE|10=218|8=FIX.4.4|9=61|35=0|34=760|49=IRISPAR1|52=20250606-02:06:37.357|56=EXCHANGE|10=211|8=FIX.4.4|9=61|35=0|34=761|49=IRISPAR1|52=20250606-02:06:47.357|56=EXCHANGE|10=213|8=FIX.4.4|9=61|35=0|34=762|49=IRISPAR1|52=20250606-02:06:57.357|56=EXCHANGE|10=215|8=FIX.4.4|9=61|35=0|34=763|49=IRISPAR1|52=20250606-02:07:07.357|56=EXCHANGE|10=212|8=FIX.4.4|9=61|35=0|34=764|49=IRISPAR1|52=20250606-02:07:17.358|56=EXCHANGE|10=215|8=FIX.4.4|9=61|35=0|34=765|49=IRISPAR1|52=20250606-02:07:27.358|56=EXCHANGE|10=217|8=FIX.4.4|9=61|35=0|34=766|49=IRISPAR1|52=20250606-02:07:37.358|56=EXCHANGE|10=219|8=FIX.4.4|9=61|35=0|34=767|49=IRISPAR1|52=20250606-02:07:47.358|56=EXCHANGE|10=221|8=FIX.4.4|9=61|35=0|34=768|49=IRISPAR1|52=20250606-02:07:57.358|56=EXCHANGE|10=223|8=FIX.4.4|9=61|35=0|34=769|49=IRISPAR1|52=20250606-02:08:07.358|56=EXCHANGE|10=220|8=FIX.4.4|9=61|35=0|34=770|49=IRISPAR1|52=20250606-02:08:17.358|56=EXCHANGE|10=213|8=FIX.4.4|9=61|35=0|34=771|49=IRISPAR1|52=20250606-02:08:27.358|56=EXCHANGE|10=215|8=FIX.4.4|9=61|35=0|34=772|49=IRISPAR1|52=20250606-02:08:37.358|56=EXCHANGE|10=217|8=FIX.4.4|9=61|35=0|34=773|49=IRISPAR1|52=20250606-02:08:47.358|56=EXCHANGE|10=219|8=FIX.4.4|9=61|35=0|34=774|49=IRISPAR1|52=20250606-02:08:57.358|56=EXCHANGE|10=221|8=FIX.4.4|9=61|35=0|34=775|49=IRISPAR1|52=20250606-02:09:07.358|56=EXCHANGE|10=218|8=FIX.4.4|9=61|35=0|34=776|49=IRISPAR1|52=20250606-02:09:17.359|56=EXCHANGE|10=221|8=FIX.4.4|9=61|35=0|34=777|49=IRISPAR1|52=20250606-02:09:27.359|56=EXCHANGE|10=223|8=FIX.4.4|9=61|35=0|34=778|49=IRISPAR1|52=20250606-02:09:37.359|56=EXCHANGE|10=225|8=FIX.4.4|9=61|35=0|34=779|49=IRISPAR1|52=20250606-02:09:47.359|56=EXCHANGE|10=227|8=FIX.4.4|9=61|35=0|34=780|49=IRISPAR1|52=20250606-02:09:57.359|56=EXCHANGE|10=220|8=FIX.4.4|9=61|35=0|34=781|49=IRISPAR1|52=20250606-02:10:07.359|56=EXCHANGE|10=208|8=FIX.4.4|9=61|35=0|34=782|49=IRISPAR1|52=20250606-02:10:17.359|56=EXCHANGE|10=210|8=FIX.4.4|9=61|35=0|34=783|49=IRISPAR1|52=20250606-02:10:27.359|56=EXCHANGE|10=212|8=FIX.4.4|9=61|35=0|34=784|49=IRISPAR1|52=20250606-02:10:37.359|56=EXCHANGE|10=214|8=FIX.4.4|9=61|35=0|34=785|49=IRISPAR1|52=20250606-02:10:47.359|56=EXCHANGE|10=216|8=FIX.4.4|9=61|35=0|34=786|49=IRISPAR1|52=20250606-02:10:57.360|56=EXCHANGE|10=210|8=FIX.4.4|9=61|35=0|34=787|49=IRISPAR1|52=20250606-02:11:07.360|56=EXCHANGE|10=207|8=FIX.4.4|9=61|35=0|34=788|49=IRISPAR1|52=20250606-02:11:17.360|56=EXCHANGE|10=209|8=FIX.4.4|9=61|35=0|34=789|49=IRISPAR1|52=20250606-02:11:27.360|56=EXCHANGE|10=211|8=FIX.4.4|9=61|35=0|34=790|49=IRISPAR1|52=20250606-02:11:37.360|56=EXCHANGE|10=204|8=FIX.4.4|9=61|35=0|34=791|49=IRISPAR1|52=20250606-02:11:47.360|56=EXCHANGE|10=206|8=FIX.4.4|9=61|35=0|34=792|49=IRISPAR1|52=20250606-02:11:57.361|56=EXCHANGE|10=209|8=FIX.4.4|9=61|35=0|34=793|49=IRISPAR1|52=20250606-02:12:07.361|56=EXCHANGE|10=206|8=FIX.4.4|9=61|35=0|34=794|49=IRISPAR1|52=20250606-02:12:17.361|56=EXCHANGE|10=208|8=FIX.4.4|9=61|35=0|34=795|49=IRISPAR1|52=20250606-02:12:27.361|56=EXCHANGE|10=210|8=FIX.4.4|9=61|35=0|34=796|49=IRISPAR1|52=20250606-02:12:37.361|56=EXCHANGE|10=212|8=FIX.4.4|9=61|35=0|34=797|49=IRISPAR1|52=20250606-02:12:47.361|56=EXCHANGE|10=214|8=FIX.4.4|9=61|35=0|34=798|49=IRISPAR1|52=20250606-02:12:57.361|56=EXCHANGE|10=216|8=FIX.4.4|9=61|35=0|34=799|49=IRISPAR1|52=20250606-02:13:07.361|56=EXCHANGE|10=213|8=FIX.4.4|9=61|35=0|34=800|49=IRISPAR1|52=20250606-02:13:17.361|56=EXCHANGE|10=197|8=FIX.4.4|9=61|35=0|34=801|49=IRISPAR1|52=20250606-02:13:27.362|56=EXCHANGE|10=200|8=FIX.4.4|9=61|35=0|34=802|49=IRISPAR1|52=20250606-02:13:37.362|56=EXCHANGE|10=202|8=FIX.4.4|9=61|35=0|34=803|49=IRISPAR1|52=20250606-02:13:47.362|56=EXCHANGE|10=204|8=FIX.4.4|9=61|35=0|34=804|49=IRISPAR1|52=20250606-02:13:57.362|56=EXCHANGE|10=206|8=FIX.4.4|9=61|35=0|34=805|49=IRISPAR1|52=20250606-02:14:07.362|56=EXCHANGE|10=203|8=FIX.4.4|9=61|35=0|34=806|49=IRISPAR1|52=20250606-02:14:17.362|56=EXCHANGE|10=205|8=FIX.4.4|9=61|35=0|34=807|49=IRISPAR1|52=20250606-02:14:27.362|56=EXCHANGE|10=207|8=FIX.4.4|9=61|35=0|34=808|49=IRISPAR1|52=20250606-02:14:37.362|56=EXCHANGE|10=209|8=FIX.4.4|9=61|35=0|34=809|49=IRISPAR1|52=20250606-02:14:47.362|56=EXCHANGE|10=211|8=FIX.4.4|9=61|35=0|34=810|49=IRISPAR1|52=20250606-02:14:57.362|56=EXCHANGE|10=204|8=FIX.4.4|9=61|35=0|34=811|49=IRISPAR1|52=20250606-02:15:07.362|56=EXCHANGE|10=201|8=FIX.4.4|9=61|35=0|34=812|49=IRISPAR1|52=20250606-02:15:17.363|56=EXCHANGE|10=204|8=FIX.4.4|9=61|35=0|34=813|49=IRISPAR1|52=20250606-02:15:27.363|56=EXCHANGE|10=206|8=FIX.4.4|9=61|35=0|34=814|49=IRISPAR1|52=20250606-02:15:37.363|56=EXCHANGE|10=208|8=FIX.4.4|9=61|35=0|34=815|49=IRISPAR1|52=20250606-02:15:47.363|56=EXCHANGE|10=210|8=FIX.4.4|9=61|35=0|34=816|49=IRISPAR1|52=20250606-02:15:57.363|56=EXCHANGE|10=212|8=FIX.4.4|9=61|35=0|34=817|49=IRISPAR1|52=20250606-02:16:07.363|56=EXCHANGE|10=209|8=FIX.4.4|9=61|35=0|34=818|49=IRISPAR1|52=20250606-02:16:17.363|56=EXCHANGE|10=211|8=FIX.4.4|9=61|35=0|34=819|49=IRISPAR1|52=20250606-02:16:27.363|56=EXCHANGE|10=213|8=FIX.4.4|9=61|35=0|34=820|49=IRISPAR1|52=20250606-02:16:37.363|56=EXCHANGE|10=206|8=FIX.4.4|9=61|35=0|34=821|49=IRISPAR1|52=20250606-02:16:47.364|56=EXCHANGE|10=209|8=FIX.4.4|9=61|35=0|34=822|49=IRISPAR1|52=20250606-02:16:57.364|56=EXCHANGE|10=211|8=FIX.4.4|9=61|35=0|34=823|49=IRISPAR1|52=20250606-02:17:07.364|56=EXCHANGE|10=208|8=FIX.4.4|9=61|35=0|34=824|49=IRISPAR1|52=20250606-02:17:17.364|56=EXCHANGE|10=210|8=FIX.4.4|9=61|35=0|34=825|49=IRISPAR1|52=20250606-02:17:27.364|56=EXCHANGE|10=212|8=FIX.4.4|9=61|35=0|34=826|49=IRISPAR1|52=20250606-02:17:37.364|56=EXCHANGE|10=214|8=FIX.4.4|9=61|35=0|34=827|49=IRISPAR1|52=20250606-02:17:47.364|56=EXCHANGE|10=216|8=FIX.4.4|9=61|35=0|34=828|49=IRISPAR1|52=20250606-02:17:57.365|56=EXCHANGE|10=219|8=FIX.4.4|9=61|35=0|34=829|49=IRISPAR1|52=20250606-02:18:07.365|56=EXCHANGE|10=216|8=FIX.4.4|9=61|35=0|34=830|49=IRISPAR1|52=20250606-02:18:17.365|56=EXCHANGE|10=209|8=FIX.4.4|9=61|35=0|34=831|49=IRISPAR1|52=20250606-02:18:27.365|56=EXCHANGE|10=211|8=FIX.4.4|9=61|35=0|34=832|49=IRISPAR1|52=20250606-02:18:37.365|56=EXCHANGE|10=213|8=FIX.4.4|9=61|35=0|34=833|49=IRISPAR1|52=20250606-02:18:47.365|56=EXCHANGE|10=215|8=FIX.4.4|9=61|35=0|34=834|49=IRISPAR1|52=20250606-02:18:57.365|56=EXCHANGE|10=217|8=FIX.4.4|9=61|35=0|34=835|49=IRISPAR1|52=20250606-02:19:07.365|56=EXCHANGE|10=214|8=FIX.4.4|9=61|35=0|34=836|49=IRISPAR1|52=20250606-02:19:17.366|56=EXCHANGE|10=217|8=FIX.4.4|9=61|35=0|34=837|49=IRISPAR1|52=20250606-02:19:27.366|56=EXCHANGE|10=219|8=FIX.4.4|9=61|35=0|34=838|49=IRISPAR1|52=20250606-02:19:37.366|56=EXCHANGE|10=221|8=FIX.4.4|9=61|35=0|34=839|49=IRISPAR1|52=20250606-02:19:47.366|56=EXCHANGE|10=223|8=FIX.4.4|9=61|35=0|34=840|49=IRISPAR1|52=20250606-02:19:57.366|56=EXCHANGE|10=216|8=FIX.4.4|9=61|35=0|34=841|49=IRISPAR1|52=20250606-02:20:07.366|56=EXCHANGE|10=204|8=FIX.4.4|9=61|35=0|34=842|49=IRISPAR1|52=20250606-02:20:17.366|56=EXCHANGE|10=206|8=FIX.4.4|9=61|35=0|34=843|49=IRISPAR1|52=20250606-02:20:27.366|56=EXCHANGE|10=208|8=FIX.4.4|9=61|35=0|34=844|49=IRISPAR1|52=20250606-02:20:37.366|56=EXCHANGE|10=210|8=FIX.4.4|9=61|35=0|34=845|49=IRISPAR1|52=20250606-02:20:47.366|56=EXCHANGE|10=212|8=FIX.4.4|9=61|35=0|34=846|49=IRISPAR1|52=20250606-02:20:57.367|56=EXCHANGE|10=215|8=FIX.4.4|9=61|35=0|34=847|49=IRISPAR1|52=20250606-02:21:07.367|56=EXCHANGE|10=212|8=FIX.4.4|9=61|35=0|34=848|49=IRISPAR1|52=20250606-02:21:17.367|56=EXCHANGE|10=214|8=FIX.4.4|9=61|35=0|34=849|49=IRISPAR1|52=20250606-02:21:27.367|56=EXCHANGE|10=216|8=FIX.4.4|9=61|35=0|34=850|49=IRISPAR1|52=20250606-02:21:37.367|56=EXCHANGE|10=209|8=FIX.4.4|9=61|35=0|34=851|49=IRISPAR1|52=20250606-02:21:47.367|56=EXCHANGE|10=211|8=FIX.4.4|9=61|35=0|34=852|49=IRISPAR1|52=20250606-02:21:57.367|56=EXCHANGE|10=213|8=FIX.4.4|9=61|35=0|34=853|49=IRISPAR1|52=20250606-02:22:07.367|56=EXCHANGE|10=210|8=FIX.4.4|9=61|35=0|34=854|49=IRISPAR1|52=20250606-02:22:17.367|56=EXCHANGE|10=212|8=FIX.4.4|9=61|35=0|34=855|49=IRISPAR1|52=20250606-02:22:27.367|56=EXCHANGE|10=214|8=FIX.4.4|9=61|35=0|34=856|49=IRISPAR1|52=20250606-02:22:37.368|56=EXCHANGE|10=217|8=FIX.4.4|9=61|35=0|34=857|49=IRISPAR1|52=20250606-02:22:47.368|56=EXCHANGE|10=219|8=FIX.4.4|9=61|35=0|34=858|49=IRISPAR1|52=20250606-02:22:57.368|56=EXCHANGE|10=221|8=FIX.4.4|9=61|35=0|34=859|49=IRISPAR1|52=20250606-02:23:07.368|56=EXCHANGE|10=218|8=FIX.4.4|9=61|35=0|34=860|49=IRISPAR1|52=20250606-02:23:17.368|56=EXCHANGE|10=211|8=FIX.4.4|9=61|35=0|34=861|49=IRISPAR1|52=20250606-02:23:27.368|56=EXCHANGE|10=213|8=FIX.4.4|9=61|35=0|34=862|49=IRISPAR1|52=20250606-02:23:37.368|56=EXCHANGE|10=215|8=FIX.4.4|9=61|35=0|34=863|49=IRISPAR1|52=20250606-02:23:47.368|56=EXCHANGE|10=217|8=FIX.4.4|9=61|35=0|34=864|49=IRISPAR1|52=20250606-02:23:57.368|56=EXCHANGE|10=219|8=FIX.4.4|9=61|35=0|34=865|49=IRISPAR1|52=20250606-02:24:07.368|56=EXCHANGE|10=216|8=FIX.4.4|9=61|35=0|34=866|49=IRISPAR1|52=20250606-02:24:17.369|56=EXCHANGE|10=219|8=FIX.4.4|9=61|35=0|34=867|49=IRISPAR1|52=20250606-02:24:27.369|56=EXCHANGE|10=221|8=FIX.4.4|9=61|35=0|34=868|49=IRISPAR1|52=20250606-02:24:37.369|56=EXCHANGE|10=223|8=FIX.4.4|9=61|35=0|34=869|49=IRISPAR1|52=20250606-02:24:47.369|56=EXCHANGE|10=225|8=FIX.4.4|9=61|35=0|34=870|49=IRISPAR1|52=20250606-02:24:57.369|56=EXCHANGE|10=218|8=FIX.4.4|9=61|35=0|34=871|49=IRISPAR1|52=20250606-02:25:07.369|56=EXCHANGE|10=215|8=FIX.4.4|9=61|35=0|34=872|49=IRISPAR1|52=20250606-02:25:17.369|56=EXCHANGE|10=217|8=FIX.4.4|9=61|35=0|34=873|49=IRISPAR1|52=20250606-02:25:27.369|56=EXCHANGE|10=219|8=FIX.4.4|9=61|35=0|34=874|49=IRISPAR1|52=20250606-02:25:37.369|56=EXCHANGE|10=221|8=FIX.4.4|9=61|35=0|34=875|49=IRISPAR1|52=20250606-02:25:47.370|56=EXCHANGE|10=215|8=FIX.4.4|9=61|35=0|34=876|49=IRISPAR1|52=20250606-02:25:57.370|56=EXCHANGE|10=217|8=FIX.4.4|9=61|35=0|34=877|49=IRISPAR1|52=20250606-02:26:07.370|56=EXCHANGE|10=214|8=FIX.4.4|9=61|35=0|34=878|49=IRISPAR1|52=20250606-02:26:17.370|56=EXCHANGE|10=216|8=FIX.4.4|9=61|35=0|34=879|49=IRISPAR1|52=20250606-02:26:27.370|56=EXCHANGE|10=218|8=FIX.4.4|9=61|35=0|34=880|49=IRISPAR1|52=20250606-02:26:37.370|56=EXCHANGE|10=211|8=FIX.4.4|9=61|35=0|34=881|49=IRISPAR1|52=20250606-02:26:47.370|56=EXCHANGE|10=213|8=FIX.4.4|9=61|35=0|34=882|49=IRISPAR1|52=20250606-02:26:57.370|56=EXCHANGE|10=215|8=FIX.4.4|9=61|35=0|34=883|49=IRISPAR1|52=20250606-02:27:07.370|56=EXCHANGE|10=212|8=FIX.4.4|9=61|35=0|34=884|49=IRISPAR1|52=20250606-02:27:17.370|56=EXCHANGE|10=214|8=FIX.4.4|9=61|35=0|34=885|49=IRISPAR1|52=20250606-02:27:27.371|56=EXCHANGE|10=217|8=FIX.4.4|9=61|35=0|34=886|49=IRISPAR1|52=20250606-02:27:37.371|56=EXCHANGE|10=219|8=FIX.4.4|9=61|35=0|34=887|49=IRISPAR1|52=20250606-02:27:47.371|56=EXCHANGE|10=221|8=FIX.4.4|9=61|35=0|34=888|49=IRISPAR1|52=20250606-02:27:57.371|56=EXCHANGE|10=223|8=FIX.4.4|9=61|35=0|34=889|49=IRISPAR1|52=20250606-02:28:07.371|56=EXCHANGE|10=220|8=FIX.4.4|9=61|35=0|34=890|49=IRISPAR1|52=20250606-02:28:17.371|56=EXCHANGE|10=213|8=FIX.4.4|9=61|35=0|34=891|49=IRISPAR1|52=20250606-02:28:27.371|56=EXCHANGE|10=215|8=FIX.4.4|9=61|35=0|34=892|49=IRISPAR1|52=20250606-02:28:37.371|56=EXCHANGE|10=217|8=FIX.4.4|9=61|35=0|34=893|49=IRISPAR1|52=20250606-02:28:47.371|56=EXCHANGE|10=219|8=FIX.4.4|9=61|35=0|34=894|49=IRISPAR1|52=20250606-02:28:57.372|56=EXCHANGE|10=222|8=FIX.4.4|9=61|35=0|34=895|49=IRISPAR1|52=20250606-02:29:07.372|56=EXCHANGE|10=219|8=FIX.4.4|9=61|35=0|34=896|49=IRISPAR1|52=20250606-02:29:17.372|56=EXCHANGE|10=221|8=FIX.4.4|9=61|35=0|34=897|49=IRISPAR1|52=20250606-02:29:27.372|56=EXCHANGE|10=223|8=FIX.4.4|9=61|35=0|34=898|49=IRISPAR1|52=20250606-02:29:37.372|56=EXCHANGE|10=225|8=FIX.4.4|9=61|35=0|34=899|49=IRISPAR1|52=20250606-02:29:47.372|56=EXCHANGE|10=227|8=FIX.4.4|9=61|35=0|34=900|49=IRISPAR1|52=20250606-02:29:57.372|56=EXCHANGE|10=211|8=FIX.4.4|9=61|35=0|34=901|49=IRISPAR1|52=20250606-02:30:07.372|56=EXCHANGE|10=199|8=FIX.4.4|9=61|35=0|34=902|49=IRISPAR1|52=20250606-02:30:17.372|56=EXCHANGE|10=201|8=FIX.4.4|9=61|35=0|34=903|49=IRISPAR1|52=20250606-02:30:27.373|56=EXCHANGE|10=204|8=FIX.4.4|9=61|35=0|34=904|49=IRISPAR1|52=20250606-02:30:37.373|56=EXCHANGE|10=206|8=FIX.4.4|9=61|35=0|34=905|49=IRISPAR1|52=20250606-02:30:47.373|56=EXCHANGE|10=208|8=FIX.4.4|9=61|35=0|34=906|49=IRISPAR1|52=20250606-02:30:57.373|56=EXCHANGE|10=210|8=FIX.4.4|9=61|35=0|34=907|49=IRISPAR1|52=20250606-02:31:07.373|56=EXCHANGE|10=207|8=FIX.4.4|9=61|35=0|34=908|49=IRISPAR1|52=20250606-02:31:17.373|56=EXCHANGE|10=209|8=FIX.4.4|9=61|35=0|34=909|49=IRISPAR1|52=20250606-02:31:27.373|56=EXCHANGE|10=211|8=FIX.4.4|9=61|35=0|34=910|49=IRISPAR1|52=20250606-02:31:37.373|56=EXCHANGE|10=204|8=FIX.4.4|9=61|35=0|34=911|49=IRISPAR1|52=20250606-02:31:47.374|56=EXCHANGE|10=207|8=FIX.4.4|9=61|35=0|34=912|49=IRISPAR1|52=20250606-02:31:57.374|56=EXCHANGE|10=209|8=FIX.4.4|9=61|35=0|34=913|49=IRISPAR1|52=20250606-02:32:07.374|56=EXCHANGE|10=206|8=FIX.4.4|9=61|35=0|34=914|49=IRISPAR1|52=20250606-02:32:17.374|56=EXCHANGE|10=208|8=FIX.4.4|9=61|35=0|34=915|49=IRISPAR1|52=20250606-02:32:27.374|56=EXCHANGE|10=210|8=FIX.4.4|9=61|35=0|34=916|49=IRISPAR1|52=20250606-02:32:37.374|56=EXCHANGE|10=212|8=FIX.4.4|9=61|35=0|34=917|49=IRISPAR1|52=20250606-02:32:47.374|56=EXCHANGE|10=214|8=FIX.4.4|9=61|35=0|34=918|49=IRISPAR1|52=20250606-02:32:57.374|56=EXCHANGE|10=216|8=FIX.4.4|9=61|35=0|34=919|49=IRISPAR1|52=20250606-02:33:07.374|56=EXCHANGE|10=213|8=FIX.4.4|9=61|35=0|34=920|49=IRISPAR1|52=20250606-02:33:17.375|56=EXCHANGE|10=207|8=FIX.4.4|9=61|35=0|34=921|49=IRISPAR1|52=20250606-02:33:27.375|56=EXCHANGE|10=209|8=FIX.4.4|9=61|35=0|34=922|49=IRISPAR1|52=20250606-02:33:37.375|56=EXCHANGE|10=211|8=FIX.4.4|9=61|35=0|34=923|49=IRISPAR1|52=20250606-02:33:47.375|56=EXCHANGE|10=213|8=FIX.4.4|9=61|35=0|34=924|49=IRISPAR1|52=20250606-02:33:57.375|56=EXCHANGE|10=215|8=FIX.4.4|9=61|35=0|34=925|49=IRISPAR1|52=20250606-02:34:07.375|56=EXCHANGE|10=212|8=FIX.4.4|9=61|35=0|34=926|49=IRISPAR1|52=20250606-02:34:17.375|56=EXCHANGE|10=214|8=FIX.4.4|9=61|35=0|34=927|49=IRISPAR1|52=20250606-02:34:27.375|56=EXCHANGE|10=216|8=FIX.4.4|9=61|35=0|34=928|49=IRISPAR1|52=20250606-02:34:37.376|56=EXCHANGE|10=219|8=FIX.4.4|9=61|35=0|34=929|49=IRISPAR1|52=20250606-02:34:47.376|56=EXCHANGE|10=221|8=FIX.4.4|9=61|35=0|34=930|49=IRISPAR1|52=20250606-02:34:57.376|56=EXCHANGE|10=214|8=FIX.4.4|9=61|35=0|34=931|49=IRISPAR1|52=20250606-02:35:07.376|56=EXCHANGE|10=211|8=FIX.4.4|9=61|35=0|34=932|49=IRISPAR1|52=20250606-02:35:17.376|56=EXCHANGE|10=213|8=FIX.4.4|9=61|35=0|34=933|49=IRISPAR1|52=20250606-02:35:27.376|56=EXCHANGE|10=215|8=FIX.4.4|9=61|35=0|34=934|49=IRISPAR1|52=20250606-02:35:37.376|56=EXCHANGE|10=217|8=FIX.4.4|9=61|35=0|34=935|49=IRISPAR1|52=20250606-02:35:47.376|56=EXCHANGE|10=219|8=FIX.4.4|9=61|35=0|34=936|49=IRISPAR1|52=20250606-02:35:57.377|56=EXCHANGE|10=222|8=FIX.4.4|9=61|35=0|34=937|49=IRISPAR1|52=20250606-02:36:07.377|56=EXCHANGE|10=219|8=FIX.4.4|9=61|35=0|34=938|49=IRISPAR1|52=20250606-02:36:17.377|56=EXCHANGE|10=221|8=FIX.4.4|9=61|35=0|34=939|49=IRISPAR1|52=20250606-02:36:27.377|56=EXCHANGE|10=223|8=FIX.4.4|9=61|35=0|34=940|49=IRISPAR1|52=20250606-02:36:37.377|56=EXCHANGE|10=216|8=FIX.4.4|9=61|35=0|34=941|49=IRISPAR1|52=20250606-02:36:47.377|56=EXCHANGE|10=218|8=FIX.4.4|9=61|35=0|34=942|49=IRISPAR1|52=20250606-02:36:57.377|56=EXCHANGE|10=220|8=FIX.4.4|9=61|35=0|34=943|49=IRISPAR1|52=20250606-02:37:07.377|56=EXCHANGE|10=217|8=FIX.4.4|9=61|35=0|34=944|49=IRISPAR1|52=20250606-02:37:17.378|56=EXCHANGE|10=220|8=FIX.4.4|9=61|35=0|34=945|49=IRISPAR1|52=20250606-02:37:27.378|56=EXCHANGE|10=222|8=FIX.4.4|9=61|35=0|34=946|49=IRISPAR1|52=20250606-02:37:37.378|56=EXCHANGE|10=224|8=FIX.4.4|9=61|35=0|34=947|49=IRISPAR1|52=20250606-02:37:47.378|56=EXCHANGE|10=226|8=FIX.4.4|9=61|35=0|34=948|49=IRISPAR1|52=20250606-02:37:57.378|56=EXCHANGE|10=228|8=FIX.4.4|9=61|35=0|34=949|49=IRISPAR1|52=20250606-02:38:07.378|56=EXCHANGE|10=225|8=FIX.4.4|9=61|35=0|34=950|49=IRISPAR1|52=20250606-02:38:17.378|56=EXCHANGE|10=218|8=FIX.4.4|9=61|35=0|34=951|49=IRISPAR1|52=20250606-02:38:27.378|56=EXCHANGE|10=220|8=FIX.4.4|9=61|35=0|34=952|49=IRISPAR1|52=20250606-02:38:37.378|56=EXCHANGE|10=222|8=FIX.4.4|9=61|35=0|34=953|49=IRISPAR1|52=20250606-02:38:47.378|56=EXCHANGE|10=224|8=FIX.4.4|9=61|35=0|34=954|49=IRISPAR1|52=20250606-02:38:57.379|56=EXCHANGE|10=227|8=FIX.4.4|9=61|35=0|34=955|49=IRISPAR1|52=20250606-02:39:07.379|56=EXCHANGE|10=224|8=FIX.4.4|9=61|35=0|34=956|49=IRISPAR1|52=20250606-02:39:17.379|56=EXCHANGE|10=226|8=FIX.4.4|9=61|35=0|34=957|49=IRISPAR1|52=20250606-02:39:27.379|56=EXCHANGE|10=228|8=FIX.4.4|9=61|35=0|34=958|49=IRISPAR1|52=20250606-02:39:37.379|56=EXCHANGE|10=230|8=FIX.4.4|9=61|35=0|34=959|49=IRISPAR1|52=20250606-02:39:47.379|56=EXCHANGE|10=232|8=FIX.4.4|9=61|35=0|34=960|49=IRISPAR1|52=20250606-02:39:57.379|56=EXCHANGE|10=225|8=FIX.4.4|9=61|35=0|34=961|49=IRISPAR1|52=20250606-02:40:07.379|56=EXCHANGE|10=213|8=FIX.4.4|9=61|35=0|34=962|49=IRISPAR1|52=20250606-02:40:17.379|56=EXCHANGE|10=215|8=FIX.4.4|9=61|35=0|34=963|49=IRISPAR1|52=20250606-02:40:27.379|56=EXCHANGE|10=217|8=FIX.4.4|9=61|35=0|34=964|49=IRISPAR1|52=20250606-02:40:37.379|56=EXCHANGE|10=219|8=FIX.4.4|9=61|35=0|34=965|49=IRISPAR1|52=20250606-02:40:47.380|56=EXCHANGE|10=213|8=FIX.4.4|9=61|35=0|34=966|49=IRISPAR1|52=20250606-02:40:57.380|56=EXCHANGE|10=215|8=FIX.4.4|9=61|35=0|34=967|49=IRISPAR1|52=20250606-02:41:07.380|56=EXCHANGE|10=212|8=FIX.4.4|9=61|35=0|34=968|49=IRISPAR1|52=20250606-02:41:17.380|56=EXCHANGE|10=214|8=FIX.4.4|9=61|35=0|34=969|49=IRISPAR1|52=20250606-02:41:27.380|56=EXCHANGE|10=216|8=FIX.4.4|9=61|35=0|34=970|49=IRISPAR1|52=20250606-02:41:37.380|56=EXCHANGE|10=209|8=FIX.4.4|9=61|35=0|34=971|49=IRISPAR1|52=20250606-02:41:47.380|56=EXCHANGE|10=211|8=FIX.4.4|9=61|35=0|34=972|49=IRISPAR1|52=20250606-02:41:57.381|56=EXCHANGE|10=214|8=FIX.4.4|9=61|35=0|34=973|49=IRISPAR1|52=20250606-02:42:07.381|56=EXCHANGE|10=211|8=FIX.4.4|9=61|35=0|34=974|49=IRISPAR1|52=20250606-02:42:17.381|56=EXCHANGE|10=213|8=FIX.4.4|9=61|35=0|34=975|49=IRISPAR1|52=20250606-02:42:27.381|56=EXCHANGE|10=215|8=FIX.4.4|9=61|35=0|34=976|49=IRISPAR1|52=20250606-02:42:37.381|56=EXCHANGE|10=217|8=FIX.4.4|9=61|35=0|34=977|49=IRISPAR1|52=20250606-02:42:47.381|56=EXCHANGE|10=219|8=FIX.4.4|9=61|35=0|34=978|49=IRISPAR1|52=20250606-02:42:57.381|56=EXCHANGE|10=221|8=FIX.4.4|9=61|35=0|34=979|49=IRISPAR1|52=20250606-02:43:07.381|56=EXCHANGE|10=218|8=FIX.4.4|9=61|35=0|34=980|49=IRISPAR1|52=20250606-02:43:17.381|56=EXCHANGE|10=211|8=FIX.4.4|9=61|35=0|34=981|49=IRISPAR1|52=20250606-02:43:27.381|56=EXCHANGE|10=213|8=FIX.4.4|9=61|35=0|34=982|49=IRISPAR1|52=20250606-02:43:37.382|56=EXCHANGE|10=216|8=FIX.4.4|9=61|35=0|34=983|49=IRISPAR1|52=20250606-02:43:47.382|56=EXCHANGE|10=218|8=FIX.4.4|9=61|35=0|34=984|49=IRISPAR1|52=20250606-02:43:57.382|56=EXCHANGE|10=220|8=FIX.4.4|9=61|35=0|34=985|49=IRISPAR1|52=20250606-02:44:07.382|56=EXCHANGE|10=217|8=FIX.4.4|9=61|35=0|34=986|49=IRISPAR1|52=20250606-02:44:17.382|56=EXCHANGE|10=219|8=FIX.4.4|9=61|35=0|34=987|49=IRISPAR1|52=20250606-02:44:27.382|56=EXCHANGE|10=221|8=FIX.4.4|9=61|35=0|34=988|49=IRISPAR1|52=20250606-02:44:37.382|56=EXCHANGE|10=223|8=FIX.4.4|9=61|35=0|34=989|49=IRISPAR1|52=20250606-02:44:47.382|56=EXCHANGE|10=225|8=FIX.4.4|9=61|35=0|34=990|49=IRISPAR1|52=20250606-02:44:57.382|56=EXCHANGE|10=218|8=FIX.4.4|9=61|35=0|34=991|49=IRISPAR1|52=20250606-02:45:07.383|56=EXCHANGE|10=216|8=FIX.4.4|9=61|35=0|34=992|49=IRISPAR1|52=20250606-02:45:17.383|56=EXCHANGE|10=218|8=FIX.4.4|9=61|35=0|34=993|49=IRISPAR1|52=20250606-02:45:27.383|56=EXCHANGE|10=220|8=FIX.4.4|9=61|35=0|34=994|49=IRISPAR1|52=20250606-02:45:37.383|56=EXCHANGE|10=222|8=FIX.4.4|9=61|35=0|34=995|49=IRISPAR1|52=20250606-02:45:47.383|56=EXCHANGE|10=224|8=FIX.4.4|9=61|35=0|34=996|49=IRISPAR1|52=20250606-02:45:57.383|56=EXCHANGE|10=226|8=FIX.4.4|9=61|35=0|34=997|49=IRISPAR1|52=20250606-02:46:07.383|56=EXCHANGE|10=223|8=FIX.4.4|9=61|35=0|34=998|49=IRISPAR1|52=20250606-02:46:17.383|56=EXCHANGE|10=225|8=FIX.4.4|9=61|35=0|34=999|49=IRISPAR1|52=20250606-02:46:27.383|56=EXCHANGE|10=227|8=FIX.4.4|9=62|35=0|34=1000|49=IRISPAR1|52=20250606-02:46:37.384|56=EXCHANGE|10=252|8=FIX.4.4|9=62|35=0|34=1001|49=IRISPAR1|52=20250606-02:46:47.384|56=EXCHANGE|10=254|8=FIX.4.4|9=62|35=0|34=1002|49=IRISPAR1|52=20250606-02:46:57.384|56=EXCHANGE|10=000|8=FIX.4.4|9=62|35=0|34=1003|49=IRISPAR1|52=20250606-02:47:07.384|56=EXCHANGE|10=253|8=FIX.4.4|9=62|35=0|34=1004|49=IRISPAR1|52=20250606-02:47:17.384|56=EXCHANGE|10=255|8=FIX.4.4|9=62|35=0|34=1005|49=IRISPAR1|52=20250606-02:47:27.384|56=EXCHANGE|10=001|8=FIX.4.4|9=62|35=0|34=1006|49=IRISPAR1|52=20250606-02:47:37.384|56=EXCHANGE|10=003|8=FIX.4.4|9=62|35=0|34=1007|49=IRISPAR1|52=20250606-02:47:47.384|56=EXCHANGE|10=005|8=FIX.4.4|9=62|35=0|34=1008|49=IRISPAR1|52=20250606-02:47:57.384|56=EXCHANGE|10=007|8=FIX.4.4|9=62|35=0|34=1009|49=IRISPAR1|52=20250606-02:48:07.385|56=EXCHANGE|10=005|8=FIX.4.4|9=62|35=0|34=1010|49=IRISPAR1|52=20250606-02:48:17.385|56=EXCHANGE|10=254|8=FIX.4.4|9=62|35=0|34=1011|49=IRISPAR1|52=20250606-02:48:27.385|56=EXCHANGE|10=000|8=FIX.4.4|9=62|35=0|34=1012|49=IRISPAR1|52=20250606-02:48:37.385|56=EXCHANGE|10=002|8=FIX.4.4|9=62|35=0|34=1013|49=IRISPAR1|52=20250606-02:48:47.385|56=EXCHANGE|10=004|8=FIX.4.4|9=62|35=0|34=1014|49=IRISPAR1|52=20250606-02:48:57.385|56=EXCHANGE|10=006|8=FIX.4.4|9=62|35=0|34=1015|49=IRISPAR1|52=20250606-02:49:07.385|56=EXCHANGE|10=003|8=FIX.4.4|9=62|35=0|34=1016|49=IRISPAR1|52=20250606-02:49:17.385|56=EXCHANGE|10=005|8=FIX.4.4|9=62|35=0|34=1017|49=IRISPAR1|52=20250606-02:49:27.385|56=EXCHANGE|10=007|8=FIX.4.4|9=62|35=0|34=1018|49=IRISPAR1|52=20250606-02:49:37.385|56=EXCHANGE|10=009|8=FIX.4.4|9=62|35=0|34=1019|49=IRISPAR1|52=20250606-02:49:47.385|56=EXCHANGE|10=011|8=FIX.4.4|9=62|35=0|34=1020|49=IRISPAR1|52=20250606-02:49:57.386|56=EXCHANGE|10=005|8=FIX.4.4|9=62|35=0|34=1021|49=IRISPAR1|52=20250606-02:50:07.386|56=EXCHANGE|10=249|8=FIX.4.4|9=62|35=0|34=1022|49=IRISPAR1|52=20250606-02:50:17.386|56=EXCHANGE|10=251|8=FIX.4.4|9=62|35=0|34=1023|49=IRISPAR1|52=20250606-02:50:27.386|56=EXCHANGE|10=253|8=FIX.4.4|9=62|35=0|34=1024|49=IRISPAR1|52=20250606-02:50:37.386|56=EXCHANGE|10=255|8=FIX.4.4|9=62|35=0|34=1025|49=IRISPAR1|52=20250606-02:50:47.386|56=EXCHANGE|10=001|8=FIX.4.4|9=62|35=0|34=1026|49=IRISPAR1|52=20250606-02:50:57.386|56=EXCHANGE|10=003|8=FIX.4.4|9=62|35=0|34=1027|49=IRISPAR1|52=20250606-02:51:07.386|56=EXCHANGE|10=000|8=FIX.4.4|9=62|35=0|34=1028|49=IRISPAR1|52=20250606-02:51:17.386|56=EXCHANGE|10=002|8=FIX.4.4|9=62|35=0|34=1029|49=IRISPAR1|52=20250606-02:51:27.386|56=EXCHANGE|10=004|8=FIX.4.4|9=62|35=0|34=1030|49=IRISPAR1|52=20250606-02:51:37.387|56=EXCHANGE|10=254|8=FIX.4.4|9=62|35=0|34=1031|49=IRISPAR1|52=20250606-02:51:47.387|56=EXCHANGE|10=000|8=FIX.4.4|9=62|35=0|34=1032|49=IRISPAR1|52=20250606-02:51:57.387|56=EXCHANGE|10=002|8=FIX.4.4|9=62|35=0|34=1033|49=IRISPAR1|52=20250606-02:52:07.387|56=EXCHANGE|10=255|8=FIX.4.4|9=62|35=0|34=1034|49=IRISPAR1|52=20250606-02:52:17.387|56=EXCHANGE|10=001|8=FIX.4.4|9=62|35=0|34=1035|49=IRISPAR1|52=20250606-02:52:27.387|56=EXCHANGE|10=003|8=FIX.4.4|9=62|35=0|34=1036|49=IRISPAR1|52=20250606-02:52:37.387|56=EXCHANGE|10=005|8=FIX.4.4|9=62|35=0|34=1037|49=IRISPAR1|52=20250606-02:52:47.388|56=EXCHANGE|10=008|8=FIX.4.4|9=62|35=0|34=1038|49=IRISPAR1|52=20250606-02:52:57.388|56=EXCHANGE|10=010|8=FIX.4.4|9=62|35=0|34=1039|49=IRISPAR1|52=20250606-02:53:07.388|56=EXCHANGE|10=007|8=FIX.4.4|9=62|35=0|34=1040|49=IRISPAR1|52=20250606-02:53:17.388|56=EXCHANGE|10=000|8=FIX.4.4|9=62|35=0|34=1041|49=IRISPAR1|52=20250606-02:53:27.388|56=EXCHANGE|10=002|8=FIX.4.4|9=62|35=0|34=1042|49=IRISPAR1|52=20250606-02:53:37.388|56=EXCHANGE|10=004|8=FIX.4.4|9=62|35=0|34=1043|49=IRISPAR1|52=20250606-02:53:47.388|56=EXCHANGE|10=006|8=FIX.4.4|9=62|35=0|34=1044|49=IRISPAR1|52=20250606-02:53:57.388|56=EXCHANGE|10=008|8=FIX.4.4|9=62|35=0|34=1045|49=IRISPAR1|52=20250606-02:54:07.388|56=EXCHANGE|10=005|8=FIX.4.4|9=62|35=0|34=1046|49=IRISPAR1|52=20250606-02:54:17.389|56=EXCHANGE|10=008|8=FIX.4.4|9=62|35=0|34=1047|49=IRISPAR1|52=20250606-02:54:27.389|56=EXCHANGE|10=010|8=FIX.4.4|9=62|35=0|34=1048|49=IRISPAR1|52=20250606-02:54:37.389|56=EXCHANGE|10=012|8=FIX.4.4|9=62|35=0|34=1049|49=IRISPAR1|52=20250606-02:54:47.389|56=EXCHANGE|10=014|8=FIX.4.4|9=62|35=0|34=1050|49=IRISPAR1|52=20250606-02:54:57.389|56=EXCHANGE|10=007|8=FIX.4.4|9=62|35=0|34=1051|49=IRISPAR1|52=20250606-02:55:07.389|56=EXCHANGE|10=004|8=FIX.4.4|9=62|35=0|34=1052|49=IRISPAR1|52=20250606-02:55:17.389|56=EXCHANGE|10=006|8=FIX.4.4|9=62|35=0|34=1053|49=IRISPAR1|52=20250606-02:55:27.389|56=EXCHANGE|10=008|8=FIX.4.4|9=62|35=0|34=1054|49=IRISPAR1|52=20250606-02:55:37.390|56=EXCHANGE|10=002|8=FIX.4.4|9=62|35=0|34=1055|49=IRISPAR1|52=20250606-02:55:47.390|56=EXCHANGE|10=004|8=FIX.4.4|9=62|35=0|34=1056|49=IRISPAR1|52=20250606-02:55:57.390|56=EXCHANGE|10=006|8=FIX.4.4|9=62|35=0|34=1057|49=IRISPAR1|52=20250606-02:56:07.390|56=EXCHANGE|10=003|8=FIX.4.4|9=62|35=0|34=1058|49=IRISPAR1|52=20250606-02:56:17.390|56=EXCHANGE|10=005|8=FIX.4.4|9=62|35=0|34=1059|49=IRISPAR1|52=20250606-02:56:27.390|56=EXCHANGE|10=007|8=FIX.4.4|9=62|35=0|34=1060|49=IRISPAR1|52=20250606-02:56:37.390|56=EXCHANGE|10=000|8=FIX.4.4|9=62|35=0|34=1061|49=IRISPAR1|52=20250606-02:56:47.390|56=EXCHANGE|10=002|8=FIX.4.4|9=62|35=0|34=1062|49=IRISPAR1|52=20250606-02:56:57.390|56=EXCHANGE|10=004|8=FIX.4.4|9=62|35=0|34=1063|49=IRISPAR1|52=20250606-02:57:07.390|56=EXCHANGE|10=001|8=FIX.4.4|9=62|35=0|34=1064|49=IRISPAR1|52=20250606-02:57:17.391|56=EXCHANGE|10=004|8=FIX.4.4|9=62|35=0|34=1065|49=IRISPAR1|52=20250606-02:57:27.391|56=EXCHANGE|10=006|8=FIX.4.4|9=62|35=0|34=1066|49=IRISPAR1|52=20250606-02:57:37.391|56=EXCHANGE|10=008|8=FIX.4.4|9=62|35=0|34=1067|49=IRISPAR1|52=20250606-02:57:47.391|56=EXCHANGE|10=010|8=FIX.4.4|9=62|35=0|34=1068|49=IRISPAR1|52=20250606-02:57:57.391|56=EXCHANGE|10=012|8=FIX.4.4|9=62|35=0|34=1069|49=IRISPAR1|52=20250606-02:58:07.391|56=EXCHANGE|10=009|8=FIX.4.4|9=62|35=0|34=1070|49=IRISPAR1|52=20250606-02:58:17.391|56=EXCHANGE|10=002|8=FIX.4.4|9=62|35=0|34=1071|49=IRISPAR1|52=20250606-02:58:27.391|56=EXCHANGE|10=004|8=FIX.4.4|9=62|35=0|34=1072|49=IRISPAR1|52=20250606-02:58:37.392|56=EXCHANGE|10=007|8=FIX.4.4|9=62|35=0|34=1073|49=IRISPAR1|52=20250606-02:58:47.392|56=EXCHANGE|10=009|8=FIX.4.4|9=62|35=0|34=1074|49=IRISPAR1|52=20250606-02:58:57.392|56=EXCHANGE|10=011|8=FIX.4.4|9=62|35=0|34=1075|49=IRISPAR1|52=20250606-02:59:07.392|56=EXCHANGE|10=008|8=FIX.4.4|9=62|35=0|34=1076|49=IRISPAR1|52=20250606-02:59:17.392|56=EXCHANGE|10=010|8=FIX.4.4|9=62|35=0|34=1077|49=IRISPAR1|52=20250606-02:59:27.392|56=EXCHANGE|10=012|8=FIX.4.4|9=62|35=0|34=1078|49=IRISPAR1|52=20250606-02:59:37.392|56=EXCHANGE|10=014|8=FIX.4.4|9=62|35=0|34=1079|49=IRISPAR1|52=20250606-02:59:47.392|56=EXCHANGE|10=016|8=FIX.4.4|9=62|35=0|34=1080|49=IRISPAR1|52=20250606-02:59:57.392|56=EXCHANGE|10=009|8=FIX.4.4|9=62|35=0|34=1081|49=IRISPAR1|52=20250606-03:00:07.393|56=EXCHANGE|10=249|8=FIX.4.4|9=62|35=0|34=1082|49=IRISPAR1|52=20250606-03:00:17.393|56=EXCHANGE|10=251|8=FIX.4.4|9=62|35=0|34=1083|49=IRISPAR1|52=20250606-03:00:27.393|56=EXCHANGE|10=253|8=FIX.4.4|9=62|35=0|34=1084|49=IRISPAR1|52=20250606-03:00:37.393|56=EXCHANGE|10=255|8=FIX.4.4|9=62|35=0|34=1085|49=IRISPAR1|52=20250606-03:00:47.393|56=EXCHANGE|10=001|8=FIX.4.4|9=62|35=0|34=1086|49=IRISPAR1|52=20250606-03:00:57.393|56=EXCHANGE|10=003|8=FIX.4.4|9=62|35=0|34=1087|49=IRISPAR1|52=20250606-03:01:07.393|56=EXCHANGE|10=000|8=FIX.4.4|9=62|35=0|34=1088|49=IRISPAR1|52=20250606-03:01:17.394|56=EXCHANGE|10=003|8=FIX.4.4|9=62|35=0|34=1089|49=IRISPAR1|52=20250606-03:01:27.394|56=EXCHANGE|10=005|8=FIX.4.4|9=62|35=0|34=1090|49=IRISPAR1|52=20250606-03:01:37.394|56=EXCHANGE|10=254|8=FIX.4.4|9=62|35=0|34=1091|49=IRISPAR1|52=20250606-03:01:47.394|56=EXCHANGE|10=000|8=FIX.4.4|9=62|35=0|34=1092|49=IRISPAR1|52=20250606-03:01:57.394|56=EXCHANGE|10=002|8=FIX.4.4|9=62|35=0|34=1093|49=IRISPAR1|52=20250606-03:02:07.394|56=EXCHANGE|10=255|8=FIX.4.4|9=62|35=0|34=1094|49=IRISPAR1|52=20250606-03:02:17.394|56=EXCHANGE|10=001|8=FIX.4.4|9=62|35=0|34=1095|49=IRISPAR1|52=20250606-03:02:27.394|56=EXCHANGE|10=003|8=FIX.4.4|9=62|35=0|34=1096|49=IRISPAR1|52=20250606-03:02:37.394|56=EXCHANGE|10=005|8=FIX.4.4|9=62|35=0|34=1097|49=IRISPAR1|52=20250606-03:02:47.394|56=EXCHANGE|10=007|8=FIX.4.4|9=62|35=0|34=1098|49=IRISPAR1|52=20250606-03:02:57.395|56=EXCHANGE|10=010|8=FIX.4.4|9=62|35=0|34=1099|49=IRISPAR1|52=20250606-03:03:07.395|56=EXCHANGE|10=007|8=FIX.4.4|9=62|35=0|34=1100|49=IRISPAR1|52=20250606-03:03:17.395|56=EXCHANGE|10=247|8=FIX.4.4|9=62|35=0|34=1101|49=IRISPAR1|52=20250606-03:03:27.395|56=EXCHANGE|10=249|8=FIX.4.4|9=62|35=0|34=1102|49=IRISPAR1|52=20250606-03:03:37.395|56=EXCHANGE|10=251|8=FIX.4.4|9=62|35=0|34=1103|49=IRISPAR1|52=20250606-03:03:47.395|56=EXCHANGE|10=253|8=FIX.4.4|9=62|35=0|34=1104|49=IRISPAR1|52=20250606-03:03:57.395|56=EXCHANGE|10=255|8=FIX.4.4|9=62|35=0|34=1105|49=IRISPAR1|52=20250606-03:04:07.395|56=EXCHANGE|10=252|8=FIX.4.4|9=62|35=0|34=1106|49=IRISPAR1|52=20250606-03:04:17.396|56=EXCHANGE|10=255|8=FIX.4.4|9=62|35=0|34=1107|49=IRISPAR1|52=20250606-03:04:27.396|56=EXCHANGE|10=001|8=FIX.4.4|9=62|35=0|34=1108|49=IRISPAR1|52=20250606-03:04:37.396|56=EXCHANGE|10=003|8=FIX.4.4|9=62|35=0|34=1109|49=IRISPAR1|52=20250606-03:04:47.396|56=EXCHANGE|10=005|8=FIX.4.4|9=62|35=0|34=1110|49=IRISPAR1|52=20250606-03:04:57.396|56=EXCHANGE|10=254|8=FIX.4.4|9=62|35=0|34=1111|49=IRISPAR1|52=20250606-03:05:07.396|56=EXCHANGE|10=251|8=FIX.4.4|9=62|35=0|34=1112|49=IRISPAR1|52=20250606-03:05:17.396|56=EXCHANGE|10=253|8=FIX.4.4|9=62|35=0|34=1113|49=IRISPAR1|52=20250606-03:05:27.396|56=EXCHANGE|10=255|8=FIX.4.4|9=62|35=0|34=1114|49=IRISPAR1|52=20250606-03:05:37.396|56=EXCHANGE|10=001|8=FIX.4.4|9=62|35=0|34=1115|49=IRISPAR1|52=20250606-03:05:47.396|56=EXCHANGE|10=003|8=FIX.4.4|9=62|35=0|34=1116|49=IRISPAR1|52=20250606-03:05:57.397|56=EXCHANGE|10=006|8=FIX.4.4|9=62|35=0|34=1117|49=IRISPAR1|52=20250606-03:06:07.397|56=EXCHANGE|10=003|8=FIX.4.4|9=62|35=0|34=1118|49=IRISPAR1|52=20250606-03:06:17.397|56=EXCHANGE|10=005|8=FIX.4.4|9=62|35=0|34=1119|49=IRISPAR1|52=20250606-03:06:27.397|56=EXCHANGE|10=007|8=FIX.4.4|9=62|35=0|34=1120|49=IRISPAR1|52=20250606-03:06:37.397|56=EXCHANGE|10=000|8=FIX.4.4|9=62|35=0|34=1121|49=IRISPAR1|52=20250606-03:06:47.397|56=EXCHANGE|10=002|8=FIX.4.4|9=62|35=0|34=1122|49=IRISPAR1|52=20250606-03:06:57.397|56=EXCHANGE|10=004|8=FIX.4.4|9=62|35=0|34=1123|49=IRISPAR1|52=20250606-03:07:07.397|56=EXCHANGE|10=001|8=FIX.4.4|9=62|35=0|34=1124|49=IRISPAR1|52=20250606-03:07:17.397|56=EXCHANGE|10=003|8=FIX.4.4|9=62|35=0|34=1125|49=IRISPAR1|52=20250606-03:07:27.397|56=EXCHANGE|10=005|8=FIX.4.4|9=62|35=0|34=1126|49=IRISPAR1|52=20250606-03:07:37.398|56=EXCHANGE|10=008|8=FIX.4.4|9=62|35=0|34=1127|49=IRISPAR1|52=20250606-03:07:47.398|56=EXCHANGE|10=010|8=FIX.4.4|9=62|35=0|34=1128|49=IRISPAR1|52=20250606-03:07:57.398|56=EXCHANGE|10=012|8=FIX.4.4|9=62|35=0|34=1129|49=IRISPAR1|52=20250606-03:08:07.398|56=EXCHANGE|10=009|8=FIX.4.4|9=62|35=0|34=1130|49=IRISPAR1|52=20250606-03:08:17.398|56=EXCHANGE|10=002|8=FIX.4.4|9=62|35=0|34=1131|49=IRISPAR1|52=20250606-03:08:27.398|56=EXCHANGE|10=004|8=FIX.4.4|9=62|35=0|34=1132|49=IRISPAR1|52=20250606-03:08:37.398|56=EXCHANGE|10=006|8=FIX.4.4|9=62|35=0|34=1133|49=IRISPAR1|52=20250606-03:08:47.398|56=EXCHANGE|10=008|8=FIX.4.4|9=62|35=0|34=1134|49=IRISPAR1|52=20250606-03:08:57.398|56=EXCHANGE|10=010|8=FIX.4.4|9=62|35=0|34=1135|49=IRISPAR1|52=20250606-03:09:07.398|56=EXCHANGE|10=007|8=FIX.4.4|9=62|35=0|34=1136|49=IRISPAR1|52=20250606-03:09:17.399|56=EXCHANGE|10=010|8=FIX.4.4|9=62|35=0|34=1137|49=IRISPAR1|52=20250606-03:09:27.399|56=EXCHANGE|10=012|8=FIX.4.4|9=62|35=0|34=1138|49=IRISPAR1|52=20250606-03:09:37.399|56=EXCHANGE|10=014|8=FIX.4.4|9=62|35=0|34=1139|49=IRISPAR1|52=20250606-03:09:47.399|56=EXCHANGE|10=016|8=FIX.4.4|9=62|35=0|34=1140|49=IRISPAR1|52=20250606-03:09:57.399|56=EXCHANGE|10=009|8=FIX.4.4|9=62|35=0|34=1141|49=IRISPAR1|52=20250606-03:10:07.399|56=EXCHANGE|10=253|8=FIX.4.4|9=62|35=0|34=1142|49=IRISPAR1|52=20250606-03:10:17.399|56=EXCHANGE|10=255|8=FIX.4.4|9=62|35=0|34=1143|49=IRISPAR1|52=20250606-03:10:27.399|56=EXCHANGE|10=001|8=FIX.4.4|9=62|35=0|34=1144|49=IRISPAR1|52=20250606-03:10:37.399|56=EXCHANGE|10=003|8=FIX.4.4|9=62|35=0|34=1145|49=IRISPAR1|52=20250606-03:10:47.399|56=EXCHANGE|10=005|8=FIX.4.4|9=62|35=0|34=1146|49=IRISPAR1|52=20250606-03:10:57.399|56=EXCHANGE|10=007|8=FIX.4.4|9=62|35=0|34=1147|49=IRISPAR1|52=20250606-03:11:07.400|56=EXCHANGE|10=243|8=FIX.4.4|9=62|35=0|34=1148|49=IRISPAR1|52=20250606-03:11:17.400|56=EXCHANGE|10=245|8=FIX.4.4|9=62|35=0|34=1149|49=IRISPAR1|52=20250606-03:11:27.400|56=EXCHANGE|10=247|8=FIX.4.4|9=62|35=0|34=1150|49=IRISPAR1|52=20250606-03:11:37.400|56=EXCHANGE|10=240|8=FIX.4.4|9=62|35=0|34=1151|49=IRISPAR1|52=20250606-03:11:47.400|56=EXCHANGE|10=242|8=FIX.4.4|9=62|35=0|34=1152|49=IRISPAR1|52=20250606-03:11:57.400|56=EXCHANGE|10=244|8=FIX.4.4|9=62|35=0|34=1153|49=IRISPAR1|52=20250606-03:12:07.400|56=EXCHANGE|10=241|8=FIX.4.4|9=62|35=0|34=1154|49=IRISPAR1|52=20250606-03:12:17.400|56=EXCHANGE|10=243|8=FIX.4.4|9=62|35=0|34=1155|49=IRISPAR1|52=20250606-03:12:27.401|56=EXCHANGE|10=246|8=FIX.4.4|9=62|35=0|34=1156|49=IRISPAR1|52=20250606-03:12:37.401|56=EXCHANGE|10=248|8=FIX.4.4|9=62|35=0|34=1157|49=IRISPAR1|52=20250606-03:12:47.401|56=EXCHANGE|10=250|8=FIX.4.4|9=62|35=0|34=1158|49=IRISPAR1|52=20250606-03:12:57.401|56=EXCHANGE|10=252|8=FIX.4.4|9=62|35=0|34=1159|49=IRISPAR1|52=20250606-03:13:07.401|56=EXCHANGE|10=249|8=FIX.4.4|9=62|35=0|34=1160|49=IRISPAR1|52=20250606-03:13:17.401|56=EXCHANGE|10=242|8=FIX.4.4|9=62|35=0|34=1161|49=IRISPAR1|52=20250606-03:13:27.401|56=EXCHANGE|10=244|8=FIX.4.4|9=62|35=0|34=1162|49=IRISPAR1|52=20250606-03:13:37.402|56=EXCHANGE|10=247|8=FIX.4.4|9=62|35=0|34=1163|49=IRISPAR1|52=20250606-03:13:47.402|56=EXCHANGE|10=249|8=FIX.4.4|9=62|35=0|34=1164|49=IRISPAR1|52=20250606-03:13:57.402|56=EXCHANGE|10=251|8=FIX.4.4|9=62|35=0|34=1165|49=IRISPAR1|52=20250606-03:14:07.402|56=EXCHANGE|10=248|8=FIX.4.4|9=62|35=0|34=1166|49=IRISPAR1|52=20250606-03:14:17.402|56=EXCHANGE|10=250|8=FIX.4.4|9=62|35=0|34=1167|49=IRISPAR1|52=20250606-03:14:27.402|56=EXCHANGE|10=252|8=FIX.4.4|9=62|35=0|34=1168|49=IRISPAR1|52=20250606-03:14:37.402|56=EXCHANGE|10=254|8=FIX.4.4|9=62|35=0|34=1169|49=IRISPAR1|52=20250606-03:14:47.402|56=EXCHANGE|10=000|8=FIX.4.4|9=62|35=0|34=1170|49=IRISPAR1|52=20250606-03:14:57.402|56=EXCHANGE|10=249|8=FIX.4.4|9=62|35=0|34=1171|49=IRISPAR1|52=20250606-03:15:07.403|56=EXCHANGE|10=247|8=FIX.4.4|9=62|35=0|34=1172|49=IRISPAR1|52=20250606-03:15:17.403|56=EXCHANGE|10=249|8=FIX.4.4|9=62|35=0|34=1173|49=IRISPAR1|52=20250606-03:15:27.403|56=EXCHANGE|10=251|8=FIX.4.4|9=62|35=0|34=1174|49=IRISPAR1|52=20250606-03:15:37.403|56=EXCHANGE|10=253|8=FIX.4.4|9=62|35=0|34=1175|49=IRISPAR1|52=20250606-03:15:47.403|56=EXCHANGE|10=255|8=FIX.4.4|9=62|35=0|34=1176|49=IRISPAR1|52=20250606-03:15:57.403|56=EXCHANGE|10=001|8=FIX.4.4|9=62|35=0|34=1177|49=IRISPAR1|52=20250606-03:16:07.403|56=EXCHANGE|10=254|8=FIX.4.4|9=62|35=0|34=1178|49=IRISPAR1|52=20250606-03:16:17.403|56=EXCHANGE|10=000|8=FIX.4.4|9=62|35=0|34=1179|49=IRISPAR1|52=20250606-03:16:27.404|56=EXCHANGE|10=003|8=FIX.4.4|9=62|35=0|34=1180|49=IRISPAR1|52=20250606-03:16:37.404|56=EXCHANGE|10=252|8=FIX.4.4|9=62|35=0|34=1181|49=IRISPAR1|52=20250606-03:16:47.404|56=EXCHANGE|10=254|8=FIX.4.4|9=62|35=0|34=1182|49=IRISPAR1|52=20250606-03:16:57.404|56=EXCHANGE|10=000|8=FIX.4.4|9=62|35=0|34=1183|49=IRISPAR1|52=20250606-03:17:07.404|56=EXCHANGE|10=253|8=FIX.4.4|9=62|35=0|34=1184|49=IRISPAR1|52=20250606-03:17:17.404|56=EXCHANGE|10=255|8=FIX.4.4|9=62|35=0|34=1185|49=IRISPAR1|52=20250606-03:17:27.404|56=EXCHANGE|10=001|8=FIX.4.4|9=62|35=0|34=1186|49=IRISPAR1|52=20250606-03:17:37.404|56=EXCHANGE|10=003|8=FIX.4.4|9=62|35=0|34=1187|49=IRISPAR1|52=20250606-03:17:47.404|56=EXCHANGE|10=005|8=FIX.4.4|9=62|35=0|34=1188|49=IRISPAR1|52=20250606-03:17:57.404|56=EXCHANGE|10=007|8=FIX.4.4|9=62|35=0|34=1189|49=IRISPAR1|52=20250606-03:18:07.405|56=EXCHANGE|10=005|8=FIX.4.4|9=62|35=0|34=1190|49=IRISPAR1|52=20250606-03:18:17.405|56=EXCHANGE|10=254|8=FIX.4.4|9=62|35=0|34=1191|49=IRISPAR1|52=20250606-03:18:27.405|56=EXCHANGE|10=000|8=FIX.4.4|9=62|35=0|34=1192|49=IRISPAR1|52=20250606-03:18:37.405|56=EXCHANGE|10=002|8=FIX.4.4|9=62|35=0|34=1193|49=IRISPAR1|52=20250606-03:18:47.405|56=EXCHANGE|10=004|8=FIX.4.4|9=62|35=0|34=1194|49=IRISPAR1|52=20250606-03:18:57.405|56=EXCHANGE|10=006|8=FIX.4.4|9=62|35=0|34=1195|49=IRISPAR1|52=20250606-03:19:07.405|56=EXCHANGE|10=003|8=FIX.4.4|9=62|35=0|34=1196|49=IRISPAR1|52=20250606-03:19:17.405|56=EXCHANGE|10=005|8=FIX.4.4|9=62|35=0|34=1197|49=IRISPAR1|52=20250606-03:19:27.405|56=EXCHANGE|10=007|8=FIX.4.4|9=62|35=0|34=1198|49=IRISPAR1|52=20250606-03:19:37.406|56=EXCHANGE|10=010|8=FIX.4.4|9=62|35=0|34=1199|49=IRISPAR1|52=20250606-03:19:47.406|56=EXCHANGE|10=012|8=FIX.4.4|9=62|35=0|34=1200|49=IRISPAR1|52=20250606-03:19:57.406|56=EXCHANGE|10=252|8=FIX.4.4|9=62|35=0|34=1201|49=IRISPAR1|52=20250606-03:20:07.406|56=EXCHANGE|10=240|8=FIX.4.4|9=62|35=0|34=1202|49=IRISPAR1|52=20250606-03:20:17.406|56=EXCHANGE|10=242|8=FIX.4.4|9=62|35=0|34=1203|49=IRISPAR1|52=20250606-03:20:27.406|56=EXCHANGE|10=244|8=FIX.4.4|9=62|35=0|34=1204|49=IRISPA