8=FIX.4.4|9=77|35=A|34=1|49=IRISPAR1|52=20250415-07:29:36.540|56=IRISPAR1|98=0|108=30|141=Y|10=206|