8=FIX.4.4|9=77|35=A|34=1|49=IRISPAR2|52=20250606-00:00:19.120|56=EXCHANGE|98=0|108=30|141=Y|10=178|8=FIX.4.4|9=59|35=0|34=2|49=IRISPAR2|52=20250606-00:00:19.133|56=EXCHANGE|10=096|8=FIX.4.4|9=59|35=0|34=3|49=IRISPAR2|52=20250606-00:00:29.134|56=EXCHANGE|10=099|8=FIX.4.4|9=59|35=0|34=4|49=IRISPAR2|52=20250606-00:00:39.134|56=EXCHANGE|10=101|8=FIX.4.4|9=59|35=0|34=5|49=IRISPAR2|52=20250606-00:00:49.134|56=EXCHANGE|10=103|8=FIX.4.4|9=59|35=0|34=6|49=IRISPAR2|52=20250606-00:00:59.134|56=EXCHANGE|10=105|8=FIX.4.4|9=59|35=0|34=7|49=IRISPAR2|52=20250606-00:01:09.134|56=EXCHANGE|10=102|8=FIX.4.4|9=59|35=0|34=8|49=IRISPAR2|52=20250606-00:01:19.134|56=EXCHANGE|10=104|8=FIX.4.4|9=59|35=0|34=9|49=IRISPAR2|52=20250606-00:01:29.134|56=EXCHANGE|10=106|8=FIX.4.4|9=60|35=0|34=10|49=IRISPAR2|52=20250606-00:01:39.135|56=EXCHANGE|10=140|8=FIX.4.4|9=60|35=0|34=11|49=IRISPAR2|52=20250606-00:01:49.135|56=EXCHANGE|10=142|8=FIX.4.4|9=60|35=0|34=12|49=IRISPAR2|52=20250606-00:01:59.135|56=EXCHANGE|10=144|8=FIX.4.4|9=60|35=0|34=13|49=IRISPAR2|52=20250606-00:02:09.135|56=EXCHANGE|10=141|8=FIX.4.4|9=60|35=0|34=14|49=IRISPAR2|52=20250606-00:02:19.135|56=EXCHANGE|10=143|8=FIX.4.4|9=60|35=0|34=15|49=IRISPAR2|52=20250606-00:02:29.135|56=EXCHANGE|10=145|8=FIX.4.4|9=60|35=0|34=16|49=IRISPAR2|52=20250606-00:02:39.135|56=EXCHANGE|10=147|8=FIX.4.4|9=60|35=0|34=17|49=IRISPAR2|52=20250606-00:02:49.135|56=EXCHANGE|10=149|8=FIX.4.4|9=60|35=0|34=18|49=IRISPAR2|52=20250606-00:02:59.135|56=EXCHANGE|10=151|8=FIX.4.4|9=60|35=0|34=19|49=IRISPAR2|52=20250606-00:03:09.136|56=EXCHANGE|10=149|8=FIX.4.4|9=60|35=0|34=20|49=IRISPAR2|52=20250606-00:03:19.136|56=EXCHANGE|10=142|8=FIX.4.4|9=60|35=0|34=21|49=IRISPAR2|52=20250606-00:03:29.136|56=EXCHANGE|10=144|8=FIX.4.4|9=60|35=0|34=22|49=IRISPAR2|52=20250606-00:03:39.136|56=EXCHANGE|10=146|8=FIX.4.4|9=60|35=0|34=23|49=IRISPAR2|52=20250606-00:03:49.136|56=EXCHANGE|10=148|8=FIX.4.4|9=60|35=0|34=24|49=IRISPAR2|52=20250606-00:03:59.136|56=EXCHANGE|10=150|8=FIX.4.4|9=60|35=0|34=25|49=IRISPAR2|52=20250606-00:04:09.136|56=EXCHANGE|10=147|8=FIX.4.4|9=60|35=0|34=26|49=IRISPAR2|52=20250606-00:04:19.136|56=EXCHANGE|10=149|8=FIX.4.4|9=60|35=0|34=27|49=IRISPAR2|52=20250606-00:04:29.136|56=EXCHANGE|10=151|8=FIX.4.4|9=60|35=0|34=28|49=IRISPAR2|52=20250606-00:04:39.137|56=EXCHANGE|10=154|8=FIX.4.4|9=60|35=0|34=29|49=IRISPAR2|52=20250606-00:04:49.137|56=EXCHANGE|10=156|8=FIX.4.4|9=60|35=0|34=30|49=IRISPAR2|52=20250606-00:04:59.137|56=EXCHANGE|10=149|8=FIX.4.4|9=60|35=0|34=31|49=IRISPAR2|52=20250606-00:05:09.137|56=EXCHANGE|10=146|8=FIX.4.4|9=60|35=0|34=32|49=IRISPAR2|52=20250606-00:05:19.137|56=EXCHANGE|10=148|8=FIX.4.4|9=60|35=0|34=33|49=IRISPAR2|52=20250606-00:05:29.137|56=EXCHANGE|10=150|8=FIX.4.4|9=60|35=0|34=34|49=IRISPAR2|52=20250606-00:05:39.138|56=EXCHANGE|10=153|8=FIX.4.4|9=60|35=0|34=35|49=IRISPAR2|52=20250606-00:05:49.138|56=EXCHANGE|10=155|8=FIX.4.4|9=60|35=0|34=36|49=IRISPAR2|52=20250606-00:05:59.138|56=EXCHANGE|10=157|8=FIX.4.4|9=60|35=0|34=37|49=IRISPAR2|52=20250606-00:06:09.138|56=EXCHANGE|10=154|8=FIX.4.4|9=60|35=0|34=38|49=IRISPAR2|52=20250606-00:06:19.138|56=EXCHANGE|10=156|8=FIX.4.4|9=60|35=0|34=39|49=IRISPAR2|52=20250606-00:06:29.138|56=EXCHANGE|10=158|8=FIX.4.4|9=60|35=0|34=40|49=IRISPAR2|52=20250606-00:06:39.138|56=EXCHANGE|10=151|8=FIX.4.4|9=60|35=0|34=41|49=IRISPAR2|52=20250606-00:06:49.139|56=EXCHANGE|10=154|8=FIX.4.4|9=60|35=0|34=42|49=IRISPAR2|52=20250606-00:06:59.139|56=EXCHANGE|10=156|8=FIX.4.4|9=60|35=0|34=43|49=IRISPAR2|52=20250606-00:07:09.139|56=EXCHANGE|10=153|8=FIX.4.4|9=60|35=0|34=44|49=IRISPAR2|52=20250606-00:07:19.139|56=EXCHANGE|10=155|8=FIX.4.4|9=60|35=0|34=45|49=IRISPAR2|52=20250606-00:07:29.139|56=EXCHANGE|10=157|8=FIX.4.4|9=60|35=0|34=46|49=IRISPAR2|52=20250606-00:07:39.139|56=EXCHANGE|10=159|8=FIX.4.4|9=60|35=0|34=47|49=IRISPAR2|52=20250606-00:07:49.139|56=EXCHANGE|10=161|8=FIX.4.4|9=60|35=0|34=48|49=IRISPAR2|52=20250606-00:07:59.139|56=EXCHANGE|10=163|8=FIX.4.4|9=60|35=0|34=49|49=IRISPAR2|52=20250606-00:08:09.139|56=EXCHANGE|10=160|8=FIX.4.4|9=60|35=0|34=50|49=IRISPAR2|52=20250606-00:08:19.140|56=EXCHANGE|10=145|8=FIX.4.4|9=60|35=0|34=51|49=IRISPAR2|52=20250606-00:08:29.140|56=EXCHANGE|10=147|8=FIX.4.4|9=60|35=0|34=52|49=IRISPAR2|52=20250606-00:08:39.140|56=EXCHANGE|10=149|8=FIX.4.4|9=60|35=0|34=53|49=IRISPAR2|52=20250606-00:08:49.140|56=EXCHANGE|10=151|8=FIX.4.4|9=60|35=0|34=54|49=IRISPAR2|52=20250606-00:08:59.140|56=EXCHANGE|10=153|8=FIX.4.4|9=60|35=0|34=55|49=IRISPAR2|52=20250606-00:09:09.140|56=EXCHANGE|10=150|8=FIX.4.4|9=60|35=0|34=56|49=IRISPAR2|52=20250606-00:09:19.140|56=EXCHANGE|10=152|8=FIX.4.4|9=60|35=0|34=57|49=IRISPAR2|52=20250606-00:09:29.140|56=EXCHANGE|10=154|8=FIX.4.4|9=60|35=0|34=58|49=IRISPAR2|52=20250606-00:09:39.140|56=EXCHANGE|10=156|8=FIX.4.4|9=60|35=0|34=59|49=IRISPAR2|52=20250606-00:09:49.140|56=EXCHANGE|10=158|8=FIX.4.4|9=60|35=0|34=60|49=IRISPAR2|52=20250606-00:09:59.141|56=EXCHANGE|10=152|8=FIX.4.4|9=60|35=0|34=61|49=IRISPAR2|52=20250606-00:10:09.141|56=EXCHANGE|10=140|8=FIX.4.4|9=60|35=0|34=62|49=IRISPAR2|52=20250606-00:10:19.141|56=EXCHANGE|10=142|8=FIX.4.4|9=60|35=0|34=63|49=IRISPAR2|52=20250606-00:10:29.141|56=EXCHANGE|10=144|8=FIX.4.4|9=60|35=0|34=64|49=IRISPAR2|52=20250606-00:10:39.141|56=EXCHANGE|10=146|8=FIX.4.4|9=60|35=0|34=65|49=IRISPAR2|52=20250606-00:10:49.141|56=EXCHANGE|10=148|8=FIX.4.4|9=60|35=0|34=66|49=IRISPAR2|52=20250606-00:10:59.141|56=EXCHANGE|10=150|8=FIX.4.4|9=60|35=0|34=67|49=IRISPAR2|52=20250606-00:11:09.141|56=EXCHANGE|10=147|8=FIX.4.4|9=60|35=0|34=68|49=IRISPAR2|52=20250606-00:11:19.141|56=EXCHANGE|10=149|8=FIX.4.4|9=60|35=0|34=69|49=IRISPAR2|52=20250606-00:11:29.142|56=EXCHANGE|10=152|8=FIX.4.4|9=60|35=0|34=70|49=IRISPAR2|52=20250606-00:11:39.142|56=EXCHANGE|10=145|8=FIX.4.4|9=60|35=0|34=71|49=IRISPAR2|52=20250606-00:11:49.142|56=EXCHANGE|10=147|8=FIX.4.4|9=60|35=0|34=72|49=IRISPAR2|52=20250606-00:11:59.142|56=EXCHANGE|10=149|8=FIX.4.4|9=60|35=0|34=73|49=IRISPAR2|52=20250606-00:12:09.142|56=EXCHANGE|10=146|8=FIX.4.4|9=60|35=0|34=74|49=IRISPAR2|52=20250606-00:12:19.142|56=EXCHANGE|10=148|8=FIX.4.4|9=60|35=0|34=75|49=IRISPAR2|52=20250606-00:12:29.142|56=EXCHANGE|10=150|8=FIX.4.4|9=60|35=0|34=76|49=IRISPAR2|52=20250606-00:12:39.142|56=EXCHANGE|10=152|8=FIX.4.4|9=60|35=0|34=77|49=IRISPAR2|52=20250606-00:12:49.142|56=EXCHANGE|10=154|8=FIX.4.4|9=60|35=0|34=78|49=IRISPAR2|52=20250606-00:12:59.143|56=EXCHANGE|10=157|8=FIX.4.4|9=60|35=0|34=79|49=IRISPAR2|52=20250606-00:13:09.143|56=EXCHANGE|10=154|8=FIX.4.4|9=60|35=0|34=80|49=IRISPAR2|52=20250606-00:13:19.143|56=EXCHANGE|10=147|8=FIX.4.4|9=60|35=0|34=81|49=IRISPAR2|52=20250606-00:13:29.143|56=EXCHANGE|10=149|8=FIX.4.4|9=60|35=0|34=82|49=IRISPAR2|52=20250606-00:13:39.143|56=EXCHANGE|10=151|8=FIX.4.4|9=60|35=0|34=83|49=IRISPAR2|52=20250606-00:13:49.143|56=EXCHANGE|10=153|8=FIX.4.4|9=60|35=0|34=84|49=IRISPAR2|52=20250606-00:13:59.143|56=EXCHANGE|10=155|8=FIX.4.4|9=60|35=0|34=85|49=IRISPAR2|52=20250606-00:14:09.143|56=EXCHANGE|10=152|8=FIX.4.4|9=60|35=0|34=86|49=IRISPAR2|52=20250606-00:14:19.143|56=EXCHANGE|10=154|8=FIX.4.4|9=60|35=0|34=87|49=IRISPAR2|52=20250606-00:14:29.144|56=EXCHANGE|10=157|8=FIX.4.4|9=60|35=0|34=88|49=IRISPAR2|52=20250606-00:14:39.144|56=EXCHANGE|10=159|8=FIX.4.4|9=60|35=0|34=89|49=IRISPAR2|52=20250606-00:14:49.144|56=EXCHANGE|10=161|8=FIX.4.4|9=60|35=0|34=90|49=IRISPAR2|52=20250606-00:14:59.144|56=EXCHANGE|10=154|8=FIX.4.4|9=60|35=0|34=91|49=IRISPAR2|52=20250606-00:15:09.144|56=EXCHANGE|10=151|8=FIX.4.4|9=60|35=0|34=92|49=IRISPAR2|52=20250606-00:15:19.144|56=EXCHANGE|10=153|8=FIX.4.4|9=60|35=0|34=93|49=IRISPAR2|52=20250606-00:15:29.144|56=EXCHANGE|10=155|8=FIX.4.4|9=60|35=0|34=94|49=IRISPAR2|52=20250606-00:15:39.144|56=EXCHANGE|10=157|8=FIX.4.4|9=60|35=0|34=95|49=IRISPAR2|52=20250606-00:15:49.145|56=EXCHANGE|10=160|8=FIX.4.4|9=60|35=0|34=96|49=IRISPAR2|52=20250606-00:15:59.145|56=EXCHANGE|10=162|8=FIX.4.4|9=60|35=0|34=97|49=IRISPAR2|52=20250606-00:16:09.145|56=EXCHANGE|10=159|8=FIX.4.4|9=60|35=0|34=98|49=IRISPAR2|52=20250606-00:16:19.145|56=EXCHANGE|10=161|8=FIX.4.4|9=60|35=0|34=99|49=IRISPAR2|52=20250606-00:16:29.145|56=EXCHANGE|10=163|8=FIX.4.4|9=61|35=0|34=100|49=IRISPAR2|52=20250606-00:16:39.145|56=EXCHANGE|10=196|8=FIX.4.4|9=61|35=0|34=101|49=IRISPAR2|52=20250606-00:16:49.145|56=EXCHANGE|10=198|8=FIX.4.4|9=61|35=0|34=102|49=IRISPAR2|52=20250606-00:16:59.145|56=EXCHANGE|10=200|8=FIX.4.4|9=61|35=0|34=103|49=IRISPAR2|52=20250606-00:17:09.145|56=EXCHANGE|10=197|8=FIX.4.4|9=61|35=0|34=104|49=IRISPAR2|52=20250606-00:17:19.146|56=EXCHANGE|10=200|8=FIX.4.4|9=61|35=0|34=105|49=IRISPAR2|52=20250606-00:17:29.146|56=EXCHANGE|10=202|8=FIX.4.4|9=61|35=0|34=106|49=IRISPAR2|52=20250606-00:17:39.146|56=EXCHANGE|10=204|8=FIX.4.4|9=61|35=0|34=107|49=IRISPAR2|52=20250606-00:17:49.146|56=EXCHANGE|10=206|8=FIX.4.4|9=61|35=0|34=108|49=IRISPAR2|52=20250606-00:17:59.146|56=EXCHANGE|10=208|8=FIX.4.4|9=61|35=0|34=109|49=IRISPAR2|52=20250606-00:18:09.146|56=EXCHANGE|10=205|8=FIX.4.4|9=61|35=0|34=110|49=IRISPAR2|52=20250606-00:18:19.146|56=EXCHANGE|10=198|8=FIX.4.4|9=61|35=0|34=111|49=IRISPAR2|52=20250606-00:18:29.146|56=EXCHANGE|10=200|8=FIX.4.4|9=61|35=0|34=112|49=IRISPAR2|52=20250606-00:18:39.146|56=EXCHANGE|10=202|8=FIX.4.4|9=61|35=0|34=113|49=IRISPAR2|52=20250606-00:18:49.147|56=EXCHANGE|10=205|8=FIX.4.4|9=61|35=0|34=114|49=IRISPAR2|52=20250606-00:18:59.147|56=EXCHANGE|10=207|8=FIX.4.4|9=61|35=0|34=115|49=IRISPAR2|52=20250606-00:19:09.147|56=EXCHANGE|10=204|8=FIX.4.4|9=61|35=0|34=116|49=IRISPAR2|52=20250606-00:19:19.147|56=EXCHANGE|10=206|8=FIX.4.4|9=61|35=0|34=117|49=IRISPAR2|52=20250606-00:19:29.147|56=EXCHANGE|10=208|8=FIX.4.4|9=61|35=0|34=118|49=IRISPAR2|52=20250606-00:19:39.147|56=EXCHANGE|10=210|8=FIX.4.4|9=61|35=0|34=119|49=IRISPAR2|52=20250606-00:19:49.147|56=EXCHANGE|10=212|8=FIX.4.4|9=61|35=0|34=120|49=IRISPAR2|52=20250606-00:19:59.147|56=EXCHANGE|10=205|8=FIX.4.4|9=61|35=0|34=121|49=IRISPAR2|52=20250606-00:20:09.148|56=EXCHANGE|10=194|8=FIX.4.4|9=61|35=0|34=122|49=IRISPAR2|52=20250606-00:20:19.148|56=EXCHANGE|10=196|8=FIX.4.4|9=61|35=0|34=123|49=IRISPAR2|52=20250606-00:20:29.148|56=EXCHANGE|10=198|8=FIX.4.4|9=61|35=0|34=124|49=IRISPAR2|52=20250606-00:20:39.148|56=EXCHANGE|10=200|8=FIX.4.4|9=61|35=0|34=125|49=IRISPAR2|52=20250606-00:20:49.148|56=EXCHANGE|10=202|8=FIX.4.4|9=61|35=0|34=126|49=IRISPAR2|52=20250606-00:20:59.148|56=EXCHANGE|10=204|8=FIX.4.4|9=61|35=0|34=127|49=IRISPAR2|52=20250606-00:21:09.148|56=EXCHANGE|10=201|8=FIX.4.4|9=61|35=0|34=128|49=IRISPAR2|52=20250606-00:21:19.148|56=EXCHANGE|10=203|8=FIX.4.4|9=61|35=0|34=129|49=IRISPAR2|52=20250606-00:21:29.148|56=EXCHANGE|10=205|8=FIX.4.4|9=61|35=0|34=130|49=IRISPAR2|52=20250606-00:21:39.149|56=EXCHANGE|10=199|8=FIX.4.4|9=61|35=0|34=131|49=IRISPAR2|52=20250606-00:21:49.149|56=EXCHANGE|10=201|8=FIX.4.4|9=61|35=0|34=132|49=IRISPAR2|52=20250606-00:21:59.149|56=EXCHANGE|10=203|8=FIX.4.4|9=61|35=0|34=133|49=IRISPAR2|52=20250606-00:22:09.149|56=EXCHANGE|10=200|8=FIX.4.4|9=61|35=0|34=134|49=IRISPAR2|52=20250606-00:22:19.149|56=EXCHANGE|10=202|8=FIX.4.4|9=61|35=0|34=135|49=IRISPAR2|52=20250606-00:22:29.149|56=EXCHANGE|10=204|8=FIX.4.4|9=61|35=0|34=136|49=IRISPAR2|52=20250606-00:22:39.149|56=EXCHANGE|10=206|8=FIX.4.4|9=61|35=0|34=137|49=IRISPAR2|52=20250606-00:22:49.150|56=EXCHANGE|10=200|8=FIX.4.4|9=61|35=0|34=138|49=IRISPAR2|52=20250606-00:22:59.150|56=EXCHANGE|10=202|8=FIX.4.4|9=61|35=0|34=139|49=IRISPAR2|52=20250606-00:23:09.150|56=EXCHANGE|10=199|8=FIX.4.4|9=61|35=0|34=140|49=IRISPAR2|52=20250606-00:23:19.150|56=EXCHANGE|10=192|8=FIX.4.4|9=61|35=0|34=141|49=IRISPAR2|52=20250606-00:23:29.150|56=EXCHANGE|10=194|8=FIX.4.4|9=61|35=0|34=142|49=IRISPAR2|52=20250606-00:23:39.150|56=EXCHANGE|10=196|8=FIX.4.4|9=61|35=0|34=143|49=IRISPAR2|52=20250606-00:23:49.150|56=EXCHANGE|10=198|8=FIX.4.4|9=61|35=0|34=144|49=IRISPAR2|52=20250606-00:23:59.151|56=EXCHANGE|10=201|8=FIX.4.4|9=61|35=0|34=145|49=IRISPAR2|52=20250606-00:24:09.151|56=EXCHANGE|10=198|8=FIX.4.4|9=61|35=0|34=146|49=IRISPAR2|52=20250606-00:24:19.151|56=EXCHANGE|10=200|8=FIX.4.4|9=61|35=0|34=147|49=IRISPAR2|52=20250606-00:24:29.151|56=EXCHANGE|10=202|8=FIX.4.4|9=61|35=0|34=148|49=IRISPAR2|52=20250606-00:24:39.151|56=EXCHANGE|10=204|8=FIX.4.4|9=61|35=0|34=149|49=IRISPAR2|52=20250606-00:24:49.151|56=EXCHANGE|10=206|8=FIX.4.4|9=61|35=0|34=150|49=IRISPAR2|52=20250606-00:24:59.151|56=EXCHANGE|10=199|8=FIX.4.4|9=61|35=0|34=151|49=IRISPAR2|52=20250606-00:25:09.152|56=EXCHANGE|10=197|8=FIX.4.4|9=61|35=0|34=152|49=IRISPAR2|52=20250606-00:25:19.152|56=EXCHANGE|10=199|8=FIX.4.4|9=61|35=0|34=153|49=IRISPAR2|52=20250606-00:25:29.152|56=EXCHANGE|10=201|8=FIX.4.4|9=61|35=0|34=154|49=IRISPAR2|52=20250606-00:25:39.152|56=EXCHANGE|10=203|8=FIX.4.4|9=61|35=0|34=155|49=IRISPAR2|52=20250606-00:25:49.152|56=EXCHANGE|10=205|8=FIX.4.4|9=61|35=0|34=156|49=IRISPAR2|52=20250606-00:25:59.152|56=EXCHANGE|10=207|8=FIX.4.4|9=61|35=0|34=157|49=IRISPAR2|52=20250606-00:26:09.152|56=EXCHANGE|10=204|8=FIX.4.4|9=61|35=0|34=158|49=IRISPAR2|52=20250606-00:26:19.152|56=EXCHANGE|10=206|8=FIX.4.4|9=61|35=0|34=159|49=IRISPAR2|52=20250606-00:26:29.152|56=EXCHANGE|10=208|8=FIX.4.4|9=61|35=0|34=160|49=IRISPAR2|52=20250606-00:26:39.153|56=EXCHANGE|10=202|8=FIX.4.4|9=61|35=0|34=161|49=IRISPAR2|52=20250606-00:26:49.153|56=EXCHANGE|10=204|8=FIX.4.4|9=61|35=0|34=162|49=IRISPAR2|52=20250606-00:26:59.153|56=EXCHANGE|10=206|8=FIX.4.4|9=61|35=0|34=163|49=IRISPAR2|52=20250606-00:27:09.153|56=EXCHANGE|10=203|8=FIX.4.4|9=61|35=0|34=164|49=IRISPAR2|52=20250606-00:27:19.153|56=EXCHANGE|10=205|8=FIX.4.4|9=61|35=0|34=165|49=IRISPAR2|52=20250606-00:27:29.153|56=EXCHANGE|10=207|8=FIX.4.4|9=61|35=0|34=166|49=IRISPAR2|52=20250606-00:27:39.153|56=EXCHANGE|10=209|8=FIX.4.4|9=61|35=0|34=167|49=IRISPAR2|52=20250606-00:27:49.153|56=EXCHANGE|10=211|8=FIX.4.4|9=61|35=0|34=168|49=IRISPAR2|52=20250606-00:27:59.153|56=EXCHANGE|10=213|8=FIX.4.4|9=61|35=0|34=169|49=IRISPAR2|52=20250606-00:28:09.154|56=EXCHANGE|10=211|8=FIX.4.4|9=61|35=0|34=170|49=IRISPAR2|52=20250606-00:28:19.154|56=EXCHANGE|10=204|8=FIX.4.4|9=61|35=0|34=171|49=IRISPAR2|52=20250606-00:28:29.154|56=EXCHANGE|10=206|8=FIX.4.4|9=61|35=0|34=172|49=IRISPAR2|52=20250606-00:28:39.154|56=EXCHANGE|10=208|8=FIX.4.4|9=61|35=0|34=173|49=IRISPAR2|52=20250606-00:28:49.154|56=EXCHANGE|10=210|8=FIX.4.4|9=61|35=0|34=174|49=IRISPAR2|52=20250606-00:28:59.154|56=EXCHANGE|10=212|8=FIX.4.4|9=61|35=0|34=175|49=IRISPAR2|52=20250606-00:29:09.154|56=EXCHANGE|10=209|8=FIX.4.4|9=61|35=0|34=176|49=IRISPAR2|52=20250606-00:29:19.154|56=EXCHANGE|10=211|8=FIX.4.4|9=61|35=0|34=177|49=IRISPAR2|52=20250606-00:29:29.154|56=EXCHANGE|10=213|8=FIX.4.4|9=61|35=0|34=178|49=IRISPAR2|52=20250606-00:29:39.154|56=EXCHANGE|10=215|8=FIX.4.4|9=61|35=0|34=179|49=IRISPAR2|52=20250606-00:29:49.155|56=EXCHANGE|10=218|8=FIX.4.4|9=61|35=0|34=180|49=IRISPAR2|52=20250606-00:29:59.155|56=EXCHANGE|10=211|8=FIX.4.4|9=61|35=0|34=181|49=IRISPAR2|52=20250606-00:30:09.155|56=EXCHANGE|10=199|8=FIX.4.4|9=61|35=0|34=182|49=IRISPAR2|52=20250606-00:30:19.155|56=EXCHANGE|10=201|8=FIX.4.4|9=61|35=0|34=183|49=IRISPAR2|52=20250606-00:30:29.155|56=EXCHANGE|10=203|8=FIX.4.4|9=61|35=0|34=184|49=IRISPAR2|52=20250606-00:30:39.155|56=EXCHANGE|10=205|8=FIX.4.4|9=61|35=0|34=185|49=IRISPAR2|52=20250606-00:30:49.155|56=EXCHANGE|10=207|8=FIX.4.4|9=61|35=0|34=186|49=IRISPAR2|52=20250606-00:30:59.155|56=EXCHANGE|10=209|8=FIX.4.4|9=61|35=0|34=187|49=IRISPAR2|52=20250606-00:31:09.156|56=EXCHANGE|10=207|8=FIX.4.4|9=61|35=0|34=188|49=IRISPAR2|52=20250606-00:31:19.156|56=EXCHANGE|10=209|8=FIX.4.4|9=61|35=0|34=189|49=IRISPAR2|52=20250606-00:31:29.156|56=EXCHANGE|10=211|8=FIX.4.4|9=61|35=0|34=190|49=IRISPAR2|52=20250606-00:31:39.156|56=EXCHANGE|10=204|8=FIX.4.4|9=61|35=0|34=191|49=IRISPAR2|52=20250606-00:31:49.156|56=EXCHANGE|10=206|8=FIX.4.4|9=61|35=0|34=192|49=IRISPAR2|52=20250606-00:31:59.156|56=EXCHANGE|10=208|8=FIX.4.4|9=61|35=0|34=193|49=IRISPAR2|52=20250606-00:32:09.156|56=EXCHANGE|10=205|8=FIX.4.4|9=61|35=0|34=194|49=IRISPAR2|52=20250606-00:32:19.156|56=EXCHANGE|10=207|8=FIX.4.4|9=61|35=0|34=195|49=IRISPAR2|52=20250606-00:32:29.157|56=EXCHANGE|10=210|8=FIX.4.4|9=61|35=0|34=196|49=IRISPAR2|52=20250606-00:32:39.157|56=EXCHANGE|10=212|8=FIX.4.4|9=61|35=0|34=197|49=IRISPAR2|52=20250606-00:32:49.157|56=EXCHANGE|10=214|8=FIX.4.4|9=61|35=0|34=198|49=IRISPAR2|52=20250606-00:32:59.157|56=EXCHANGE|10=216|8=FIX.4.4|9=61|35=0|34=199|49=IRISPAR2|52=20250606-00:33:09.157|56=EXCHANGE|10=213|8=FIX.4.4|9=61|35=0|34=200|49=IRISPAR2|52=20250606-00:33:19.157|56=EXCHANGE|10=197|8=FIX.4.4|9=61|35=0|34=201|49=IRISPAR2|52=20250606-00:33:29.157|56=EXCHANGE|10=199|8=FIX.4.4|9=61|35=0|34=202|49=IRISPAR2|52=20250606-00:33:39.157|56=EXCHANGE|10=201|8=FIX.4.4|9=61|35=0|34=203|49=IRISPAR2|52=20250606-00:33:49.157|56=EXCHANGE|10=203|8=FIX.4.4|9=61|35=0|34=204|49=IRISPAR2|52=20250606-00:33:59.158|56=EXCHANGE|10=206|8=FIX.4.4|9=61|35=0|34=205|49=IRISPAR2|52=20250606-00:34:09.158|56=EXCHANGE|10=203|8=FIX.4.4|9=61|35=0|34=206|49=IRISPAR2|52=20250606-00:34:19.158|56=EXCHANGE|10=205|8=FIX.4.4|9=61|35=0|34=207|49=IRISPAR2|52=20250606-00:34:29.158|56=EXCHANGE|10=207|8=FIX.4.4|9=61|35=0|34=208|49=IRISPAR2|52=20250606-00:34:39.158|56=EXCHANGE|10=209|8=FIX.4.4|9=61|35=0|34=209|49=IRISPAR2|52=20250606-00:34:49.158|56=EXCHANGE|10=211|8=FIX.4.4|9=61|35=0|34=210|49=IRISPAR2|52=20250606-00:34:59.158|56=EXCHANGE|10=204|8=FIX.4.4|9=61|35=0|34=211|49=IRISPAR2|52=20250606-00:35:09.158|56=EXCHANGE|10=201|8=FIX.4.4|9=61|35=0|34=212|49=IRISPAR2|52=20250606-00:35:19.158|56=EXCHANGE|10=203|8=FIX.4.4|9=61|35=0|34=213|49=IRISPAR2|52=20250606-00:35:29.159|56=EXCHANGE|10=206|8=FIX.4.4|9=61|35=0|34=214|49=IRISPAR2|52=20250606-00:35:39.159|56=EXCHANGE|10=208|8=FIX.4.4|9=61|35=0|34=215|49=IRISPAR2|52=20250606-00:35:49.159|56=EXCHANGE|10=210|8=FIX.4.4|9=61|35=0|34=216|49=IRISPAR2|52=20250606-00:35:59.159|56=EXCHANGE|10=212|8=FIX.4.4|9=61|35=0|34=217|49=IRISPAR2|52=20250606-00:36:09.159|56=EXCHANGE|10=209|8=FIX.4.4|9=61|35=0|34=218|49=IRISPAR2|52=20250606-00:36:19.159|56=EXCHANGE|10=211|8=FIX.4.4|9=61|35=0|34=219|49=IRISPAR2|52=20250606-00:36:29.159|56=EXCHANGE|10=213|8=FIX.4.4|9=61|35=0|34=220|49=IRISPAR2|52=20250606-00:36:39.159|56=EXCHANGE|10=206|8=FIX.4.4|9=61|35=0|34=221|49=IRISPAR2|52=20250606-00:36:49.160|56=EXCHANGE|10=200|8=FIX.4.4|9=61|35=0|34=222|49=IRISPAR2|52=20250606-00:36:59.160|56=EXCHANGE|10=202|8=FIX.4.4|9=61|35=0|34=223|49=IRISPAR2|52=20250606-00:37:09.160|56=EXCHANGE|10=199|8=FIX.4.4|9=61|35=0|34=224|49=IRISPAR2|52=20250606-00:37:19.160|56=EXCHANGE|10=201|8=FIX.4.4|9=61|35=0|34=225|49=IRISPAR2|52=20250606-00:37:29.160|56=EXCHANGE|10=203|8=FIX.4.4|9=61|35=0|34=226|49=IRISPAR2|52=20250606-00:37:39.160|56=EXCHANGE|10=205|8=FIX.4.4|9=61|35=0|34=227|49=IRISPAR2|52=20250606-00:37:49.160|56=EXCHANGE|10=207|8=FIX.4.4|9=61|35=0|34=228|49=IRISPAR2|52=20250606-00:37:59.160|56=EXCHANGE|10=209|8=FIX.4.4|9=61|35=0|34=229|49=IRISPAR2|52=20250606-00:38:09.160|56=EXCHANGE|10=206|8=FIX.4.4|9=61|35=0|34=230|49=IRISPAR2|52=20250606-00:38:19.161|56=EXCHANGE|10=200|8=FIX.4.4|9=61|35=0|34=231|49=IRISPAR2|52=20250606-00:38:29.161|56=EXCHANGE|10=202|8=FIX.4.4|9=61|35=0|34=232|49=IRISPAR2|52=20250606-00:38:39.161|56=EXCHANGE|10=204|8=FIX.4.4|9=61|35=0|34=233|49=IRISPAR2|52=20250606-00:38:49.161|56=EXCHANGE|10=206|8=FIX.4.4|9=61|35=0|34=234|49=IRISPAR2|52=20250606-00:38:59.161|56=EXCHANGE|10=208|8=FIX.4.4|9=61|35=0|34=235|49=IRISPAR2|52=20250606-00:39:09.161|56=EXCHANGE|10=205|8=FIX.4.4|9=61|35=0|34=236|49=IRISPAR2|52=20250606-00:39:19.161|56=EXCHANGE|10=207|8=FIX.4.4|9=61|35=0|34=237|49=IRISPAR2|52=20250606-00:39:29.161|56=EXCHANGE|10=209|8=FIX.4.4|9=61|35=0|34=238|49=IRISPAR2|52=20250606-00:39:39.161|56=EXCHANGE|10=211|8=FIX.4.4|9=61|35=0|34=239|49=IRISPAR2|52=20250606-00:39:49.162|56=EXCHANGE|10=214|8=FIX.4.4|9=61|35=0|34=240|49=IRISPAR2|52=20250606-00:39:59.162|56=EXCHANGE|10=207|8=FIX.4.4|9=61|35=0|34=241|49=IRISPAR2|52=20250606-00:40:09.162|56=EXCHANGE|10=195|8=FIX.4.4|9=61|35=0|34=242|49=IRISPAR2|52=20250606-00:40:19.162|56=EXCHANGE|10=197|8=FIX.4.4|9=61|35=0|34=243|49=IRISPAR2|52=20250606-00:40:29.162|56=EXCHANGE|10=199|8=FIX.4.4|9=61|35=0|34=244|49=IRISPAR2|52=20250606-00:40:39.162|56=EXCHANGE|10=201|8=FIX.4.4|9=61|35=0|34=245|49=IRISPAR2|52=20250606-00:40:49.162|56=EXCHANGE|10=203|8=FIX.4.4|9=61|35=0|34=246|49=IRISPAR2|52=20250606-00:40:59.162|56=EXCHANGE|10=205|8=FIX.4.4|9=61|35=0|34=247|49=IRISPAR2|52=20250606-00:41:09.162|56=EXCHANGE|10=202|8=FIX.4.4|9=61|35=0|34=248|49=IRISPAR2|52=20250606-00:41:19.163|56=EXCHANGE|10=205|8=FIX.4.4|9=61|35=0|34=249|49=IRISPAR2|52=20250606-00:41:29.163|56=EXCHANGE|10=207|8=FIX.4.4|9=61|35=0|34=250|49=IRISPAR2|52=20250606-00:41:39.163|56=EXCHANGE|10=200|8=FIX.4.4|9=61|35=0|34=251|49=IRISPAR2|52=20250606-00:41:49.163|56=EXCHANGE|10=202|8=FIX.4.4|9=61|35=0|34=252|49=IRISPAR2|52=20250606-00:41:59.163|56=EXCHANGE|10=204|8=FIX.4.4|9=61|35=0|34=253|49=IRISPAR2|52=20250606-00:42:09.163|56=EXCHANGE|10=201|8=FIX.4.4|9=61|35=0|34=254|49=IRISPAR2|52=20250606-00:42:19.163|56=EXCHANGE|10=203|8=FIX.4.4|9=61|35=0|34=255|49=IRISPAR2|52=20250606-00:42:29.163|56=EXCHANGE|10=205|8=FIX.4.4|9=61|35=0|34=256|49=IRISPAR2|52=20250606-00:42:39.164|56=EXCHANGE|10=208|8=FIX.4.4|9=61|35=0|34=257|49=IRISPAR2|52=20250606-00:42:49.164|56=EXCHANGE|10=210|8=FIX.4.4|9=61|35=0|34=258|49=IRISPAR2|52=20250606-00:42:59.164|56=EXCHANGE|10=212|8=FIX.4.4|9=61|35=0|34=259|49=IRISPAR2|52=20250606-00:43:09.164|56=EXCHANGE|10=209|8=FIX.4.4|9=61|35=0|34=260|49=IRISPAR2|52=20250606-00:43:19.164|56=EXCHANGE|10=202|8=FIX.4.4|9=61|35=0|34=261|49=IRISPAR2|52=20250606-00:43:29.164|56=EXCHANGE|10=204|8=FIX.4.4|9=61|35=0|34=262|49=IRISPAR2|52=20250606-00:43:39.164|56=EXCHANGE|10=206|8=FIX.4.4|9=61|35=0|34=263|49=IRISPAR2|52=20250606-00:43:49.165|56=EXCHANGE|10=209|8=FIX.4.4|9=61|35=0|34=264|49=IRISPAR2|52=20250606-00:43:59.165|56=EXCHANGE|10=211|8=FIX.4.4|9=61|35=0|34=265|49=IRISPAR2|52=20250606-00:44:09.165|56=EXCHANGE|10=208|8=FIX.4.4|9=61|35=0|34=266|49=IRISPAR2|52=20250606-00:44:19.165|56=EXCHANGE|10=210|8=FIX.4.4|9=61|35=0|34=267|49=IRISPAR2|52=20250606-00:44:29.165|56=EXCHANGE|10=212|8=FIX.4.4|9=61|35=0|34=268|49=IRISPAR2|52=20250606-00:44:39.165|56=EXCHANGE|10=214|8=FIX.4.4|9=61|35=0|34=269|49=IRISPAR2|52=20250606-00:44:49.165|56=EXCHANGE|10=216|8=FIX.4.4|9=61|35=0|34=270|49=IRISPAR2|52=20250606-00:44:59.166|56=EXCHANGE|10=210|8=FIX.4.4|9=61|35=0|34=271|49=IRISPAR2|52=20250606-00:45:09.166|56=EXCHANGE|10=207|8=FIX.4.4|9=61|35=0|34=272|49=IRISPAR2|52=20250606-00:45:19.166|56=EXCHANGE|10=209|8=FIX.4.4|9=61|35=0|34=273|49=IRISPAR2|52=20250606-00:45:29.166|56=EXCHANGE|10=211|8=FIX.4.4|9=61|35=0|34=274|49=IRISPAR2|52=20250606-00:45:39.166|56=EXCHANGE|10=213|8=FIX.4.4|9=61|35=0|34=275|49=IRISPAR2|52=20250606-00:45:49.166|56=EXCHANGE|10=215|8=FIX.4.4|9=61|35=0|34=276|49=IRISPAR2|52=20250606-00:45:59.166|56=EXCHANGE|10=217|8=FIX.4.4|9=61|35=0|34=277|49=IRISPAR2|52=20250606-00:46:09.166|56=EXCHANGE|10=214|8=FIX.4.4|9=61|35=0|34=278|49=IRISPAR2|52=20250606-00:46:19.166|56=EXCHANGE|10=216|8=FIX.4.4|9=61|35=0|34=279|49=IRISPAR2|52=20250606-00:46:29.166|56=EXCHANGE|10=218|8=FIX.4.4|9=61|35=0|34=280|49=IRISPAR2|52=20250606-00:46:39.166|56=EXCHANGE|10=211|8=FIX.4.4|9=61|35=0|34=281|49=IRISPAR2|52=20250606-00:46:49.167|56=EXCHANGE|10=214|8=FIX.4.4|9=61|35=0|34=282|49=IRISPAR2|52=20250606-00:46:59.167|56=EXCHANGE|10=216|8=FIX.4.4|9=61|35=0|34=283|49=IRISPAR2|52=20250606-00:47:09.167|56=EXCHANGE|10=213|8=FIX.4.4|9=61|35=0|34=284|49=IRISPAR2|52=20250606-00:47:19.167|56=EXCHANGE|10=215|8=FIX.4.4|9=61|35=0|34=285|49=IRISPAR2|52=20250606-00:47:29.167|56=EXCHANGE|10=217|8=FIX.4.4|9=61|35=0|34=286|49=IRISPAR2|52=20250606-00:47:39.167|56=EXCHANGE|10=219|8=FIX.4.4|9=61|35=0|34=287|49=IRISPAR2|52=20250606-00:47:49.167|56=EXCHANGE|10=221|8=FIX.4.4|9=61|35=0|34=288|49=IRISPAR2|52=20250606-00:47:59.168|56=EXCHANGE|10=224|8=FIX.4.4|9=61|35=0|34=289|49=IRISPAR2|52=20250606-00:48:09.168|56=EXCHANGE|10=221|8=FIX.4.4|9=61|35=0|34=290|49=IRISPAR2|52=20250606-00:48:19.168|56=EXCHANGE|10=214|8=FIX.4.4|9=61|35=0|34=291|49=IRISPAR2|52=20250606-00:48:29.168|56=EXCHANGE|10=216|8=FIX.4.4|9=61|35=0|34=292|49=IRISPAR2|52=20250606-00:48:39.168|56=EXCHANGE|10=218|8=FIX.4.4|9=61|35=0|34=293|49=IRISPAR2|52=20250606-00:48:49.168|56=EXCHANGE|10=220|8=FIX.4.4|9=61|35=0|34=294|49=IRISPAR2|52=20250606-00:48:59.168|56=EXCHANGE|10=222|8=FIX.4.4|9=61|35=0|34=295|49=IRISPAR2|52=20250606-00:49:09.168|56=EXCHANGE|10=219|8=FIX.4.4|9=61|35=0|34=296|49=IRISPAR2|52=20250606-00:49:19.168|56=EXCHANGE|10=221|8=FIX.4.4|9=61|35=0|34=297|49=IRISPAR2|52=20250606-00:49:29.168|56=EXCHANGE|10=223|8=FIX.4.4|9=61|35=0|34=298|49=IRISPAR2|52=20250606-00:49:39.169|56=EXCHANGE|10=226|8=FIX.4.4|9=61|35=0|34=299|49=IRISPAR2|52=20250606-00:49:49.169|56=EXCHANGE|10=228|8=FIX.4.4|9=61|35=0|34=300|49=IRISPAR2|52=20250606-00:49:59.169|56=EXCHANGE|10=212|8=FIX.4.4|9=61|35=0|34=301|49=IRISPAR2|52=20250606-00:50:09.169|56=EXCHANGE|10=200|8=FIX.4.4|9=61|35=0|34=302|49=IRISPAR2|52=20250606-00:50:19.169|56=EXCHANGE|10=202|8=FIX.4.4|9=61|35=0|34=303|49=IRISPAR2|52=20250606-00:50:29.169|56=EXCHANGE|10=204|8=FIX.4.4|9=61|35=0|34=304|49=IRISPAR2|52=20250606-00:50:39.169|56=EXCHANGE|10=206|8=FIX.4.4|9=61|35=0|34=305|49=IRISPAR2|52=20250606-00:50:49.169|56=EXCHANGE|10=208|8=FIX.4.4|9=61|35=0|34=306|49=IRISPAR2|52=20250606-00:50:59.169|56=EXCHANGE|10=210|8=FIX.4.4|9=61|35=0|34=307|49=IRISPAR2|52=20250606-00:51:09.170|56=EXCHANGE|10=199|8=FIX.4.4|9=61|35=0|34=308|49=IRISPAR2|52=20250606-00:51:19.170|56=EXCHANGE|10=201|8=FIX.4.4|9=61|35=0|34=309|49=IRISPAR2|52=20250606-00:51:29.170|56=EXCHANGE|10=203|8=FIX.4.4|9=61|35=0|34=310|49=IRISPAR2|52=20250606-00:51:39.170|56=EXCHANGE|10=196|8=FIX.4.4|9=61|35=0|34=311|49=IRISPAR2|52=20250606-00:51:49.170|56=EXCHANGE|10=198|8=FIX.4.4|9=61|35=0|34=312|49=IRISPAR2|52=20250606-00:51:59.170|56=EXCHANGE|10=200|8=FIX.4.4|9=61|35=0|34=313|49=IRISPAR2|52=20250606-00:52:09.170|56=EXCHANGE|10=197|8=FIX.4.4|9=61|35=0|34=314|49=IRISPAR2|52=20250606-00:52:19.170|56=EXCHANGE|10=199|8=FIX.4.4|9=61|35=0|34=315|49=IRISPAR2|52=20250606-00:52:29.171|56=EXCHANGE|10=202|8=FIX.4.4|9=61|35=0|34=316|49=IRISPAR2|52=20250606-00:52:39.171|56=EXCHANGE|10=204|8=FIX.4.4|9=61|35=0|34=317|49=IRISPAR2|52=20250606-00:52:49.171|56=EXCHANGE|10=206|8=FIX.4.4|9=61|35=0|34=318|49=IRISPAR2|52=20250606-00:52:59.171|56=EXCHANGE|10=208|8=FIX.4.4|9=61|35=0|34=319|49=IRISPAR2|52=20250606-00:53:09.171|56=EXCHANGE|10=205|8=FIX.4.4|9=61|35=0|34=320|49=IRISPAR2|52=20250606-00:53:19.171|56=EXCHANGE|10=198|8=FIX.4.4|9=61|35=0|34=321|49=IRISPAR2|52=20250606-00:53:29.171|56=EXCHANGE|10=200|8=FIX.4.4|9=61|35=0|34=322|49=IRISPAR2|52=20250606-00:53:39.171|56=EXCHANGE|10=202|8=FIX.4.4|9=61|35=0|34=323|49=IRISPAR2|52=20250606-00:53:49.171|56=EXCHANGE|10=204|8=FIX.4.4|9=61|35=0|34=324|49=IRISPAR2|52=20250606-00:53:59.172|56=EXCHANGE|10=207|8=FIX.4.4|9=61|35=0|34=325|49=IRISPAR2|52=20250606-00:54:09.172|56=EXCHANGE|10=204|8=FIX.4.4|9=61|35=0|34=326|49=IRISPAR2|52=20250606-00:54:19.172|56=EXCHANGE|10=206|8=FIX.4.4|9=61|35=0|34=327|49=IRISPAR2|52=20250606-00:54:29.172|56=EXCHANGE|10=208|8=FIX.4.4|9=61|35=0|34=328|49=IRISPAR2|52=20250606-00:54:39.172|56=EXCHANGE|10=210|8=FIX.4.4|9=61|35=0|34=329|49=IRISPAR2|52=20250606-00:54:49.172|56=EXCHANGE|10=212|8=FIX.4.4|9=61|35=0|34=330|49=IRISPAR2|52=20250606-00:54:59.172|56=EXCHANGE|10=205|8=FIX.4.4|9=61|35=0|34=331|49=IRISPAR2|52=20250606-00:55:09.172|56=EXCHANGE|10=202|8=FIX.4.4|9=61|35=0|34=332|49=IRISPAR2|52=20250606-00:55:19.172|56=EXCHANGE|10=204|8=FIX.4.4|9=61|35=0|34=333|49=IRISPAR2|52=20250606-00:55:29.172|56=EXCHANGE|10=206|8=FIX.4.4|9=61|35=0|34=334|49=IRISPAR2|52=20250606-00:55:39.172|56=EXCHANGE|10=208|8=FIX.4.4|9=61|35=0|34=335|49=IRISPAR2|52=20250606-00:55:49.173|56=EXCHANGE|10=211|8=FIX.4.4|9=61|35=0|34=336|49=IRISPAR2|52=20250606-00:55:59.173|56=EXCHANGE|10=213|8=FIX.4.4|9=61|35=0|34=337|49=IRISPAR2|52=20250606-00:56:09.173|56=EXCHANGE|10=210|8=FIX.4.4|9=61|35=0|34=338|49=IRISPAR2|52=20250606-00:56:19.173|56=EXCHANGE|10=212|8=FIX.4.4|9=61|35=0|34=339|49=IRISPAR2|52=20250606-00:56:29.173|56=EXCHANGE|10=214|8=FIX.4.4|9=61|35=0|34=340|49=IRISPAR2|52=20250606-00:56:39.173|56=EXCHANGE|10=207|8=FIX.4.4|9=61|35=0|34=341|49=IRISPAR2|52=20250606-00:56:49.173|56=EXCHANGE|10=209|8=FIX.4.4|9=61|35=0|34=342|49=IRISPAR2|52=20250606-00:56:59.173|56=EXCHANGE|10=211|8=FIX.4.4|9=61|35=0|34=343|49=IRISPAR2|52=20250606-00:57:09.173|56=EXCHANGE|10=208|8=FIX.4.4|9=61|35=0|34=344|49=IRISPAR2|52=20250606-00:57:19.174|56=EXCHANGE|10=211|8=FIX.4.4|9=61|35=0|34=345|49=IRISPAR2|52=20250606-00:57:29.174|56=EXCHANGE|10=213|8=FIX.4.4|9=61|35=0|34=346|49=IRISPAR2|52=20250606-00:57:39.174|56=EXCHANGE|10=215|8=FIX.4.4|9=61|35=0|34=347|49=IRISPAR2|52=20250606-00:57:49.174|56=EXCHANGE|10=217|8=FIX.4.4|9=61|35=0|34=348|49=IRISPAR2|52=20250606-00:57:59.174|56=EXCHANGE|10=219|8=FIX.4.4|9=61|35=0|34=349|49=IRISPAR2|52=20250606-00:58:09.174|56=EXCHANGE|10=216|8=FIX.4.4|9=61|35=0|34=350|49=IRISPAR2|52=20250606-00:58:19.174|56=EXCHANGE|10=209|8=FIX.4.4|9=61|35=0|34=351|49=IRISPAR2|52=20250606-00:58:29.175|56=EXCHANGE|10=212|8=FIX.4.4|9=61|35=0|34=352|49=IRISPAR2|52=20250606-00:58:39.175|56=EXCHANGE|10=214|8=FIX.4.4|9=61|35=0|34=353|49=IRISPAR2|52=20250606-00:58:49.175|56=EXCHANGE|10=216|8=FIX.4.4|9=61|35=0|34=354|49=IRISPAR2|52=20250606-00:58:59.175|56=EXCHANGE|10=218|8=FIX.4.4|9=61|35=0|34=355|49=IRISPAR2|52=20250606-00:59:09.175|56=EXCHANGE|10=215|8=FIX.4.4|9=61|35=0|34=356|49=IRISPAR2|52=20250606-00:59:19.175|56=EXCHANGE|10=217|8=FIX.4.4|9=61|35=0|34=357|49=IRISPAR2|52=20250606-00:59:29.175|56=EXCHANGE|10=219|8=FIX.4.4|9=61|35=0|34=358|49=IRISPAR2|52=20250606-00:59:39.175|56=EXCHANGE|10=221|8=FIX.4.4|9=61|35=0|34=359|49=IRISPAR2|52=20250606-00:59:49.175|56=EXCHANGE|10=223|8=FIX.4.4|9=61|35=0|34=360|49=IRISPAR2|52=20250606-00:59:59.175|56=EXCHANGE|10=216|8=FIX.4.4|9=61|35=0|34=361|49=IRISPAR2|52=20250606-01:00:09.175|56=EXCHANGE|10=199|8=FIX.4.4|9=61|35=0|34=362|49=IRISPAR2|52=20250606-01:00:19.176|56=EXCHANGE|10=202|8=FIX.4.4|9=61|35=0|34=363|49=IRISPAR2|52=20250606-01:00:29.176|56=EXCHANGE|10=204|8=FIX.4.4|9=61|35=0|34=364|49=IRISPAR2|52=20250606-01:00:39.176|56=EXCHANGE|10=206|8=FIX.4.4|9=61|35=0|34=365|49=IRISPAR2|52=20250606-01:00:49.176|56=EXCHANGE|10=208|8=FIX.4.4|9=61|35=0|34=366|49=IRISPAR2|52=20250606-01:00:59.176|56=EXCHANGE|10=210|8=FIX.4.4|9=61|35=0|34=367|49=IRISPAR2|52=20250606-01:01:09.176|56=EXCHANGE|10=207|8=FIX.4.4|9=61|35=0|34=368|49=IRISPAR2|52=20250606-01:01:19.176|56=EXCHANGE|10=209|8=FIX.4.4|9=61|35=0|34=369|49=IRISPAR2|52=20250606-01:01:29.176|56=EXCHANGE|10=211|8=FIX.4.4|9=61|35=0|34=370|49=IRISPAR2|52=20250606-01:01:39.177|56=EXCHANGE|10=205|8=FIX.4.4|9=61|35=0|34=371|49=IRISPAR2|52=20250606-01:01:49.177|56=EXCHANGE|10=207|8=FIX.4.4|9=61|35=0|34=372|49=IRISPAR2|52=20250606-01:01:59.177|56=EXCHANGE|10=209|8=FIX.4.4|9=61|35=0|34=373|49=IRISPAR2|52=20250606-01:02:09.177|56=EXCHANGE|10=206|8=FIX.4.4|9=61|35=0|34=374|49=IRISPAR2|52=20250606-01:02:19.177|56=EXCHANGE|10=208|8=FIX.4.4|9=61|35=0|34=375|49=IRISPAR2|52=20250606-01:02:29.177|56=EXCHANGE|10=210|8=FIX.4.4|9=61|35=0|34=376|49=IRISPAR2|52=20250606-01:02:39.177|56=EXCHANGE|10=212|8=FIX.4.4|9=61|35=0|34=377|49=IRISPAR2|52=20250606-01:02:49.177|56=EXCHANGE|10=214|8=FIX.4.4|9=61|35=0|34=378|49=IRISPAR2|52=20250606-01:02:59.177|56=EXCHANGE|10=216|8=FIX.4.4|9=61|35=0|34=379|49=IRISPAR2|52=20250606-01:03:09.178|56=EXCHANGE|10=214|8=FIX.4.4|9=61|35=0|34=380|49=IRISPAR2|52=20250606-01:03:19.178|56=EXCHANGE|10=207|8=FIX.4.4|9=61|35=0|34=381|49=IRISPAR2|52=20250606-01:03:29.178|56=EXCHANGE|10=209|8=FIX.4.4|9=61|35=0|34=382|49=IRISPAR2|52=20250606-01:03:39.178|56=EXCHANGE|10=211|8=FIX.4.4|9=61|35=0|34=383|49=IRISPAR2|52=20250606-01:03:49.178|56=EXCHANGE|10=213|8=FIX.4.4|9=61|35=0|34=384|49=IRISPAR2|52=20250606-01:03:59.178|56=EXCHANGE|10=215|8=FIX.4.4|9=61|35=0|34=385|49=IRISPAR2|52=20250606-01:04:09.178|56=EXCHANGE|10=212|8=FIX.4.4|9=61|35=0|34=386|49=IRISPAR2|52=20250606-01:04:19.178|56=EXCHANGE|10=214|8=FIX.4.4|9=61|35=0|34=387|49=IRISPAR2|52=20250606-01:04:29.178|56=EXCHANGE|10=216|8=FIX.4.4|9=61|35=0|34=388|49=IRISPAR2|52=20250606-01:04:39.178|56=EXCHANGE|10=218|8=FIX.4.4|9=61|35=0|34=389|49=IRISPAR2|52=20250606-01:04:49.179|56=EXCHANGE|10=221|8=FIX.4.4|9=61|35=0|34=390|49=IRISPAR2|52=20250606-01:04:59.179|56=EXCHANGE|10=214|8=FIX.4.4|9=61|35=0|34=391|49=IRISPAR2|52=20250606-01:05:09.179|56=EXCHANGE|10=211|8=FIX.4.4|9=61|35=0|34=392|49=IRISPAR2|52=20250606-01:05:19.179|56=EXCHANGE|10=213|8=FIX.4.4|9=61|35=0|34=393|49=IRISPAR2|52=20250606-01:05:29.179|56=EXCHANGE|10=215|8=FIX.4.4|9=61|35=0|34=394|49=IRISPAR2|52=20250606-01:05:39.179|56=EXCHANGE|10=217|8=FIX.4.4|9=61|35=0|34=395|49=IRISPAR2|52=20250606-01:05:49.179|56=EXCHANGE|10=219|8=FIX.4.4|9=61|35=0|34=396|49=IRISPAR2|52=20250606-01:05:59.179|56=EXCHANGE|10=221|8=FIX.4.4|9=61|35=0|34=397|49=IRISPAR2|52=20250606-01:06:09.179|56=EXCHANGE|10=218|8=FIX.4.4|9=61|35=0|34=398|49=IRISPAR2|52=20250606-01:06:19.179|56=EXCHANGE|10=220|8=FIX.4.4|9=61|35=0|34=399|49=IRISPAR2|52=20250606-01:06:29.179|56=EXCHANGE|10=222|8=FIX.4.4|9=61|35=0|34=400|49=IRISPAR2|52=20250606-01:06:39.180|56=EXCHANGE|10=198|8=FIX.4.4|9=61|35=0|34=401|49=IRISPAR2|52=20250606-01:06:49.180|56=EXCHANGE|10=200|8=FIX.4.4|9=61|35=0|34=402|49=IRISPAR2|52=20250606-01:06:59.180|56=EXCHANGE|10=202|8=FIX.4.4|9=61|35=0|34=403|49=IRISPAR2|52=20250606-01:07:09.180|56=EXCHANGE|10=199|8=FIX.4.4|9=61|35=0|34=404|49=IRISPAR2|52=20250606-01:07:19.180|56=EXCHANGE|10=201|8=FIX.4.4|9=61|35=0|34=405|49=IRISPAR2|52=20250606-01:07:29.180|56=EXCHANGE|10=203|8=FIX.4.4|9=61|35=0|34=406|49=IRISPAR2|52=20250606-01:07:39.180|56=EXCHANGE|10=205|8=FIX.4.4|9=61|35=0|34=407|49=IRISPAR2|52=20250606-01:07:49.180|56=EXCHANGE|10=207|8=FIX.4.4|9=61|35=0|34=408|49=IRISPAR2|52=20250606-01:07:59.180|56=EXCHANGE|10=209|8=FIX.4.4|9=61|35=0|34=409|49=IRISPAR2|52=20250606-01:08:09.181|56=EXCHANGE|10=207|8=FIX.4.4|9=61|35=0|34=410|49=IRISPAR2|52=20250606-01:08:19.181|56=EXCHANGE|10=200|8=FIX.4.4|9=61|35=0|34=411|49=IRISPAR2|52=20250606-01:08:29.181|56=EXCHANGE|10=202|8=FIX.4.4|9=61|35=0|34=412|49=IRISPAR2|52=20250606-01:08:39.181|56=EXCHANGE|10=204|8=FIX.4.4|9=61|35=0|34=413|49=IRISPAR2|52=20250606-01:08:49.181|56=EXCHANGE|10=206|8=FIX.4.4|9=61|35=0|34=414|49=IRISPAR2|52=20250606-01:08:59.181|56=EXCHANGE|10=208|8=FIX.4.4|9=61|35=0|34=415|49=IRISPAR2|52=20250606-01:09:09.181|56=EXCHANGE|10=205|8=FIX.4.4|9=61|35=0|34=416|49=IRISPAR2|52=20250606-01:09:19.181|56=EXCHANGE|10=207|8=FIX.4.4|9=61|35=0|34=417|49=IRISPAR2|52=20250606-01:09:29.181|56=EXCHANGE|10=209|8=FIX.4.4|9=61|35=0|34=418|49=IRISPAR2|52=20250606-01:09:39.181|56=EXCHANGE|10=211|8=FIX.4.4|9=61|35=0|34=419|49=IRISPAR2|52=20250606-01:09:49.181|56=EXCHANGE|10=213|8=FIX.4.4|9=61|35=0|34=420|49=IRISPAR2|52=20250606-01:09:59.182|56=EXCHANGE|10=207|8=FIX.4.4|9=61|35=0|34=421|49=IRISPAR2|52=20250606-01:10:09.182|56=EXCHANGE|10=195|8=FIX.4.4|9=61|35=0|34=422|49=IRISPAR2|52=20250606-01:10:19.182|56=EXCHANGE|10=197|8=FIX.4.4|9=61|35=0|34=423|49=IRISPAR2|52=20250606-01:10:29.182|56=EXCHANGE|10=199|8=FIX.4.4|9=61|35=0|34=424|49=IRISPAR2|52=20250606-01:10:39.182|56=EXCHANGE|10=201|8=FIX.4.4|9=61|35=0|34=425|49=IRISPAR2|52=20250606-01:10:49.182|56=EXCHANGE|10=203|8=FIX.4.4|9=61|35=0|34=426|49=IRISPAR2|52=20250606-01:10:59.182|56=EXCHANGE|10=205|8=FIX.4.4|9=61|35=0|34=427|49=IRISPAR2|52=20250606-01:11:09.182|56=EXCHANGE|10=202|8=FIX.4.4|9=61|35=0|34=428|49=IRISPAR2|52=20250606-01:11:19.183|56=EXCHANGE|10=205|8=FIX.4.4|9=61|35=0|34=429|49=IRISPAR2|52=20250606-01:11:29.183|56=EXCHANGE|10=207|8=FIX.4.4|9=61|35=0|34=430|49=IRISPAR2|52=20250606-01:11:39.183|56=EXCHANGE|10=200|8=FIX.4.4|9=61|35=0|34=431|49=IRISPAR2|52=20250606-01:11:49.183|56=EXCHANGE|10=202|8=FIX.4.4|9=61|35=0|34=432|49=IRISPAR2|52=20250606-01:11:59.183|56=EXCHANGE|10=204|8=FIX.4.4|9=61|35=0|34=433|49=IRISPAR2|52=20250606-01:12:09.183|56=EXCHANGE|10=201|8=FIX.4.4|9=61|35=0|34=434|49=IRISPAR2|52=20250606-01:12:19.183|56=EXCHANGE|10=203|8=FIX.4.4|9=61|35=0|34=435|49=IRISPAR2|52=20250606-01:12:29.183|56=EXCHANGE|10=205|8=FIX.4.4|9=61|35=0|34=436|49=IRISPAR2|52=20250606-01:12:39.183|56=EXCHANGE|10=207|8=FIX.4.4|9=61|35=0|34=437|49=IRISPAR2|52=20250606-01:12:49.184|56=EXCHANGE|10=210|8=FIX.4.4|9=61|35=0|34=438|49=IRISPAR2|52=20250606-01:12:59.184|56=EXCHANGE|10=212|8=FIX.4.4|9=61|35=0|34=439|49=IRISPAR2|52=20250606-01:13:09.184|56=EXCHANGE|10=209|8=FIX.4.4|9=61|35=0|34=440|49=IRISPAR2|52=20250606-01:13:19.184|56=EXCHANGE|10=202|8=FIX.4.4|9=61|35=0|34=441|49=IRISPAR2|52=20250606-01:13:29.184|56=EXCHANGE|10=204|8=FIX.4.4|9=61|35=0|34=442|49=IRISPAR2|52=20250606-01:13:39.184|56=EXCHANGE|10=206|8=FIX.4.4|9=61|35=0|34=443|49=IRISPAR2|52=20250606-01:13:49.184|56=EXCHANGE|10=208|8=FIX.4.4|9=61|35=0|34=444|49=IRISPAR2|52=20250606-01:13:59.184|56=EXCHANGE|10=210|8=FIX.4.4|9=61|35=0|34=445|49=IRISPAR2|52=20250606-01:14:09.184|56=EXCHANGE|10=207|8=FIX.4.4|9=61|35=0|34=446|49=IRISPAR2|52=20250606-01:14:19.184|56=EXCHANGE|10=209|8=FIX.4.4|9=61|35=0|34=447|49=IRISPAR2|52=20250606-01:14:29.185|56=EXCHANGE|10=212|8=FIX.4.4|9=61|35=0|34=448|49=IRISPAR2|52=20250606-01:14:39.185|56=EXCHANGE|10=214|8=FIX.4.4|9=61|35=0|34=449|49=IRISPAR2|52=20250606-01:14:49.185|56=EXCHANGE|10=216|8=FIX.4.4|9=61|35=0|34=450|49=IRISPAR2|52=20250606-01:14:59.185|56=EXCHANGE|10=209|8=FIX.4.4|9=61|35=0|34=451|49=IRISPAR2|52=20250606-01:15:09.185|56=EXCHANGE|10=206|8=FIX.4.4|9=61|35=0|34=452|49=IRISPAR2|52=20250606-01:15:19.185|56=EXCHANGE|10=208|8=FIX.4.4|9=61|35=0|34=453|49=IRISPAR2|52=20250606-01:15:29.185|56=EXCHANGE|10=210|8=FIX.4.4|9=61|35=0|34=454|49=IRISPAR2|52=20250606-01:15:39.185|56=EXCHANGE|10=212|8=FIX.4.4|9=61|35=0|34=455|49=IRISPAR2|52=20250606-01:15:49.185|56=EXCHANGE|10=214|8=FIX.4.4|9=61|35=0|34=456|49=IRISPAR2|52=20250606-01:15:59.186|56=EXCHANGE|10=217|8=FIX.4.4|9=61|35=0|34=457|49=IRISPAR2|52=20250606-01:16:09.186|56=EXCHANGE|10=214|8=FIX.4.4|9=61|35=0|34=458|49=IRISPAR2|52=20250606-01:16:19.186|56=EXCHANGE|10=216|8=FIX.4.4|9=61|35=0|34=459|49=IRISPAR2|52=20250606-01:16:29.186|56=EXCHANGE|10=218|8=FIX.4.4|9=61|35=0|34=460|49=IRISPAR2|52=20250606-01:16:39.186|56=EXCHANGE|10=211|8=FIX.4.4|9=61|35=0|34=461|49=IRISPAR2|52=20250606-01:16:49.186|56=EXCHANGE|10=213|8=FIX.4.4|9=61|35=0|34=462|49=IRISPAR2|52=20250606-01:16:59.186|56=EXCHANGE|10=215|8=FIX.4.4|9=61|35=0|34=463|49=IRISPAR2|52=20250606-01:17:09.186|56=EXCHANGE|10=212|8=FIX.4.4|9=61|35=0|34=464|49=IRISPAR2|52=20250606-01:17:19.186|56=EXCHANGE|10=214|8=FIX.4.4|9=61|35=0|34=465|49=IRISPAR2|52=20250606-01:17:29.186|56=EXCHANGE|10=216|8=FIX.4.4|9=61|35=0|34=466|49=IRISPAR2|52=20250606-01:17:39.187|56=EXCHANGE|10=219|8=FIX.4.4|9=61|35=0|34=467|49=IRISPAR2|52=20250606-01:17:49.187|56=EXCHANGE|10=221|8=FIX.4.4|9=61|35=0|34=468|49=IRISPAR2|52=20250606-01:17:59.187|56=EXCHANGE|10=223|8=FIX.4.4|9=61|35=0|34=469|49=IRISPAR2|52=20250606-01:18:09.187|56=EXCHANGE|10=220|8=FIX.4.4|9=61|35=0|34=470|49=IRISPAR2|52=20250606-01:18:19.187|56=EXCHANGE|10=213|8=FIX.4.4|9=61|35=0|34=471|49=IRISPAR2|52=20250606-01:18:29.187|56=EXCHANGE|10=215|8=FIX.4.4|9=61|35=0|34=472|49=IRISPAR2|52=20250606-01:18:39.187|56=EXCHANGE|10=217|8=FIX.4.4|9=61|35=0|34=473|49=IRISPAR2|52=20250606-01:18:49.187|56=EXCHANGE|10=219|8=FIX.4.4|9=61|35=0|34=474|49=IRISPAR2|52=20250606-01:18:59.188|56=EXCHANGE|10=222|8=FIX.4.4|9=61|35=0|34=475|49=IRISPAR2|52=20250606-01:19:09.188|56=EXCHANGE|10=219|8=FIX.4.4|9=61|35=0|34=476|49=IRISPAR2|52=20250606-01:19:19.188|56=EXCHANGE|10=221|8=FIX.4.4|9=61|35=0|34=477|49=IRISPAR2|52=20250606-01:19:29.188|56=EXCHANGE|10=223|8=FIX.4.4|9=61|35=0|34=478|49=IRISPAR2|52=20250606-01:19:39.188|56=EXCHANGE|10=225|8=FIX.4.4|9=61|35=0|34=479|49=IRISPAR2|52=20250606-01:19:49.188|56=EXCHANGE|10=227|8=FIX.4.4|9=61|35=0|34=480|49=IRISPAR2|52=20250606-01:19:59.188|56=EXCHANGE|10=220|8=FIX.4.4|9=61|35=0|34=481|49=IRISPAR2|52=20250606-01:20:09.188|56=EXCHANGE|10=208|8=FIX.4.4|9=61|35=0|34=482|49=IRISPAR2|52=20250606-01:20:19.188|56=EXCHANGE|10=210|8=FIX.4.4|9=61|35=0|34=483|49=IRISPAR2|52=20250606-01:20:29.188|56=EXCHANGE|10=212|8=FIX.4.4|9=61|35=0|34=484|49=IRISPAR2|52=20250606-01:20:39.189|56=EXCHANGE|10=215|8=FIX.4.4|9=61|35=0|34=485|49=IRISPAR2|52=20250606-01:20:49.189|56=EXCHANGE|10=217|8=FIX.4.4|9=61|35=0|34=486|49=IRISPAR2|52=20250606-01:20:59.189|56=EXCHANGE|10=219|8=FIX.4.4|9=61|35=0|34=487|49=IRISPAR2|52=20250606-01:21:09.189|56=EXCHANGE|10=216|8=FIX.4.4|9=61|35=0|34=488|49=IRISPAR2|52=20250606-01:21:19.189|56=EXCHANGE|10=218|8=FIX.4.4|9=61|35=0|34=489|49=IRISPAR2|52=20250606-01:21:29.189|56=EXCHANGE|10=220|8=FIX.4.4|9=61|35=0|34=490|49=IRISPAR2|52=20250606-01:21:39.189|56=EXCHANGE|10=213|8=FIX.4.4|9=61|35=0|34=491|49=IRISPAR2|52=20250606-01:21:49.190|56=EXCHANGE|10=207|8=FIX.4.4|9=61|35=0|34=492|49=IRISPAR2|52=20250606-01:21:59.190|56=EXCHANGE|10=209|8=FIX.4.4|9=61|35=0|34=493|49=IRISPAR2|52=20250606-01:22:09.190|56=EXCHANGE|10=206|8=FIX.4.4|9=61|35=0|34=494|49=IRISPAR2|52=20250606-01:22:19.190|56=EXCHANGE|10=208|8=FIX.4.4|9=61|35=0|34=495|49=IRISPAR2|52=20250606-01:22:29.190|56=EXCHANGE|10=210|8=FIX.4.4|9=61|35=0|34=496|49=IRISPAR2|52=20250606-01:22:39.190|56=EXCHANGE|10=212|8=FIX.4.4|9=61|35=0|34=497|49=IRISPAR2|52=20250606-01:22:49.190|56=EXCHANGE|10=214|8=FIX.4.4|9=61|35=0|34=498|49=IRISPAR2|52=20250606-01:22:59.191|56=EXCHANGE|10=217|8=FIX.4.4|9=61|35=0|34=499|49=IRISPAR2|52=20250606-01:23:09.191|56=EXCHANGE|10=214|8=FIX.4.4|9=61|35=0|34=500|49=IRISPAR2|52=20250606-01:23:19.191|56=EXCHANGE|10=198|8=FIX.4.4|9=61|35=0|34=501|49=IRISPAR2|52=20250606-01:23:29.191|56=EXCHANGE|10=200|8=FIX.4.4|9=61|35=0|34=502|49=IRISPAR2|52=20250606-01:23:39.191|56=EXCHANGE|10=202|8=FIX.4.4|9=61|35=0|34=503|49=IRISPAR2|52=20250606-01:23:49.191|56=EXCHANGE|10=204|8=FIX.4.4|9=61|35=0|34=504|49=IRISPAR2|52=20250606-01:23:59.191|56=EXCHANGE|10=206|8=FIX.4.4|9=61|35=0|34=505|49=IRISPAR2|52=20250606-01:24:09.191|56=EXCHANGE|10=203|8=FIX.4.4|9=61|35=0|34=506|49=IRISPAR2|52=20250606-01:24:19.191|56=EXCHANGE|10=205|8=FIX.4.4|9=61|35=0|34=507|49=IRISPAR2|52=20250606-01:24:29.192|56=EXCHANGE|10=208|8=FIX.4.4|9=61|35=0|34=508|49=IRISPAR2|52=20250606-01:24:39.192|56=EXCHANGE|10=210|8=FIX.4.4|9=61|35=0|34=509|49=IRISPAR2|52=20250606-01:24:49.192|56=EXCHANGE|10=212|8=FIX.4.4|9=61|35=0|34=510|49=IRISPAR2|52=20250606-01:24:59.192|56=EXCHANGE|10=205|8=FIX.4.4|9=61|35=0|34=511|49=IRISPAR2|52=20250606-01:25:09.192|56=EXCHANGE|10=202|8=FIX.4.4|9=61|35=0|34=512|49=IRISPAR2|52=20250606-01:25:19.192|56=EXCHANGE|10=204|8=FIX.4.4|9=61|35=0|34=513|49=IRISPAR2|52=20250606-01:25:29.192|56=EXCHANGE|10=206|8=FIX.4.4|9=61|35=0|34=514|49=IRISPAR2|52=20250606-01:25:39.192|56=EXCHANGE|10=208|8=FIX.4.4|9=61|35=0|34=515|49=IRISPAR2|52=20250606-01:25:49.192|56=EXCHANGE|10=210|8=FIX.4.4|9=61|35=0|34=516|49=IRISPAR2|52=20250606-01:25:59.193|56=EXCHANGE|10=213|8=FIX.4.4|9=61|35=0|34=517|49=IRISPAR2|52=20250606-01:26:09.193|56=EXCHANGE|10=210|8=FIX.4.4|9=61|35=0|34=518|49=IRISPAR2|52=20250606-01:26:19.193|56=EXCHANGE|10=212|8=FIX.4.4|9=61|35=0|34=519|49=IRISPAR2|52=20250606-01:26:29.193|56=EXCHANGE|10=214|8=FIX.4.4|9=61|35=0|34=520|49=IRISPAR2|52=20250606-01:26:39.193|56=EXCHANGE|10=207|8=FIX.4.4|9=61|35=0|34=521|49=IRISPAR2|52=20250606-01:26:49.193|56=EXCHANGE|10=209|8=FIX.4.4|9=61|35=0|34=522|49=IRISPAR2|52=20250606-01:26:59.193|56=EXCHANGE|10=211|8=FIX.4.4|9=61|35=0|34=523|49=IRISPAR2|52=20250606-01:27:09.193|56=EXCHANGE|10=208|8=FIX.4.4|9=61|35=0|34=524|49=IRISPAR2|52=20250606-01:27:19.193|56=EXCHANGE|10=210|8=FIX.4.4|9=61|35=0|34=525|49=IRISPAR2|52=20250606-01:27:29.193|56=EXCHANGE|10=212|8=FIX.4.4|9=61|35=0|34=526|49=IRISPAR2|52=20250606-01:27:39.194|56=EXCHANGE|10=215|8=FIX.4.4|9=61|35=0|34=527|49=IRISPAR2|52=20250606-01:27:49.194|56=EXCHANGE|10=217|8=FIX.4.4|9=61|35=0|34=528|49=IRISPAR2|52=20250606-01:27:59.194|56=EXCHANGE|10=219|8=FIX.4.4|9=61|35=0|34=529|49=IRISPAR2|52=20250606-01:28:09.194|56=EXCHANGE|10=216|8=FIX.4.4|9=61|35=0|34=530|49=IRISPAR2|52=20250606-01:28:19.194|56=EXCHANGE|10=209|8=FIX.4.4|9=61|35=0|34=531|49=IRISPAR2|52=20250606-01:28:29.194|56=EXCHANGE|10=211|8=FIX.4.4|9=61|35=0|34=532|49=IRISPAR2|52=20250606-01:28:39.194|56=EXCHANGE|10=213|8=FIX.4.4|9=61|35=0|34=533|49=IRISPAR2|52=20250606-01:28:49.194|56=EXCHANGE|10=215|8=FIX.4.4|9=61|35=0|34=534|49=IRISPAR2|52=20250606-01:28:59.194|56=EXCHANGE|10=217|8=FIX.4.4|9=61|35=0|34=535|49=IRISPAR2|52=20250606-01:29:09.195|56=EXCHANGE|10=215|8=FIX.4.4|9=61|35=0|34=536|49=IRISPAR2|52=20250606-01:29:19.195|56=EXCHANGE|10=217|8=FIX.4.4|9=61|35=0|34=537|49=IRISPAR2|52=20250606-01:29:29.195|56=EXCHANGE|10=219|8=FIX.4.4|9=61|35=0|34=538|49=IRISPAR2|52=20250606-01:29:39.195|56=EXCHANGE|10=221|8=FIX.4.4|9=61|35=0|34=539|49=IRISPAR2|52=20250606-01:29:49.195|56=EXCHANGE|10=223|8=FIX.4.4|9=61|35=0|34=540|49=IRISPAR2|52=20250606-01:29:59.195|56=EXCHANGE|10=216|8=FIX.4.4|9=61|35=0|34=541|49=IRISPAR2|52=20250606-01:30:09.195|56=EXCHANGE|10=204|8=FIX.4.4|9=61|35=0|34=542|49=IRISPAR2|52=20250606-01:30:19.195|56=EXCHANGE|10=206|8=FIX.4.4|9=61|35=0|34=543|49=IRISPAR2|52=20250606-01:30:29.195|56=EXCHANGE|10=208|8=FIX.4.4|9=61|35=0|34=544|49=IRISPAR2|52=20250606-01:30:39.195|56=EXCHANGE|10=210|8=FIX.4.4|9=61|35=0|34=545|49=IRISPAR2|52=20250606-01:30:49.195|56=EXCHANGE|10=212|8=FIX.4.4|9=61|35=0|34=546|49=IRISPAR2|52=20250606-01:30:59.196|56=EXCHANGE|10=215|8=FIX.4.4|9=61|35=0|34=547|49=IRISPAR2|52=20250606-01:31:09.196|56=EXCHANGE|10=212|8=FIX.4.4|9=61|35=0|34=548|49=IRISPAR2|52=20250606-01:31:19.196|56=EXCHANGE|10=214|8=FIX.4.4|9=61|35=0|34=549|49=IRISPAR2|52=20250606-01:31:29.196|56=EXCHANGE|10=216|8=FIX.4.4|9=61|35=0|34=550|49=IRISPAR2|52=20250606-01:31:39.196|56=EXCHANGE|10=209|8=FIX.4.4|9=61|35=0|34=551|49=IRISPAR2|52=20250606-01:31:49.196|56=EXCHANGE|10=211|8=FIX.4.4|9=61|35=0|34=552|49=IRISPAR2|52=20250606-01:31:59.196|56=EXCHANGE|10=213|8=FIX.4.4|9=61|35=0|34=553|49=IRISPAR2|52=20250606-01:32:09.196|56=EXCHANGE|10=210|8=FIX.4.4|9=61|35=0|34=554|49=IRISPAR2|52=20250606-01:32:19.196|56=EXCHANGE|10=212|8=FIX.4.4|9=61|35=0|34=555|49=IRISPAR2|52=20250606-01:32:29.197|56=EXCHANGE|10=215|8=FIX.4.4|9=61|35=0|34=556|49=IRISPAR2|52=20250606-01:32:39.197|56=EXCHANGE|10=217|8=FIX.4.4|9=61|35=0|34=557|49=IRISPAR2|52=20250606-01:32:49.197|56=EXCHANGE|10=219|8=FIX.4.4|9=61|35=0|34=558|49=IRISPAR2|52=20250606-01:32:59.197|56=EXCHANGE|10=221|8=FIX.4.4|9=61|35=0|34=559|49=IRISPAR2|52=20250606-01:33:09.197|56=EXCHANGE|10=218|8=FIX.4.4|9=61|35=0|34=560|49=IRISPAR2|52=20250606-01:33:19.197|56=EXCHANGE|10=211|8=FIX.4.4|9=61|35=0|34=561|49=IRISPAR2|52=20250606-01:33:29.197|56=EXCHANGE|10=213|8=FIX.4.4|9=61|35=0|34=562|49=IRISPAR2|52=20250606-01:33:39.197|56=EXCHANGE|10=215|8=FIX.4.4|9=61|35=0|34=563|49=IRISPAR2|52=20250606-01:33:49.197|56=EXCHANGE|10=217|8=FIX.4.4|9=61|35=0|34=564|49=IRISPAR2|52=20250606-01:33:59.198|56=EXCHANGE|10=220|8=FIX.4.4|9=61|35=0|34=565|49=IRISPAR2|52=20250606-01:34:09.198|56=EXCHANGE|10=217|8=FIX.4.4|9=61|35=0|34=566|49=IRISPAR2|52=20250606-01:34:19.198|56=EXCHANGE|10=219|8=FIX.4.4|9=61|35=0|34=567|49=IRISPAR2|52=20250606-01:34:29.198|56=EXCHANGE|10=221|8=FIX.4.4|9=61|35=0|34=568|49=IRISPAR2|52=20250606-01:34:39.198|56=EXCHANGE|10=223|8=FIX.4.4|9=61|35=0|34=569|49=IRISPAR2|52=20250606-01:34:49.198|56=EXCHANGE|10=225|8=FIX.4.4|9=61|35=0|34=570|49=IRISPAR2|52=20250606-01:34:59.198|56=EXCHANGE|10=218|8=FIX.4.4|9=61|35=0|34=571|49=IRISPAR2|52=20250606-01:35:09.198|56=EXCHANGE|10=215|8=FIX.4.4|9=61|35=0|34=572|49=IRISPAR2|52=20250606-01:35:19.198|56=EXCHANGE|10=217|8=FIX.4.4|9=61|35=0|34=573|49=IRISPAR2|52=20250606-01:35:29.199|56=EXCHANGE|10=220|8=FIX.4.4|9=61|35=0|34=574|49=IRISPAR2|52=20250606-01:35:39.199|56=EXCHANGE|10=222|8=FIX.4.4|9=61|35=0|34=575|49=IRISPAR2|52=20250606-01:35:49.199|56=EXCHANGE|10=224|8=FIX.4.4|9=61|35=0|34=576|49=IRISPAR2|52=20250606-01:35:59.199|56=EXCHANGE|10=226|8=FIX.4.4|9=61|35=0|34=577|49=IRISPAR2|52=20250606-01:36:09.199|56=EXCHANGE|10=223|8=FIX.4.4|9=61|35=0|34=578|49=IRISPAR2|52=20250606-01:36:19.199|56=EXCHANGE|10=225|8=FIX.4.4|9=61|35=0|34=579|49=IRISPAR2|52=20250606-01:36:29.199|56=EXCHANGE|10=227|8=FIX.4.4|9=61|35=0|34=580|49=IRISPAR2|52=20250606-01:36:39.200|56=EXCHANGE|10=203|8=FIX.4.4|9=61|35=0|34=581|49=IRISPAR2|52=20250606-01:36:49.200|56=EXCHANGE|10=205|8=FIX.4.4|9=61|35=0|34=582|49=IRISPAR2|52=20250606-01:36:59.200|56=EXCHANGE|10=207|8=FIX.4.4|9=61|35=0|34=583|49=IRISPAR2|52=20250606-01:37:09.200|56=EXCHANGE|10=204|8=FIX.4.4|9=61|35=0|34=584|49=IRISPAR2|52=20250606-01:37:19.200|56=EXCHANGE|10=206|8=FIX.4.4|9=61|35=0|34=585|49=IRISPAR2|52=20250606-01:37:29.200|56=EXCHANGE|10=208|8=FIX.4.4|9=61|35=0|34=586|49=IRISPAR2|52=20250606-01:37:39.200|56=EXCHANGE|10=210|8=FIX.4.4|9=61|35=0|34=587|49=IRISPAR2|52=20250606-01:37:49.200|56=EXCHANGE|10=212|8=FIX.4.4|9=61|35=0|34=588|49=IRISPAR2|52=20250606-01:37:59.200|56=EXCHANGE|10=214|8=FIX.4.4|9=61|35=0|34=589|49=IRISPAR2|52=20250606-01:38:09.201|56=EXCHANGE|10=212|8=FIX.4.4|9=61|35=0|34=590|49=IRISPAR2|52=20250606-01:38:19.201|56=EXCHANGE|10=205|8=FIX.4.4|9=61|35=0|34=591|49=IRISPAR2|52=20250606-01:38:29.201|56=EXCHANGE|10=207|8=FIX.4.4|9=61|35=0|34=592|49=IRISPAR2|52=20250606-01:38:39.201|56=EXCHANGE|10=209|8=FIX.4.4|9=61|35=0|34=593|49=IRISPAR2|52=20250606-01:38:49.201|56=EXCHANGE|10=211|8=FIX.4.4|9=61|35=0|34=594|49=IRISPAR2|52=20250606-01:38:59.201|56=EXCHANGE|10=213|8=FIX.4.4|9=61|35=0|34=595|49=IRISPAR2|52=20250606-01:39:09.201|56=EXCHANGE|10=210|8=FIX.4.4|9=61|35=0|34=596|49=IRISPAR2|52=20250606-01:39:19.201|56=EXCHANGE|10=212|8=FIX.4.4|9=61|35=0|34=597|49=IRISPAR2|52=20250606-01:39:29.201|56=EXCHANGE|10=214|8=FIX.4.4|9=61|35=0|34=598|49=IRISPAR2|52=20250606-01:39:39.202|56=EXCHANGE|10=217|8=FIX.4.4|9=61|35=0|34=599|49=IRISPAR2|52=20250606-01:39:49.202|56=EXCHANGE|10=219|8=FIX.4.4|9=61|35=0|34=600|49=IRISPAR2|52=20250606-01:39:59.202|56=EXCHANGE|10=203|8=FIX.4.4|9=61|35=0|34=601|49=IRISPAR2|52=20250606-01:40:09.202|56=EXCHANGE|10=191|8=FIX.4.4|9=61|35=0|34=602|49=IRISPAR2|52=20250606-01:40:19.202|56=EXCHANGE|10=193|8=FIX.4.4|9=61|35=0|34=603|49=IRISPAR2|52=20250606-01:40:29.202|56=EXCHANGE|10=195|8=FIX.4.4|9=61|35=0|34=604|49=IRISPAR2|52=20250606-01:40:39.202|56=EXCHANGE|10=197|8=FIX.4.4|9=61|35=0|34=605|49=IRISPAR2|52=20250606-01:40:49.202|56=EXCHANGE|10=199|8=FIX.4.4|9=61|35=0|34=606|49=IRISPAR2|52=20250606-01:40:59.203|56=EXCHANGE|10=202|8=FIX.4.4|9=61|35=0|34=607|49=IRISPAR2|52=20250606-01:41:09.203|56=EXCHANGE|10=199|8=FIX.4.4|9=61|35=0|34=608|49=IRISPAR2|52=20250606-01:41:19.203|56=EXCHANGE|10=201|8=FIX.4.4|9=61|35=0|34=609|49=IRISPAR2|52=20250606-01:41:29.203|56=EXCHANGE|10=203|8=FIX.4.4|9=61|35=0|34=610|49=IRISPAR2|52=20250606-01:41:39.203|56=EXCHANGE|10=196|8=FIX.4.4|9=61|35=0|34=611|49=IRISPAR2|52=20250606-01:41:49.203|56=EXCHANGE|10=198|8=FIX.4.4|9=61|35=0|34=612|49=IRISPAR2|52=20250606-01:41:59.204|56=EXCHANGE|10=201|8=FIX.4.4|9=61|35=0|34=613|49=IRISPAR2|52=20250606-01:42:09.204|56=EXCHANGE|10=198|8=FIX.4.4|9=61|35=0|34=614|49=IRISPAR2|52=20250606-01:42:19.204|56=EXCHANGE|10=200|8=FIX.4.4|9=61|35=0|34=615|49=IRISPAR2|52=20250606-01:42:29.204|56=EXCHANGE|10=202|8=FIX.4.4|9=61|35=0|34=616|49=IRISPAR2|52=20250606-01:42:39.204|56=EXCHANGE|10=204|8=FIX.4.4|9=61|35=0|34=617|49=IRISPAR2|52=20250606-01:42:49.204|56=EXCHANGE|10=206|8=FIX.4.4|9=61|35=0|34=618|49=IRISPAR2|52=20250606-01:42:59.204|56=EXCHANGE|10=208|8=FIX.4.4|9=61|35=0|34=619|49=IRISPAR2|52=20250606-01:43:09.205|56=EXCHANGE|10=206|8=FIX.4.4|9=61|35=0|34=620|49=IRISPAR2|52=20250606-01:43:19.205|56=EXCHANGE|10=199|8=FIX.4.4|9=61|35=0|34=621|49=IRISPAR2|52=20250606-01:43:29.205|56=EXCHANGE|10=201|8=FIX.4.4|9=61|35=0|34=622|49=IRISPAR2|52=20250606-01:43:39.205|56=EXCHANGE|10=203|8=FIX.4.4|9=61|35=0|34=623|49=IRISPAR2|52=20250606-01:43:49.205|56=EXCHANGE|10=205|8=FIX.4.4|9=61|35=0|34=624|49=IRISPAR2|52=20250606-01:43:59.206|56=EXCHANGE|10=208|8=FIX.4.4|9=61|35=0|34=625|49=IRISPAR2|52=20250606-01:44:09.206|56=EXCHANGE|10=205|8=FIX.4.4|9=61|35=0|34=626|49=IRISPAR2|52=20250606-01:44:19.206|56=EXCHANGE|10=207|8=FIX.4.4|9=61|35=0|34=627|49=IRISPAR2|52=20250606-01:44:29.206|56=EXCHANGE|10=209|8=FIX.4.4|9=61|35=0|34=628|49=IRISPAR2|52=20250606-01:44:39.206|56=EXCHANGE|10=211|8=FIX.4.4|9=61|35=0|34=629|49=IRISPAR2|52=20250606-01:44:49.206|56=EXCHANGE|10=213|8=FIX.4.4|9=61|35=0|34=630|49=IRISPAR2|52=20250606-01:44:59.206|56=EXCHANGE|10=206|8=FIX.4.4|9=61|35=0|34=631|49=IRISPAR2|52=20250606-01:45:09.206|56=EXCHANGE|10=203|8=FIX.4.4|9=61|35=0|34=632|49=IRISPAR2|52=20250606-01:45:19.207|56=EXCHANGE|10=206|8=FIX.4.4|9=61|35=0|34=633|49=IRISPAR2|52=20250606-01:45:29.207|56=EXCHANGE|10=208|8=FIX.4.4|9=61|35=0|34=634|49=IRISPAR2|52=20250606-01:45:39.207|56=EXCHANGE|10=210|8=FIX.4.4|9=61|35=0|34=635|49=IRISPAR2|52=20250606-01:45:49.207|56=EXCHANGE|10=212|8=FIX.4.4|9=61|35=0|34=636|49=IRISPAR2|52=20250606-01:45:59.207|56=EXCHANGE|10=214|8=FIX.4.4|9=61|35=0|34=637|49=IRISPAR2|52=20250606-01:46:09.207|56=EXCHANGE|10=211|8=FIX.4.4|9=61|35=0|34=638|49=IRISPAR2|52=20250606-01:46:19.207|56=EXCHANGE|10=213|8=FIX.4.4|9=61|35=0|34=639|49=IRISPAR2|52=20250606-01:46:29.207|56=EXCHANGE|10=215|8=FIX.4.4|9=61|35=0|34=640|49=IRISPAR2|52=20250606-01:46:39.207|56=EXCHANGE|10=208|8=FIX.4.4|9=61|35=0|34=641|49=IRISPAR2|52=20250606-01:46:49.208|56=EXCHANGE|10=211|8=FIX.4.4|9=61|35=0|34=642|49=IRISPAR2|52=20250606-01:46:59.208|56=EXCHANGE|10=213|8=FIX.4.4|9=61|35=0|34=643|49=IRISPAR2|52=20250606-01:47:09.208|56=EXCHANGE|10=210|8=FIX.4.4|9=61|35=0|34=644|49=IRISPAR2|52=20250606-01:47:19.208|56=EXCHANGE|10=212|8=FIX.4.4|9=61|35=0|34=645|49=IRISPAR2|52=20250606-01:47:29.208|56=EXCHANGE|10=214|8=FIX.4.4|9=61|35=0|34=646|49=IRISPAR2|52=20250606-01:47:39.208|56=EXCHANGE|10=216|8=FIX.4.4|9=61|35=0|34=647|49=IRISPAR2|52=20250606-01:47:49.208|56=EXCHANGE|10=218|8=FIX.4.4|9=61|35=0|34=648|49=IRISPAR2|52=20250606-01:47:59.208|56=EXCHANGE|10=220|8=FIX.4.4|9=61|35=0|34=649|49=IRISPAR2|52=20250606-01:48:09.209|56=EXCHANGE|10=218|8=FIX.4.4|9=61|35=0|34=650|49=IRISPAR2|52=20250606-01:48:19.209|56=EXCHANGE|10=211|8=FIX.4.4|9=61|35=0|34=651|49=IRISPAR2|52=20250606-01:48:29.209|56=EXCHANGE|10=213|8=FIX.4.4|9=61|35=0|34=652|49=IRISPAR2|52=20250606-01:48:39.209|56=EXCHANGE|10=215|8=FIX.4.4|9=61|35=0|34=653|49=IRISPAR2|52=20250606-01:48:49.209|56=EXCHANGE|10=217|8=FIX.4.4|9=61|35=0|34=654|49=IRISPAR2|52=20250606-01:48:59.209|56=EXCHANGE|10=219|8=FIX.4.4|9=61|35=0|34=655|49=IRISPAR2|52=20250606-01:49:09.209|56=EXCHANGE|10=216|8=FIX.4.4|9=61|35=0|34=656|49=IRISPAR2|52=20250606-01:49:19.209|56=EXCHANGE|10=218|8=FIX.4.4|9=61|35=0|34=657|49=IRISPAR2|52=20250606-01:49:29.209|56=EXCHANGE|10=220|8=FIX.4.4|9=61|35=0|34=658|49=IRISPAR2|52=20250606-01:49:39.210|56=EXCHANGE|10=214|8=FIX.4.4|9=61|35=0|34=659|49=IRISPAR2|52=20250606-01:49:49.210|56=EXCHANGE|10=216|8=FIX.4.4|9=61|35=0|34=660|49=IRISPAR2|52=20250606-01:49:59.210|56=EXCHANGE|10=209|8=FIX.4.4|9=61|35=0|34=661|49=IRISPAR2|52=20250606-01:50:09.210|56=EXCHANGE|10=197|8=FIX.4.4|9=61|35=0|34=662|49=IRISPAR2|52=20250606-01:50:19.210|56=EXCHANGE|10=199|8=FIX.4.4|9=61|35=0|34=663|49=IRISPAR2|52=20250606-01:50:29.210|56=EXCHANGE|10=201|8=FIX.4.4|9=61|35=0|34=664|49=IRISPAR2|52=20250606-01:50:39.210|56=EXCHANGE|10=203|8=FIX.4.4|9=61|35=0|34=665|49=IRISPAR2|52=20250606-01:50:49.210|56=EXCHANGE|10=205|8=FIX.4.4|9=61|35=0|34=666|49=IRISPAR2|52=20250606-01:50:59.210|56=EXCHANGE|10=207|8=FIX.4.4|9=61|35=0|34=667|49=IRISPAR2|52=20250606-01:51:09.211|56=EXCHANGE|10=205|8=FIX.4.4|9=61|35=0|34=668|49=IRISPAR2|52=20250606-01:51:19.211|56=EXCHANGE|10=207|8=FIX.4.4|9=61|35=0|34=669|49=IRISPAR2|52=20250606-01:51:29.211|56=EXCHANGE|10=209|8=FIX.4.4|9=61|35=0|34=670|49=IRISPAR2|52=20250606-01:51:39.211|56=EXCHANGE|10=202|8=FIX.4.4|9=61|35=0|34=671|49=IRISPAR2|52=20250606-01:51:49.211|56=EXCHANGE|10=204|8=FIX.4.4|9=61|35=0|34=672|49=IRISPAR2|52=20250606-01:51:59.211|56=EXCHANGE|10=206|8=FIX.4.4|9=61|35=0|34=673|49=IRISPAR2|52=20250606-01:52:09.211|56=EXCHANGE|10=203|8=FIX.4.4|9=61|35=0|34=674|49=IRISPAR2|52=20250606-01:52:19.211|56=EXCHANGE|10=205|8=FIX.4.4|9=61|35=0|34=675|49=IRISPAR2|52=20250606-01:52:29.211|56=EXCHANGE|10=207|8=FIX.4.4|9=61|35=0|34=676|49=IRISPAR2|52=20250606-01:52:39.211|56=EXCHANGE|10=209|8=FIX.4.4|9=61|35=0|34=677|49=IRISPAR2|52=20250606-01:52:49.212|56=EXCHANGE|10=212|8=FIX.4.4|9=61|35=0|34=678|49=IRISPAR2|52=20250606-01:52:59.212|56=EXCHANGE|10=214|8=FIX.4.4|9=61|35=0|34=679|49=IRISPAR2|52=20250606-01:53:09.212|56=EXCHANGE|10=211|8=FIX.4.4|9=61|35=0|34=680|49=IRISPAR2|52=20250606-01:53:19.212|56=EXCHANGE|10=204|8=FIX.4.4|9=61|35=0|34=681|49=IRISPAR2|52=20250606-01:53:29.212|56=EXCHANGE|10=206|8=FIX.4.4|9=61|35=0|34=682|49=IRISPAR2|52=20250606-01:53:39.212|56=EXCHANGE|10=208|8=FIX.4.4|9=61|35=0|34=683|49=IRISPAR2|52=20250606-01:53:49.212|56=EXCHANGE|10=210|8=FIX.4.4|9=61|35=0|34=684|49=IRISPAR2|52=20250606-01:53:59.212|56=EXCHANGE|10=212|8=FIX.4.4|9=61|35=0|34=685|49=IRISPAR2|52=20250606-01:54:09.213|56=EXCHANGE|10=210|8=FIX.4.4|9=61|35=0|34=686|49=IRISPAR2|52=20250606-01:54:19.213|56=EXCHANGE|10=212|8=FIX.4.4|9=61|35=0|34=687|49=IRISPAR2|52=20250606-01:54:29.213|56=EXCHANGE|10=214|8=FIX.4.4|9=61|35=0|34=688|49=IRISPAR2|52=20250606-01:54:39.213|56=EXCHANGE|10=216|8=FIX.4.4|9=61|35=0|34=689|49=IRISPAR2|52=20250606-01:54:49.213|56=EXCHANGE|10=218|8=FIX.4.4|9=61|35=0|34=690|49=IRISPAR2|52=20250606-01:54:59.213|56=EXCHANGE|10=211|8=FIX.4.4|9=61|35=0|34=691|49=IRISPAR2|52=20250606-01:55:09.213|56=EXCHANGE|10=208|8=FIX.4.4|9=61|35=0|34=692|49=IRISPAR2|52=20250606-01:55:19.214|56=EXCHANGE|10=211|8=FIX.4.4|9=61|35=0|34=693|49=IRISPAR2|52=20250606-01:55:29.214|56=EXCHANGE|10=213|8=FIX.4.4|9=61|35=0|34=694|49=IRISPAR2|52=20250606-01:55:39.214|56=EXCHANGE|10=215|8=FIX.4.4|9=61|35=0|34=695|49=IRISPAR2|52=20250606-01:55:49.214|56=EXCHANGE|10=217|8=FIX.4.4|9=61|35=0|34=696|49=IRISPAR2|52=20250606-01:55:59.214|56=EXCHANGE|10=219|8=FIX.4.4|9=61|35=0|34=697|49=IRISPAR2|52=20250606-01:56:09.214|56=EXCHANGE|10=216|8=FIX.4.4|9=61|35=0|34=698|49=IRISPAR2|52=20250606-01:56:19.214|56=EXCHANGE|10=218|8=FIX.4.4|9=61|35=0|34=699|49=IRISPAR2|52=20250606-01:56:29.215|56=EXCHANGE|10=221|8=FIX.4.4|9=61|35=0|34=700|49=IRISPAR2|52=20250606-01:56:39.215|56=EXCHANGE|10=205|8=FIX.4.4|9=61|35=0|34=701|49=IRISPAR2|52=20250606-01:56:49.215|56=EXCHANGE|10=207|8=FIX.4.4|9=61|35=0|34=702|49=IRISPAR2|52=20250606-01:56:59.215|56=EXCHANGE|10=209|8=FIX.4.4|9=61|35=0|34=703|49=IRISPAR2|52=20250606-01:57:09.215|56=EXCHANGE|10=206|8=FIX.4.4|9=61|35=0|34=704|49=IRISPAR2|52=20250606-01:57:19.215|56=EXCHANGE|10=208|8=FIX.4.4|9=61|35=0|34=705|49=IRISPAR2|52=20250606-01:57:29.215|56=EXCHANGE|10=210|8=FIX.4.4|9=61|35=0|34=706|49=IRISPAR2|52=20250606-01:57:39.215|56=EXCHANGE|10=212|8=FIX.4.4|9=61|35=0|34=707|49=IRISPAR2|52=20250606-01:57:49.215|56=EXCHANGE|10=214|8=FIX.4.4|9=61|35=0|34=708|49=IRISPAR2|52=20250606-01:57:59.216|56=EXCHANGE|10=217|8=FIX.4.4|9=61|35=0|34=709|49=IRISPAR2|52=20250606-01:58:09.216|56=EXCHANGE|10=214|8=FIX.4.4|9=61|35=0|34=710|49=IRISPAR2|52=20250606-01:58:19.216|56=EXCHANGE|10=207|8=FIX.4.4|9=61|35=0|34=711|49=IRISPAR2|52=20250606-01:58:29.216|56=EXCHANGE|10=209|8=FIX.4.4|9=61|35=0|34=712|49=IRISPAR2|52=20250606-01:58:39.216|56=EXCHANGE|10=211|8=FIX.4.4|9=61|35=0|34=713|49=IRISPAR2|52=20250606-01:58:49.216|56=EXCHANGE|10=213|8=FIX.4.4|9=61|35=0|34=714|49=IRISPAR2|52=20250606-01:58:59.216|56=EXCHANGE|10=215|8=FIX.4.4|9=61|35=0|34=715|49=IRISPAR2|52=20250606-01:59:09.216|56=EXCHANGE|10=212|8=FIX.4.4|9=61|35=0|34=716|49=IRISPAR2|52=20250606-01:59:19.216|56=EXCHANGE|10=214|8=FIX.4.4|9=61|35=0|34=717|49=IRISPAR2|52=20250606-01:59:29.217|56=EXCHANGE|10=217|8=FIX.4.4|9=61|35=0|34=718|49=IRISPAR2|52=20250606-01:59:39.217|56=EXCHANGE|10=219|8=FIX.4.4|9=61|35=0|34=719|49=IRISPAR2|52=20250606-01:59:49.217|56=EXCHANGE|10=221|8=FIX.4.4|9=61|35=0|34=720|49=IRISPAR2|52=20250606-01:59:59.217|56=EXCHANGE|10=214|8=FIX.4.4|9=61|35=0|34=721|49=IRISPAR2|52=20250606-02:00:09.217|56=EXCHANGE|10=197|8=FIX.4.4|9=61|35=0|34=722|49=IRISPAR2|52=20250606-02:00:19.217|56=EXCHANGE|10=199|8=FIX.4.4|9=61|35=0|34=723|49=IRISPAR2|52=20250606-02:00:29.217|56=EXCHANGE|10=201|8=FIX.4.4|9=61|35=0|34=724|49=IRISPAR2|52=20250606-02:00:39.217|56=EXCHANGE|10=203|8=FIX.4.4|9=61|35=0|34=725|49=IRISPAR2|52=20250606-02:00:49.217|56=EXCHANGE|10=205|8=FIX.4.4|9=61|35=0|34=726|49=IRISPAR2|52=20250606-02:00:59.218|56=EXCHANGE|10=208|8=FIX.4.4|9=61|35=0|34=727|49=IRISPAR2|52=20250606-02:01:09.218|56=EXCHANGE|10=205|8=FIX.4.4|9=61|35=0|34=728|49=IRISPAR2|52=20250606-02:01:19.218|56=EXCHANGE|10=207|8=FIX.4.4|9=61|35=0|34=729|49=IRISPAR2|52=20250606-02:01:29.218|56=EXCHANGE|10=209|8=FIX.4.4|9=61|35=0|34=730|49=IRISPAR2|52=20250606-02:01:39.218|56=EXCHANGE|10=202|8=FIX.4.4|9=61|35=0|34=731|49=IRISPAR2|52=20250606-02:01:49.218|56=EXCHANGE|10=204|8=FIX.4.4|9=61|35=0|34=732|49=IRISPAR2|52=20250606-02:01:59.218|56=EXCHANGE|10=206|8=FIX.4.4|9=61|35=0|34=733|49=IRISPAR2|52=20250606-02:02:09.219|56=EXCHANGE|10=204|8=FIX.4.4|9=61|35=0|34=734|49=IRISPAR2|52=20250606-02:02:19.219|56=EXCHANGE|10=206|8=FIX.4.4|9=61|35=0|34=735|49=IRISPAR2|52=20250606-02:02:29.219|56=EXCHANGE|10=208|8=FIX.4.4|9=61|35=0|34=736|49=IRISPAR2|52=20250606-02:02:39.219|56=EXCHANGE|10=210|8=FIX.4.4|9=61|35=0|34=737|49=IRISPAR2|52=20250606-02:02:49.219|56=EXCHANGE|10=212|8=FIX.4.4|9=61|35=0|34=738|49=IRISPAR2|52=20250606-02:02:59.219|56=EXCHANGE|10=214|8=FIX.4.4|9=61|35=0|34=739|49=IRISPAR2|52=20250606-02:03:09.219|56=EXCHANGE|10=211|8=FIX.4.4|9=61|35=0|34=740|49=IRISPAR2|52=20250606-02:03:19.220|56=EXCHANGE|10=196|8=FIX.4.4|9=61|35=0|34=741|49=IRISPAR2|52=20250606-02:03:29.220|56=EXCHANGE|10=198|8=FIX.4.4|9=61|35=0|34=742|49=IRISPAR2|52=20250606-02:03:39.220|56=EXCHANGE|10=200|8=FIX.4.4|9=61|35=0|34=743|49=IRISPAR2|52=20250606-02:03:49.220|56=EXCHANGE|10=202|8=FIX.4.4|9=61|35=0|34=744|49=IRISPAR2|52=20250606-02:03:59.220|56=EXCHANGE|10=204|8=FIX.4.4|9=61|35=0|34=745|49=IRISPAR2|52=20250606-02:04:09.220|56=EXCHANGE|10=201|8=FIX.4.4|9=61|35=0|34=746|49=IRISPAR2|52=20250606-02:04:19.220|56=EXCHANGE|10=203|8=FIX.4.4|9=61|35=0|34=747|49=IRISPAR2|52=20250606-02:04:29.220|56=EXCHANGE|10=205|8=FIX.4.4|9=61|35=0|34=748|49=IRISPAR2|52=20250606-02:04:39.221|56=EXCHANGE|10=208|8=FIX.4.4|9=61|35=0|34=749|49=IRISPAR2|52=20250606-02:04:49.221|56=EXCHANGE|10=210|8=FIX.4.4|9=61|35=0|34=750|49=IRISPAR2|52=20250606-02:04:59.221|56=EXCHANGE|10=203|8=FIX.4.4|9=61|35=0|34=751|49=IRISPAR2|52=20250606-02:05:09.221|56=EXCHANGE|10=200|8=FIX.4.4|9=61|35=0|34=752|49=IRISPAR2|52=20250606-02:05:19.221|56=EXCHANGE|10=202|8=FIX.4.4|9=61|35=0|34=753|49=IRISPAR2|52=20250606-02:05:29.221|56=EXCHANGE|10=204|8=FIX.4.4|9=61|35=0|34=754|49=IRISPAR2|52=20250606-02:05:39.221|56=EXCHANGE|10=206|8=FIX.4.4|9=61|35=0|34=755|49=IRISPAR2|52=20250606-02:05:49.221|56=EXCHANGE|10=208|8=FIX.4.4|9=61|35=0|34=756|49=IRISPAR2|52=20250606-02:05:59.222|56=EXCHANGE|10=211|8=FIX.4.4|9=61|35=0|34=757|49=IRISPAR2|52=20250606-02:06:09.222|56=EXCHANGE|10=208|8=FIX.4.4|9=61|35=0|34=758|49=IRISPAR2|52=20250606-02:06:19.222|56=EXCHANGE|10=210|8=FIX.4.4|9=61|35=0|34=759|49=IRISPAR2|52=20250606-02:06:29.222|56=EXCHANGE|10=212|8=FIX.4.4|9=61|35=0|34=760|49=IRISPAR2|52=20250606-02:06:39.222|56=EXCHANGE|10=205|8=FIX.4.4|9=61|35=0|34=761|49=IRISPAR2|52=20250606-02:06:49.222|56=EXCHANGE|10=207|8=FIX.4.4|9=61|35=0|34=762|49=IRISPAR2|52=20250606-02:06:59.222|56=EXCHANGE|10=209|8=FIX.4.4|9=61|35=0|34=763|49=IRISPAR2|52=20250606-02:07:09.222|56=EXCHANGE|10=206|8=FIX.4.4|9=61|35=0|34=764|49=IRISPAR2|52=20250606-02:07:19.223|56=EXCHANGE|10=209|8=FIX.4.4|9=61|35=0|34=765|49=IRISPAR2|52=20250606-02:07:29.223|56=EXCHANGE|10=211|8=FIX.4.4|9=61|35=0|34=766|49=IRISPAR2|52=20250606-02:07:39.223|56=EXCHANGE|10=213|8=FIX.4.4|9=61|35=0|34=767|49=IRISPAR2|52=20250606-02:07:49.223|56=EXCHANGE|10=215|8=FIX.4.4|9=61|35=0|34=768|49=IRISPAR2|52=20250606-02:07:59.223|56=EXCHANGE|10=217|8=FIX.4.4|9=61|35=0|34=769|49=IRISPAR2|52=20250606-02:08:09.223|56=EXCHANGE|10=214|8=FIX.4.4|9=61|35=0|34=770|49=IRISPAR2|52=20250606-02:08:19.223|56=EXCHANGE|10=207|8=FIX.4.4|9=61|35=0|34=771|49=IRISPAR2|52=20250606-02:08:29.223|56=EXCHANGE|10=209|8=FIX.4.4|9=61|35=0|34=772|49=IRISPAR2|52=20250606-02:08:39.223|56=EXCHANGE|10=211|8=FIX.4.4|9=61|35=0|34=773|49=IRISPAR2|52=20250606-02:08:49.223|56=EXCHANGE|10=213|8=FIX.4.4|9=61|35=0|34=774|49=IRISPAR2|52=20250606-02:08:59.224|56=EXCHANGE|10=216|8=FIX.4.4|9=61|35=0|34=775|49=IRISPAR2|52=20250606-02:09:09.224|56=EXCHANGE|10=213|8=FIX.4.4|9=61|35=0|34=776|49=IRISPAR2|52=20250606-02:09:19.224|56=EXCHANGE|10=215|8=FIX.4.4|9=61|35=0|34=777|49=IRISPAR2|52=20250606-02:09:29.224|56=EXCHANGE|10=217|8=FIX.4.4|9=61|35=0|34=778|49=IRISPAR2|52=20250606-02:09:39.224|56=EXCHANGE|10=219|8=FIX.4.4|9=61|35=0|34=779|49=IRISPAR2|52=20250606-02:09:49.224|56=EXCHANGE|10=221|8=FIX.4.4|9=61|35=0|34=780|49=IRISPAR2|52=20250606-02:09:59.224|56=EXCHANGE|10=214|8=FIX.4.4|9=61|35=0|34=781|49=IRISPAR2|52=20250606-02:10:09.225|56=EXCHANGE|10=203|8=FIX.4.4|9=61|35=0|34=782|49=IRISPAR2|52=20250606-02:10:19.225|56=EXCHANGE|10=205|8=FIX.4.4|9=61|35=0|34=783|49=IRISPAR2|52=20250606-02:10:29.225|56=EXCHANGE|10=207|8=FIX.4.4|9=61|35=0|34=784|49=IRISPAR2|52=20250606-02:10:39.225|56=EXCHANGE|10=209|8=FIX.4.4|9=61|35=0|34=785|49=IRISPAR2|52=20250606-02:10:49.225|56=EXCHANGE|10=211|8=FIX.4.4|9=61|35=0|34=786|49=IRISPAR2|52=20250606-02:10:59.225|56=EXCHANGE|10=213|8=FIX.4.4|9=61|35=0|34=787|49=IRISPAR2|52=20250606-02:11:09.225|56=EXCHANGE|10=210|8=FIX.4.4|9=61|35=0|34=788|49=IRISPAR2|52=20250606-02:11:19.226|56=EXCHANGE|10=213|8=FIX.4.4|9=61|35=0|34=789|49=IRISPAR2|52=20250606-02:11:29.226|56=EXCHANGE|10=215|8=FIX.4.4|9=61|35=0|34=790|49=IRISPAR2|52=20250606-02:11:39.226|56=EXCHANGE|10=208|8=FIX.4.4|9=61|35=0|34=791|49=IRISPAR2|52=20250606-02:11:49.226|56=EXCHANGE|10=210|8=FIX.4.4|9=61|35=0|34=792|49=IRISPAR2|52=20250606-02:11:59.226|56=EXCHANGE|10=212|8=FIX.4.4|9=61|35=0|34=793|49=IRISPAR2|52=20250606-02:12:09.226|56=EXCHANGE|10=209|8=FIX.4.4|9=61|35=0|34=794|49=IRISPAR2|52=20250606-02:12:19.226|56=EXCHANGE|10=211|8=FIX.4.4|9=61|35=0|34=795|49=IRISPAR2|52=20250606-02:12:29.226|56=EXCHANGE|10=213|8=FIX.4.4|9=61|35=0|34=796|49=IRISPAR2|52=20250606-02:12:39.227|56=EXCHANGE|10=216|8=FIX.4.4|9=61|35=0|34=797|49=IRISPAR2|52=20250606-02:12:49.227|56=EXCHANGE|10=218|8=FIX.4.4|9=61|35=0|34=798|49=IRISPAR2|52=20250606-02:12:59.227|56=EXCHANGE|10=220|8=FIX.4.4|9=61|35=0|34=799|49=IRISPAR2|52=20250606-02:13:09.227|56=EXCHANGE|10=217|8=FIX.4.4|9=61|35=0|34=800|49=IRISPAR2|52=20250606-02:13:19.227|56=EXCHANGE|10=201|8=FIX.4.4|9=61|35=0|34=801|49=IRISPAR2|52=20250606-02:13:29.227|56=EXCHANGE|10=203|8=FIX.4.4|9=61|35=0|34=802|49=IRISPAR2|52=20250606-02:13:39.227|56=EXCHANGE|10=205|8=FIX.4.4|9=61|35=0|34=803|49=IRISPAR2|52=20250606-02:13:49.227|56=EXCHANGE|10=207|8=FIX.4.4|9=61|35=0|34=804|49=IRISPAR2|52=20250606-02:13:59.227|56=EXCHANGE|10=209|8=FIX.4.4|9=61|35=0|34=805|49=IRISPAR2|52=20250606-02:14:09.227|56=EXCHANGE|10=206|8=FIX.4.4|9=61|35=0|34=806|49=IRISPAR2|52=20250606-02:14:19.228|56=EXCHANGE|10=209|8=FIX.4.4|9=61|35=0|34=807|49=IRISPAR2|52=20250606-02:14:29.228|56=EXCHANGE|10=211|8=FIX.4.4|9=61|35=0|34=808|49=IRISPAR2|52=20250606-02:14:39.228|56=EXCHANGE|10=213|8=FIX.4.4|9=61|35=0|34=809|49=IRISPAR2|52=20250606-02:14:49.228|56=EXCHANGE|10=215|8=FIX.4.4|9=61|35=0|34=810|49=IRISPAR2|52=20250606-02:14:59.228|56=EXCHANGE|10=208|8=FIX.4.4|9=61|35=0|34=811|49=IRISPAR2|52=20250606-02:15:09.228|56=EXCHANGE|10=205|8=FIX.4.4|9=61|35=0|34=812|49=IRISPAR2|52=20250606-02:15:19.228|56=EXCHANGE|10=207|8=FIX.4.4|9=61|35=0|34=813|49=IRISPAR2|52=20250606-02:15:29.228|56=EXCHANGE|10=209|8=FIX.4.4|9=61|35=0|34=814|49=IRISPAR2|52=20250606-02:15:39.229|56=EXCHANGE|10=212|8=FIX.4.4|9=61|35=0|34=815|49=IRISPAR2|52=20250606-02:15:49.229|56=EXCHANGE|10=214|8=FIX.4.4|9=61|35=0|34=816|49=IRISPAR2|52=20250606-02:15:59.229|56=EXCHANGE|10=216|8=FIX.4.4|9=61|35=0|34=817|49=IRISPAR2|52=20250606-02:16:09.229|56=EXCHANGE|10=213|8=FIX.4.4|9=61|35=0|34=818|49=IRISPAR2|52=20250606-02:16:19.229|56=EXCHANGE|10=215|8=FIX.4.4|9=61|35=0|34=819|49=IRISPAR2|52=20250606-02:16:29.229|56=EXCHANGE|10=217|8=FIX.4.4|9=61|35=0|34=820|49=IRISPAR2|52=20250606-02:16:39.229|56=EXCHANGE|10=210|8=FIX.4.4|9=61|35=0|34=821|49=IRISPAR2|52=20250606-02:16:49.229|56=EXCHANGE|10=212|8=FIX.4.4|9=61|35=0|34=822|49=IRISPAR2|52=20250606-02:16:59.229|56=EXCHANGE|10=214|8=FIX.4.4|9=61|35=0|34=823|49=IRISPAR2|52=20250606-02:17:09.229|56=EXCHANGE|10=211|8=FIX.4.4|9=61|35=0|34=824|49=IRISPAR2|52=20250606-02:17:19.230|56=EXCHANGE|10=205|8=FIX.4.4|9=61|35=0|34=825|49=IRISPAR2|52=20250606-02:17:29.230|56=EXCHANGE|10=207|8=FIX.4.4|9=61|35=0|34=826|49=IRISPAR2|52=20250606-02:17:39.230|56=EXCHANGE|10=209|8=FIX.4.4|9=61|35=0|34=827|49=IRISPAR2|52=20250606-02:17:49.230|56=EXCHANGE|10=211|8=FIX.4.4|9=61|35=0|34=828|49=IRISPAR2|52=20250606-02:17:59.230|56=EXCHANGE|10=213|8=FIX.4.4|9=61|35=0|34=829|49=IRISPAR2|52=20250606-02:18:09.230|56=EXCHANGE|10=210|8=FIX.4.4|9=61|35=0|34=830|49=IRISPAR2|52=20250606-02:18:19.230|56=EXCHANGE|10=203|8=FIX.4.4|9=61|35=0|34=831|49=IRISPAR2|52=20250606-02:18:29.230|56=EXCHANGE|10=205|8=FIX.4.4|9=61|35=0|34=832|49=IRISPAR2|52=20250606-02:18:39.230|56=EXCHANGE|10=207|8=FIX.4.4|9=61|35=0|34=833|49=IRISPAR2|52=20250606-02:18:49.231|56=EXCHANGE|10=210|8=FIX.4.4|9=61|35=0|34=834|49=IRISPAR2|52=20250606-02:18:59.231|56=EXCHANGE|10=212|8=FIX.4.4|9=61|35=0|34=835|49=IRISPAR2|52=20250606-02:19:09.231|56=EXCHANGE|10=209|8=FIX.4.4|9=61|35=0|34=836|49=IRISPAR2|52=20250606-02:19:19.231|56=EXCHANGE|10=211|8=FIX.4.4|9=61|35=0|34=837|49=IRISPAR2|52=20250606-02:19:29.231|56=EXCHANGE|10=213|8=FIX.4.4|9=61|35=0|34=838|49=IRISPAR2|52=20250606-02:19:39.231|56=EXCHANGE|10=215|8=FIX.4.4|9=61|35=0|34=839|49=IRISPAR2|52=20250606-02:19:49.231|56=EXCHANGE|10=217|8=FIX.4.4|9=61|35=0|34=840|49=IRISPAR2|52=20250606-02:19:59.231|56=EXCHANGE|10=210|8=FIX.4.4|9=61|35=0|34=841|49=IRISPAR2|52=20250606-02:20:09.231|56=EXCHANGE|10=198|8=FIX.4.4|9=61|35=0|34=842|49=IRISPAR2|52=20250606-02:20:19.232|56=EXCHANGE|10=201|8=FIX.4.4|9=61|35=0|34=843|49=IRISPAR2|52=20250606-02:20:29.232|56=EXCHANGE|10=203|8=FIX.4.4|9=61|35=0|34=844|49=IRISPAR2|52=20250606-02:20:39.232|56=EXCHANGE|10=205|8=FIX.4.4|9=61|35=0|34=845|49=IRISPAR2|52=20250606-02:20:49.232|56=EXCHANGE|10=207|8=FIX.4.4|9=61|35=0|34=846|49=IRISPAR2|52=20250606-02:20:59.232|56=EXCHANGE|10=209|8=FIX.4.4|9=61|35=0|34=847|49=IRISPAR2|52=20250606-02:21:09.232|56=EXCHANGE|10=206|8=FIX.4.4|9=61|35=0|34=848|49=IRISPAR2|52=20250606-02:21:19.232|56=EXCHANGE|10=208|8=FIX.4.4|9=61|35=0|34=849|49=IRISPAR2|52=20250606-02:21:29.233|56=EXCHANGE|10=211|8=FIX.4.4|9=61|35=0|34=850|49=IRISPAR2|52=20250606-02:21:39.233|56=EXCHANGE|10=204|8=FIX.4.4|9=61|35=0|34=851|49=IRISPAR2|52=20250606-02:21:49.233|56=EXCHANGE|10=206|8=FIX.4.4|9=61|35=0|34=852|49=IRISPAR2|52=20250606-02:21:59.233|56=EXCHANGE|10=208|8=FIX.4.4|9=61|35=0|34=853|49=IRISPAR2|52=20250606-02:22:09.233|56=EXCHANGE|10=205|8=FIX.4.4|9=61|35=0|34=854|49=IRISPAR2|52=20250606-02:22:19.233|56=EXCHANGE|10=207|8=FIX.4.4|9=61|35=0|34=855|49=IRISPAR2|52=20250606-02:22:29.233|56=EXCHANGE|10=209|8=FIX.4.4|9=61|35=0|34=856|49=IRISPAR2|52=20250606-02:22:39.233|56=EXCHANGE|10=211|8=FIX.4.4|9=61|35=0|34=857|49=IRISPAR2|52=20250606-02:22:49.233|56=EXCHANGE|10=213|8=FIX.4.4|9=61|35=0|34=858|49=IRISPAR2|52=20250606-02:22:59.234|56=EXCHANGE|10=216|8=FIX.4.4|9=61|35=0|34=859|49=IRISPAR2|52=20250606-02:23:09.234|56=EXCHANGE|10=213|8=FIX.4.4|9=61|35=0|34=860|49=IRISPAR2|52=20250606-02:23:19.234|56=EXCHANGE|10=206|8=FIX.4.4|9=61|35=0|34=861|49=IRISPAR2|52=20250606-02:23:29.234|56=EXCHANGE|10=208|8=FIX.4.4|9=61|35=0|34=862|49=IRISPAR2|52=20250606-02:23:39.234|56=EXCHANGE|10=210|8=FIX.4.4|9=61|35=0|34=863|49=IRISPAR2|52=20250606-02:23:49.234|56=EXCHANGE|10=212|8=FIX.4.4|9=61|35=0|34=864|49=IRISPAR2|52=20250606-02:23:59.234|56=EXCHANGE|10=214|8=FIX.4.4|9=61|35=0|34=865|49=IRISPAR2|52=20250606-02:24:09.234|56=EXCHANGE|10=211|8=FIX.4.4|9=61|35=0|34=866|49=IRISPAR2|52=20250606-02:24:19.234|56=EXCHANGE|10=213|8=FIX.4.4|9=61|35=0|34=867|49=IRISPAR2|52=20250606-02:24:29.235|56=EXCHANGE|10=216|8=FIX.4.4|9=61|35=0|34=868|49=IRISPAR2|52=20250606-02:24:39.235|56=EXCHANGE|10=218|8=FIX.4.4|9=61|35=0|34=869|49=IRISPAR2|52=20250606-02:24:49.235|56=EXCHANGE|10=220|8=FIX.4.4|9=61|35=0|34=870|49=IRISPAR2|52=20250606-02:24:59.235|56=EXCHANGE|10=213|8=FIX.4.4|9=61|35=0|34=871|49=IRISPAR2|52=20250606-02:25:09.235|56=EXCHANGE|10=210|8=FIX.4.4|9=61|35=0|34=872|49=IRISPAR2|52=20250606-02:25:19.235|56=EXCHANGE|10=212|8=FIX.4.4|9=61|35=0|34=873|49=IRISPAR2|52=20250606-02:25:29.235|56=EXCHANGE|10=214|8=FIX.4.4|9=61|35=0|34=874|49=IRISPAR2|52=20250606-02:25:39.235|56=EXCHANGE|10=216|8=FIX.4.4|9=61|35=0|34=875|49=IRISPAR2|52=20250606-02:25:49.235|56=EXCHANGE|10=218|8=FIX.4.4|9=61|35=0|34=876|49=IRISPAR2|52=20250606-02:25:59.236|56=EXCHANGE|10=221|8=FIX.4.4|9=61|35=0|34=877|49=IRISPAR2|52=20250606-02:26:09.236|56=EXCHANGE|10=218|8=FIX.4.4|9=61|35=0|34=878|49=IRISPAR2|52=20250606-02:26:19.236|56=EXCHANGE|10=220|8=FIX.4.4|9=61|35=0|34=879|49=IRISPAR2|52=20250606-02:26:29.236|56=EXCHANGE|10=222|8=FIX.4.4|9=61|35=0|34=880|49=IRISPAR2|52=20250606-02:26:39.236|56=EXCHANGE|10=215|8=FIX.4.4|9=61|35=0|34=881|49=IRISPAR2|52=20250606-02:26:49.236|56=EXCHANGE|10=217|8=FIX.4.4|9=61|35=0|34=882|49=IRISPAR2|52=20250606-02:26:59.236|56=EXCHANGE|10=219|8=FIX.4.4|9=61|35=0|34=883|49=IRISPAR2|52=20250606-02:27:09.236|56=EXCHANGE|10=216|8=FIX.4.4|9=61|35=0|34=884|49=IRISPAR2|52=20250606-02:27:19.236|56=EXCHANGE|10=218|8=FIX.4.4|9=61|35=0|34=885|49=IRISPAR2|52=20250606-02:27:29.237|56=EXCHANGE|10=221|8=FIX.4.4|9=61|35=0|34=886|49=IRISPAR2|52=20250606-02:27:39.237|56=EXCHANGE|10=223|8=FIX.4.4|9=61|35=0|34=887|49=IRISPAR2|52=20250606-02:27:49.237|56=EXCHANGE|10=225|8=FIX.4.4|9=61|35=0|34=888|49=IRISPAR2|52=20250606-02:27:59.237|56=EXCHANGE|10=227|8=FIX.4.4|9=61|35=0|34=889|49=IRISPAR2|52=20250606-02:28:09.237|56=EXCHANGE|10=224|8=FIX.4.4|9=61|35=0|34=890|49=IRISPAR2|52=20250606-02:28:19.237|56=EXCHANGE|10=217|8=FIX.4.4|9=61|35=0|34=891|49=IRISPAR2|52=20250606-02:28:29.237|56=EXCHANGE|10=219|8=FIX.4.4|9=61|35=0|34=892|49=IRISPAR2|52=20250606-02:28:39.237|56=EXCHANGE|10=221|8=FIX.4.4|9=61|35=0|34=893|49=IRISPAR2|52=20250606-02:28:49.237|56=EXCHANGE|10=223|8=FIX.4.4|9=61|35=0|34=894|49=IRISPAR2|52=20250606-02:28:59.238|56=EXCHANGE|10=226|8=FIX.4.4|9=61|35=0|34=895|49=IRISPAR2|52=20250606-02:29:09.238|56=EXCHANGE|10=223|8=FIX.4.4|9=61|35=0|34=896|49=IRISPAR2|52=20250606-02:29:19.238|56=EXCHANGE|10=225|8=FIX.4.4|9=61|35=0|34=897|49=IRISPAR2|52=20250606-02:29:29.238|56=EXCHANGE|10=227|8=FIX.4.4|9=61|35=0|34=898|49=IRISPAR2|52=20250606-02:29:39.238|56=EXCHANGE|10=229|8=FIX.4.4|9=61|35=0|34=899|49=IRISPAR2|52=20250606-02:29:49.238|56=EXCHANGE|10=231|8=FIX.4.4|9=61|35=0|34=900|49=IRISPAR2|52=20250606-02:29:59.238|56=EXCHANGE|10=215|8=FIX.4.4|9=61|35=0|34=901|49=IRISPAR2|52=20250606-02:30:09.238|56=EXCHANGE|10=203|8=FIX.4.4|9=61|35=0|34=902|49=IRISPAR2|52=20250606-02:30:19.238|56=EXCHANGE|10=205|8=FIX.4.4|9=61|35=0|34=903|49=IRISPAR2|52=20250606-02:30:29.239|56=EXCHANGE|10=208|8=FIX.4.4|9=61|35=0|34=904|49=IRISPAR2|52=20250606-02:30:39.239|56=EXCHANGE|10=210|8=FIX.4.4|9=61|35=0|34=905|49=IRISPAR2|52=20250606-02:30:49.239|56=EXCHANGE|10=212|8=FIX.4.4|9=61|35=0|34=906|49=IRISPAR2|52=20250606-02:30:59.239|56=EXCHANGE|10=214|8=FIX.4.4|9=61|35=0|34=907|49=IRISPAR2|52=20250606-02:31:09.239|56=EXCHANGE|10=211|8=FIX.4.4|9=61|35=0|34=908|49=IRISPAR2|52=20250606-02:31:19.239|56=EXCHANGE|10=213|8=FIX.4.4|9=61|35=0|34=909|49=IRISPAR2|52=20250606-02:31:29.239|56=EXCHANGE|10=215|8=FIX.4.4|9=61|35=0|34=910|49=IRISPAR2|52=20250606-02:31:39.239|56=EXCHANGE|10=208|8=FIX.4.4|9=61|35=0|34=911|49=IRISPAR2|52=20250606-02:31:49.239|56=EXCHANGE|10=210|8=FIX.4.4|9=61|35=0|34=912|49=IRISPAR2|52=20250606-02:31:59.239|56=EXCHANGE|10=212|8=FIX.4.4|9=61|35=0|34=913|49=IRISPAR2|52=20250606-02:32:09.240|56=EXCHANGE|10=201|8=FIX.4.4|9=61|35=0|34=914|49=IRISPAR2|52=20250606-02:32:19.240|56=EXCHANGE|10=203|8=FIX.4.4|9=61|35=0|34=915|49=IRISPAR2|52=20250606-02:32:29.240|56=EXCHANGE|10=205|8=FIX.4.4|9=61|35=0|34=916|49=IRISPAR2|52=20250606-02:32:39.240|56=EXCHANGE|10=207|8=FIX.4.4|9=61|35=0|34=917|49=IRISPAR2|52=20250606-02:32:49.240|56=EXCHANGE|10=209|8=FIX.4.4|9=61|35=0|34=918|49=IRISPAR2|52=20250606-02:32:59.240|56=EXCHANGE|10=211|8=FIX.4.4|9=61|35=0|34=919|49=IRISPAR2|52=20250606-02:33:09.240|56=EXCHANGE|10=208|8=FIX.4.4|9=61|35=0|34=920|49=IRISPAR2|52=20250606-02:33:19.240|56=EXCHANGE|10=201|8=FIX.4.4|9=61|35=0|34=921|49=IRISPAR2|52=20250606-02:33:29.240|56=EXCHANGE|10=203|8=FIX.4.4|9=61|35=0|34=922|49=IRISPAR2|52=20250606-02:33:39.240|56=EXCHANGE|10=205|8=FIX.4.4|9=61|35=0|34=923|49=IRISPAR2|52=20250606-02:33:49.241|56=EXCHANGE|10=208|8=FIX.4.4|9=61|35=0|34=924|49=IRISPAR2|52=20250606-02:33:59.241|56=EXCHANGE|10=210|8=FIX.4.4|9=61|35=0|34=925|49=IRISPAR2|52=20250606-02:34:09.241|56=EXCHANGE|10=207|8=FIX.4.4|9=61|35=0|34=926|49=IRISPAR2|52=20250606-02:34:19.241|56=EXCHANGE|10=209|8=FIX.4.4|9=61|35=0|34=927|49=IRISPAR2|52=20250606-02:34:29.241|56=EXCHANGE|10=211|8=FIX.4.4|9=61|35=0|34=928|49=IRISPAR2|52=20250606-02:34:39.241|56=EXCHANGE|10=213|8=FIX.4.4|9=61|35=0|34=929|49=IRISPAR2|52=20250606-02:34:49.241|56=EXCHANGE|10=215|8=FIX.4.4|9=61|35=0|34=930|49=IRISPAR2|52=20250606-02:34:59.241|56=EXCHANGE|10=208|8=FIX.4.4|9=61|35=0|34=931|49=IRISPAR2|52=20250606-02:35:09.241|56=EXCHANGE|10=205|8=FIX.4.4|9=61|35=0|34=932|49=IRISPAR2|52=20250606-02:35:19.242|56=EXCHANGE|10=208|8=FIX.4.4|9=61|35=0|34=933|49=IRISPAR2|52=20250606-02:35:29.242|56=EXCHANGE|10=210|8=FIX.4.4|9=61|35=0|34=934|49=IRISPAR2|52=20250606-02:35:39.242|56=EXCHANGE|10=212|8=FIX.4.4|9=61|35=0|34=935|49=IRISPAR2|52=20250606-02:35:49.242|56=EXCHANGE|10=214|8=FIX.4.4|9=61|35=0|34=936|49=IRISPAR2|52=20250606-02:35:59.242|56=EXCHANGE|10=216|8=FIX.4.4|9=61|35=0|34=937|49=IRISPAR2|52=20250606-02:36:09.242|56=EXCHANGE|10=213|8=FIX.4.4|9=61|35=0|34=938|49=IRISPAR2|52=20250606-02:36:19.242|56=EXCHANGE|10=215|8=FIX.4.4|9=61|35=0|34=939|49=IRISPAR2|52=20250606-02:36:29.242|56=EXCHANGE|10=217|8=FIX.4.4|9=61|35=0|34=940|49=IRISPAR2|52=20250606-02:36:39.243|56=EXCHANGE|10=211|8=FIX.4.4|9=61|35=0|34=941|49=IRISPAR2|52=20250606-02:36:49.243|56=EXCHANGE|10=213|8=FIX.4.4|9=61|35=0|34=942|49=IRISPAR2|52=20250606-02:36:59.243|56=EXCHANGE|10=215|8=FIX.4.4|9=61|35=0|34=943|49=IRISPAR2|52=20250606-02:37:09.243|56=EXCHANGE|10=212|8=FIX.4.4|9=61|35=0|34=944|49=IRISPAR2|52=20250606-02:37:19.243|56=EXCHANGE|10=214|8=FIX.4.4|9=61|35=0|34=945|49=IRISPAR2|52=20250606-02:37:29.243|56=EXCHANGE|10=216|8=FIX.4.4|9=61|35=0|34=946|49=IRISPAR2|52=20250606-02:37:39.243|56=EXCHANGE|10=218|8=FIX.4.4|9=61|35=0|34=947|49=IRISPAR2|52=20250606-02:37:49.243|56=EXCHANGE|10=220|8=FIX.4.4|9=61|35=0|34=948|49=IRISPAR2|52=20250606-02:37:59.243|56=EXCHANGE|10=222|8=FIX.4.4|9=61|35=0|34=949|49=IRISPAR2|52=20250606-02:38:09.243|56=EXCHANGE|10=219|8=FIX.4.4|9=61|35=0|34=950|49=IRISPAR2|52=20250606-02:38:19.243|56=EXCHANGE|10=212|8=FIX.4.4|9=61|35=0|34=951|49=IRISPAR2|52=20250606-02:38:29.244|56=EXCHANGE|10=215|8=FIX.4.4|9=61|35=0|34=952|49=IRISPAR2|52=20250606-02:38:39.244|56=EXCHANGE|10=217|8=FIX.4.4|9=61|35=0|34=953|49=IRISPAR2|52=20250606-02:38:49.244|56=EXCHANGE|10=219|8=FIX.4.4|9=61|35=0|34=954|49=IRISPAR2|52=20250606-02:38:59.244|56=EXCHANGE|10=221|8=FIX.4.4|9=61|35=0|34=955|49=IRISPAR2|52=20250606-02:39:09.244|56=EXCHANGE|10=218|8=FIX.4.4|9=61|35=0|34=956|49=IRISPAR2|52=20250606-02:39:19.244|56=EXCHANGE|10=220|8=FIX.4.4|9=61|35=0|34=957|49=IRISPAR2|52=20250606-02:39:29.244|56=EXCHANGE|10=222|8=FIX.4.4|9=61|35=0|34=958|49=IRISPAR2|52=20250606-02:39:39.244|56=EXCHANGE|10=224|8=FIX.4.4|9=61|35=0|34=959|49=IRISPAR2|52=20250606-02:39:49.245|56=EXCHANGE|10=227|8=FIX.4.4|9=61|35=0|34=960|49=IRISPAR2|52=20250606-02:39:59.245|56=EXCHANGE|10=220|8=FIX.4.4|9=61|35=0|34=961|49=IRISPAR2|52=20250606-02:40:09.245|56=EXCHANGE|10=208|8=FIX.4.4|9=61|35=0|34=962|49=IRISPAR2|52=20250606-02:40:19.245|56=EXCHANGE|10=210|8=FIX.4.4|9=61|35=0|34=963|49=IRISPAR2|52=20250606-02:40:29.245|56=EXCHANGE|10=212|8=FIX.4.4|9=61|35=0|34=964|49=IRISPAR2|52=20250606-02:40:39.245|56=EXCHANGE|10=214|8=FIX.4.4|9=61|35=0|34=965|49=IRISPAR2|52=20250606-02:40:49.245|56=EXCHANGE|10=216|8=FIX.4.4|9=61|35=0|34=966|49=IRISPAR2|52=20250606-02:40:59.245|56=EXCHANGE|10=218|8=FIX.4.4|9=61|35=0|34=967|49=IRISPAR2|52=20250606-02:41:09.246|56=EXCHANGE|10=216|8=FIX.4.4|9=61|35=0|34=968|49=IRISPAR2|52=20250606-02:41:19.246|56=EXCHANGE|10=218|8=FIX.4.4|9=61|35=0|34=969|49=IRISPAR2|52=20250606-02:41:29.246|56=EXCHANGE|10=220|8=FIX.4.4|9=61|35=0|34=970|49=IRISPAR2|52=20250606-02:41:39.246|56=EXCHANGE|10=213|8=FIX.4.4|9=61|35=0|34=971|49=IRISPAR2|52=20250606-02:41:49.246|56=EXCHANGE|10=215|8=FIX.4.4|9=61|35=0|34=972|49=IRISPAR2|52=20250606-02:41:59.246|56=EXCHANGE|10=217|8=FIX.4.4|9=61|35=0|34=973|49=IRISPAR2|52=20250606-02:42:09.246|56=EXCHANGE|10=214|8=FIX.4.4|9=61|35=0|34=974|49=IRISPAR2|52=20250606-02:42:19.246|56=EXCHANGE|10=216|8=FIX.4.4|9=61|35=0|34=975|49=IRISPAR2|52=20250606-02:42:29.246|56=EXCHANGE|10=218|8=FIX.4.4|9=61|35=0|34=976|49=IRISPAR2|52=20250606-02:42:39.247|56=EXCHANGE|10=221|8=FIX.4.4|9=61|35=0|34=977|49=IRISPAR2|52=20250606-02:42:49.247|56=EXCHANGE|10=223|8=FIX.4.4|9=61|35=0|34=978|49=IRISPAR2|52=20250606-02:42:59.247|56=EXCHANGE|10=225|8=FIX.4.4|9=61|35=0|34=979|49=IRISPAR2|52=20250606-02:43:09.247|56=EXCHANGE|10=222|8=FIX.4.4|9=61|35=0|34=980|49=IRISPAR2|52=20250606-02:43:19.247|56=EXCHANGE|10=215|8=FIX.4.4|9=61|35=0|34=981|49=IRISPAR2|52=20250606-02:43:29.247|56=EXCHANGE|10=217|8=FIX.4.4|9=61|35=0|34=982|49=IRISPAR2|52=20250606-02:43:39.247|56=EXCHANGE|10=219|8=FIX.4.4|9=61|35=0|34=983|49=IRISPAR2|52=20250606-02:43:49.247|56=EXCHANGE|10=221|8=FIX.4.4|9=61|35=0|34=984|49=IRISPAR2|52=20250606-02:43:59.247|56=EXCHANGE|10=223|8=FIX.4.4|9=61|35=0|34=985|49=IRISPAR2|52=20250606-02:44:09.248|56=EXCHANGE|10=221|8=FIX.4.4|9=61|35=0|34=986|49=IRISPAR2|52=20250606-02:44:19.248|56=EXCHANGE|10=223|8=FIX.4.4|9=61|35=0|34=987|49=IRISPAR2|52=20250606-02:44:29.248|56=EXCHANGE|10=225|8=FIX.4.4|9=61|35=0|34=988|49=IRISPAR2|52=20250606-02:44:39.248|56=EXCHANGE|10=227|8=FIX.4.4|9=61|35=0|34=989|49=IRISPAR2|52=20250606-02:44:49.248|56=EXCHANGE|10=229|8=FIX.4.4|9=61|35=0|34=990|49=IRISPAR2|52=20250606-02:44:59.248|56=EXCHANGE|10=222|8=FIX.4.4|9=61|35=0|34=991|49=IRISPAR2|52=20250606-02:45:09.248|56=EXCHANGE|10=219|8=FIX.4.4|9=61|35=0|34=992|49=IRISPAR2|52=20250606-02:45:19.248|56=EXCHANGE|10=221|8=FIX.4.4|9=61|35=0|34=993|49=IRISPAR2|52=20250606-02:45:29.248|56=EXCHANGE|10=223|8=FIX.4.4|9=61|35=0|34=994|49=IRISPAR2|52=20250606-02:45:39.249|56=EXCHANGE|10=226|8=FIX.4.4|9=61|35=0|34=995|49=IRISPAR2|52=20250606-02:45:49.249|56=EXCHANGE|10=228|8=FIX.4.4|9=61|35=0|34=996|49=IRISPAR2|52=20250606-02:45:59.249|56=EXCHANGE|10=230|8=FIX.4.4|9=61|35=0|34=997|49=IRISPAR2|52=20250606-02:46:09.249|56=EXCHANGE|10=227|8=FIX.4.4|9=61|35=0|34=998|49=IRISPAR2|52=20250606-02:46:19.249|56=EXCHANGE|10=229|8=FIX.4.4|9=61|35=0|34=999|49=IRISPAR2|52=20250606-02:46:29.249|56=EXCHANGE|10=231|8=FIX.4.4|9=62|35=0|34=1000|49=IRISPAR2|52=20250606-02:46:39.250|56=EXCHANGE|10=247|8=FIX.4.4|9=62|35=0|34=1001|49=IRISPAR2|52=20250606-02:46:49.250|56=EXCHANGE|10=249|8=FIX.4.4|9=62|35=0|34=1002|49=IRISPAR2|52=20250606-02:46:59.250|56=EXCHANGE|10=251|8=FIX.4.4|9=62|35=0|34=1003|49=IRISPAR2|52=20250606-02:47:09.250|56=EXCHANGE|10=248|8=FIX.4.4|9=62|35=0|34=1004|49=IRISPAR2|52=20250606-02:47:19.250|56=EXCHANGE|10=250|8=FIX.4.4|9=62|35=0|34=1005|49=IRISPAR2|52=20250606-02:47:29.250|56=EXCHANGE|10=252|8=FIX.4.4|9=62|35=0|34=1006|49=IRISPAR2|52=20250606-02:47:39.250|56=EXCHANGE|10=254|8=FIX.4.4|9=62|35=0|34=1007|49=IRISPAR2|52=20250606-02:47:49.250|56=EXCHANGE|10=000|8=FIX.4.4|9=62|35=0|34=1008|49=IRISPAR2|52=20250606-02:47:59.250|56=EXCHANGE|10=002|8=FIX.4.4|9=62|35=0|34=1009|49=IRISPAR2|52=20250606-02:48:09.250|56=EXCHANGE|10=255|8=FIX.4.4|9=62|35=0|34=1010|49=IRISPAR2|52=20250606-02:48:19.251|56=EXCHANGE|10=249|8=FIX.4.4|9=62|35=0|34=1011|49=IRISPAR2|52=20250606-02:48:29.251|56=EXCHANGE|10=251|8=FIX.4.4|9=62|35=0|34=1012|49=IRISPAR2|52=20250606-02:48:39.251|56=EXCHANGE|10=253|8=FIX.4.4|9=62|35=0|34=1013|49=IRISPAR2|52=20250606-02:48:49.251|56=EXCHANGE|10=255|8=FIX.4.4|9=62|35=0|34=1014|49=IRISPAR2|52=20250606-02:48:59.251|56=EXCHANGE|10=001|8=FIX.4.4|9=62|35=0|34=1015|49=IRISPAR2|52=20250606-02:49:09.251|56=EXCHANGE|10=254|8=FIX.4.4|9=62|35=0|34=1016|49=IRISPAR2|52=20250606-02:49:19.251|56=EXCHANGE|10=000|8=FIX.4.4|9=62|35=0|34=1017|49=IRISPAR2|52=20250606-02:49:29.251|56=EXCHANGE|10=002|8=FIX.4.4|9=62|35=0|34=1018|49=IRISPAR2|52=20250606-02:49:39.252|56=EXCHANGE|10=005|8=FIX.4.4|9=62|35=0|34=1019|49=IRISPAR2|52=20250606-02:49:49.252|56=EXCHANGE|10=007|8=FIX.4.4|9=62|35=0|34=1020|49=IRISPAR2|52=20250606-02:49:59.252|56=EXCHANGE|10=000|8=FIX.4.4|9=62|35=0|34=1021|49=IRISPAR2|52=20250606-02:50:09.252|56=EXCHANGE|10=244|8=FIX.4.4|9=62|35=0|34=1022|49=IRISPAR2|52=20250606-02:50:19.252|56=EXCHANGE|10=246|8=FIX.4.4|9=62|35=0|34=1023|49=IRISPAR2|52=20250606-02:50:29.252|56=EXCHANGE|10=248|8=FIX.4.4|9=62|35=0|34=1024|49=IRISPAR2|52=20250606-02:50:39.252|56=EXCHANGE|10=250|8=FIX.4.4|9=62|35=0|34=1025|49=IRISPAR2|52=20250606-02:50:49.252|56=EXCHANGE|10=252|8=FIX.4.4|9=62|35=0|34=1026|49=IRISPAR2|52=20250606-02:50:59.252|56=EXCHANGE|10=254|8=FIX.4.4|9=62|35=0|34=1027|49=IRISPAR2|52=20250606-02:51:09.252|56=EXCHANGE|10=251|8=FIX.4.4|9=62|35=0|34=1028|49=IRISPAR2|52=20250606-02:51:19.252|56=EXCHANGE|10=253|8=FIX.4.4|9=62|35=0|34=1029|49=IRISPAR2|52=20250606-02:51:29.253|56=EXCHANGE|10=000|8=FIX.4.4|9=62|35=0|34=1030|49=IRISPAR2|52=20250606-02:51:39.253|56=EXCHANGE|10=249|8=FIX.4.4|9=62|35=0|34=1031|49=IRISPAR2|52=20250606-02:51:49.253|56=EXCHANGE|10=251|8=FIX.4.4|9=62|35=0|34=1032|49=IRISPAR2|52=20250606-02:51:59.253|56=EXCHANGE|10=253|8=FIX.4.4|9=62|35=0|34=1033|49=IRISPAR2|52=20250606-02:52:09.253|56=EXCHANGE|10=250|8=FIX.4.4|9=62|35=0|34=1034|49=IRISPAR2|52=20250606-02:52:19.253|56=EXCHANGE|10=252|8=FIX.4.4|9=62|35=0|34=1035|49=IRISPAR2|52=20250606-02:52:29.253|56=EXCHANGE|10=254|8=FIX.4.4|9=62|35=0|34=1036|49=IRISPAR2|52=20250606-02:52:39.253|56=EXCHANGE|10=000|8=FIX.4.4|9=62|35=0|34=1037|49=IRISPAR2|52=20250606-02:52:49.253|56=EXCHANGE|10=002|8=FIX.4.4|9=62|35=0|34=1038|49=IRISPAR2|52=20250606-02:52:59.254|56=EXCHANGE|10=005|8=FIX.4.4|9=62|35=0|34=1039|49=IRISPAR2|52=20250606-02:53:09.254|56=EXCHANGE|10=002|8=FIX.4.4|9=62|35=0|34=1040|49=IRISPAR2|52=20250606-02:53:19.254|56=EXCHANGE|10=251|8=FIX.4.4|9=62|35=0|34=1041|49=IRISPAR2|52=20250606-02:53:29.254|56=EXCHANGE|10=253|8=FIX.4.4|9=62|35=0|34=1042|49=IRISPAR2|52=20250606-02:53:39.254|56=EXCHANGE|10=255|8=FIX.4.4|9=62|35=0|34=1043|49=IRISPAR2|52=20250606-02:53:49.254|56=EXCHANGE|10=001|8=FIX.4.4|9=62|35=0|34=1044|49=IRISPAR2|52=20250606-02:53:59.254|56=EXCHANGE|10=003|8=FIX.4.4|9=62|35=0|34=1045|49=IRISPAR2|52=20250606-02:54:09.254|56=EXCHANGE|10=000|8=FIX.4.4|9=62|35=0|34=1046|49=IRISPAR2|52=20250606-02:54:19.254|56=EXCHANGE|10=002|8=FIX.4.4|9=62|35=0|34=1047|49=IRISPAR2|52=20250606-02:54:29.255|56=EXCHANGE|10=005|8=FIX.4.4|9=62|35=0|34=1048|49=IRISPAR2|52=20250606-02:54:39.255|56=EXCHANGE|10=007|8=FIX.4.4|9=62|35=0|34=1049|49=IRISPAR2|52=20250606-02:54:49.255|56=EXCHANGE|10=009|8=FIX.4.4|9=62|35=0|34=1050|49=IRISPAR2|52=20250606-02:54:59.255|56=EXCHANGE|10=002|8=FIX.4.4|9=62|35=0|34=1051|49=IRISPAR2|52=20250606-02:55:09.255|56=EXCHANGE|10=255|8=FIX.4.4|9=62|35=0|34=1052|49=IRISPAR2|52=20250606-02:55:19.255|56=EXCHANGE|10=001|8=FIX.4.4|9=62|35=0|34=1053|49=IRISPAR2|52=20250606-02:55:29.255|56=EXCHANGE|10=003|8=FIX.4.4|9=62|35=0|34=1054|49=IRISPAR2|52=20250606-02:55:39.255|56=EXCHANGE|10=005|8=FIX.4.4|9=62|35=0|34=1055|49=IRISPAR2|52=20250606-02:55:49.255|56=EXCHANGE|10=007|8=FIX.4.4|9=62|35=0|34=1056|49=IRISPAR2|52=20250606-02:55:59.256|56=EXCHANGE|10=010|8=FIX.4.4|9=62|35=0|34=1057|49=IRISPAR2|52=20250606-02:56:09.256|56=EXCHANGE|10=007|8=FIX.4.4|9=62|35=0|34=1058|49=IRISPAR2|52=20250606-02:56:19.256|56=EXCHANGE|10=009|8=FIX.4.4|9=62|35=0|34=1059|49=IRISPAR2|52=20250606-02:56:29.256|56=EXCHANGE|10=011|8=FIX.4.4|9=62|35=0|34=1060|49=IRISPAR2|52=20250606-02:56:39.256|56=EXCHANGE|10=004|8=FIX.4.4|9=62|35=0|34=1061|49=IRISPAR2|52=20250606-02:56:49.256|56=EXCHANGE|10=006|8=FIX.4.4|9=62|35=0|34=1062|49=IRISPAR2|52=20250606-02:56:59.256|56=EXCHANGE|10=008|8=FIX.4.4|9=62|35=0|34=1063|49=IRISPAR2|52=20250606-02:57:09.256|56=EXCHANGE|10=005|8=FIX.4.4|9=62|35=0|34=1064|49=IRISPAR2|52=20250606-02:57:19.256|56=EXCHANGE|10=007|8=FIX.4.4|9=62|35=0|34=1065|49=IRISPAR2|52=20250606-02:57:29.256|56=EXCHANGE|10=009|8=FIX.4.4|9=62|35=0|34=1066|49=IRISPAR2|52=20250606-02:57:39.257|56=EXCHANGE|10=012|8=FIX.4.4|9=62|35=0|34=1067|49=IRISPAR2|52=20250606-02:57:49.257|56=EXCHANGE|10=014|8=FIX.4.4|9=62|35=0|34=1068|49=IRISPAR2|52=20250606-02:57:59.257|56=EXCHANGE|10=016|8=FIX.4.4|9=62|35=0|34=1069|49=IRISPAR2|52=20250606-02:58:09.257|56=EXCHANGE|10=013|8=FIX.4.4|9=62|35=0|34=1070|49=IRISPAR2|52=20250606-02:58:19.257|56=EXCHANGE|10=006|8=FIX.4.4|9=62|35=0|34=1071|49=IRISPAR2|52=20250606-02:58:29.257|56=EXCHANGE|10=008|8=FIX.4.4|9=62|35=0|34=1072|49=IRISPAR2|52=20250606-02:58:39.257|56=EXCHANGE|10=010|8=FIX.4.4|9=62|35=0|34=1073|49=IRISPAR2|52=20250606-02:58:49.257|56=EXCHANGE|10=012|8=FIX.4.4|9=62|35=0|34=1074|49=IRISPAR2|52=20250606-02:58:59.257|56=EXCHANGE|10=014|8=FIX.4.4|9=62|35=0|34=1075|49=IRISPAR2|52=20250606-02:59:09.258|56=EXCHANGE|10=012|8=FIX.4.4|9=62|35=0|34=1076|49=IRISPAR2|52=20250606-02:59:19.258|56=EXCHANGE|10=014|8=FIX.4.4|9=62|35=0|34=1077|49=IRISPAR2|52=20250606-02:59:29.258|56=EXCHANGE|10=016|8=FIX.4.4|9=62|35=0|34=1078|49=IRISPAR2|52=20250606-02:59:39.258|56=EXCHANGE|10=018|8=FIX.4.4|9=62|35=0|34=1079|49=IRISPAR2|52=20250606-02:59:49.258|56=EXCHANGE|10=020|8=FIX.4.4|9=62|35=0|34=1080|49=IRISPAR2|52=20250606-02:59:59.258|56=EXCHANGE|10=013|8=FIX.4.4|9=62|35=0|34=1081|49=IRISPAR2|52=20250606-03:00:09.258|56=EXCHANGE|10=252|8=FIX.4.4|9=62|35=0|34=1082|49=IRISPAR2|52=20250606-03:00:19.258|56=EXCHANGE|10=254|8=FIX.4.4|9=62|35=0|34=1083|49=IRISPAR2|52=20250606-03:00:29.258|56=EXCHANGE|10=000|8=FIX.4.4|9=62|35=0|34=1084|49=IRISPAR2|52=20250606-03:00:39.258|56=EXCHANGE|10=002|8=FIX.4.4|9=62|35=0|34=1085|49=IRISPAR2|52=20250606-03:00:49.259|56=EXCHANGE|10=005|8=FIX.4.4|9=62|35=0|34=1086|49=IRISPAR2|52=20250606-03:00:59.259|56=EXCHANGE|10=007|8=FIX.4.4|9=62|35=0|34=1087|49=IRISPAR2|52=20250606-03:01:09.259|56=EXCHANGE|10=004|8=FIX.4.4|9=62|35=0|34=1088|49=IRISPAR2|52=20250606-03:01:19.259|56=EXCHANGE|10=006|8=FIX.4.4|9=62|35=0|34=1089|49=IRISPAR2|52=20250606-03:01:29.259|56=EXCHANGE|10=008|8=FIX.4.4|9=62|35=0|34=1090|49=IRISPAR2|52=20250606-03:01:39.259|56=EXCHANGE|10=001|8=FIX.4.4|9=62|35=0|34=1091|49=IRISPAR2|52=20250606-03:01:49.259|56=EXCHANGE|10=003|8=FIX.4.4|9=62|35=0|34=1092|49=IRISPAR2|52=20250606-03:01:59.259|56=EXCHANGE|10=005|8=FIX.4.4|9=62|35=0|34=1093|49=IRISPAR2|52=20250606-03:02:09.259|56=EXCHANGE|10=002|8=FIX.4.4|9=62|35=0|34=1094|49=IRISPAR2|52=20250606-03:02:19.260|56=EXCHANGE|10=252|8=FIX.4.4|9=62|35=0|34=1095|49=IRISPAR2|52=20250606-03:02:29.260|56=EXCHANGE|10=254|8=FIX.4.4|9=62|35=0|34=1096|49=IRISPAR2|52=20250606-03:02:39.260|56=EXCHANGE|10=000|8=FIX.4.4|9=62|35=0|34=1097|49=IRISPAR2|52=20250606-03:02:49.260|56=EXCHANGE|10=002|8=FIX.4.4|9=62|35=0|34=1098|49=IRISPAR2|52=20250606-03:02:59.260|56=EXCHANGE|10=004|8=FIX.4.4|9=62|35=0|34=1099|49=IRISPAR2|52=20250606-03:03:09.260|56=EXCHANGE|10=001|8=FIX.4.4|9=62|35=0|34=1100|49=IRISPAR2|52=20250606-03:03:19.260|56=EXCHANGE|10=241|8=FIX.4.4|9=62|35=0|34=1101|49=IRISPAR2|52=20250606-03:03:29.260|56=EXCHANGE|10=243|8=FIX.4.4|9=62|35=0|34=1102|49=IRISPAR2|52=20250606-03:03:39.260|56=EXCHANGE|10=245|8=FIX.4.4|9=62|35=0|34=1103|49=IRISPAR2|52=20250606-03:03:49.261|56=EXCHANGE|10=248|8=FIX.4.4|9=62|35=0|34=1104|49=IRISPAR2|52=20250606-03:03:59.261|56=EXCHANGE|10=250|8=FIX.4.4|9=62|35=0|34=1105|49=IRISPAR2|52=20250606-03:04:09.261|56=EXCHANGE|10=247|8=FIX.4.4|9=62|35=0|34=1106|49=IRISPAR2|52=20250606-03:04:19.261|56=EXCHANGE|10=249|8=FIX.4.4|9=62|35=0|34=1107|49=IRISPAR2|52=20250606-03:04:29.261|56=EXCHANGE|10=251|8=FIX.4.4|9=62|35=0|34=1108|49=IRISPAR2|52=20250606-03:04:39.261|56=EXCHANGE|10=253|8=FIX.4.4|9=62|35=0|34=1109|49=IRISPAR2|52=20250606-03:04:49.261|56=EXCHANGE|10=255|8=FIX.4.4|9=62|35=0|34=1110|49=IRISPAR2|52=20250606-03:04:59.261|56=EXCHANGE|10=248|8=FIX.4.4|9=62|35=0|34=1111|49=IRISPAR2|52=20250606-03:05:09.262|56=EXCHANGE|10=246|8=FIX.4.4|9=62|35=0|34=1112|49=IRISPAR2|52=20250606-03:05:19.262|56=EXCHANGE|10=248|8=FIX.4.4|9=62|35=0|34=1113|49=IRISPAR2|52=20250606-03:05:29.262|56=EXCHANGE|10=250|8=FIX.4.4|9=62|35=0|34=1114|49=IRISPAR2|52=20250606-03:05:39.262|56=EXCHANGE|10=252|8=FIX.4.4|9=62|35=0|34=1115|49=IRISPAR2|52=20250606-03:05:49.262|56=EXCHANGE|10=254|8=FIX.4.4|9=62|35=0|34=1116|49=IRISPAR2|52=20250606-03:05:59.262|56=EXCHANGE|10=000|8=FIX.4.4|9=62|35=0|34=1117|49=IRISPAR2|52=20250606-03:06:09.262|56=EXCHANGE|10=253|8=FIX.4.4|9=62|35=0|34=1118|49=IRISPAR2|52=20250606-03:06:19.262|56=EXCHANGE|10=255|8=FIX.4.4|9=62|35=0|34=1119|49=IRISPAR2|52=20250606-03:06:29.263|56=EXCHANGE|10=002|8=FIX.4.4|9=62|35=0|34=1120|49=IRISPAR2|52=20250606-03:06:39.263|56=EXCHANGE|10=251|8=FIX.4.4|9=62|35=0|34=1121|49=IRISPAR2|52=20250606-03:06:49.263|56=EXCHANGE|10=253|8=FIX.4.4|9=62|35=0|34=1122|49=IRISPAR2|52=20250606-03:06:59.263|56=EXCHANGE|10=255|8=FIX.4.4|9=62|35=0|34=1123|49=IRISPAR2|52=20250606-03:07:09.263|56=EXCHANGE|10=252|8=FIX.4.4|9=62|35=0|34=1124|49=IRISPAR2|52=20250606-03:07:19.263|56=EXCHANGE|10=254|8=FIX.4.4|9=62|35=0|34=1125|49=IRISPAR2|52=20250606-03:07:29.263|56=EXCHANGE|10=000|8=FIX.4.4|9=62|35=0|34=1126|49=IRISPAR2|52=20250606-03:07:39.263|56=EXCHANGE|10=002|8=FIX.4.4|9=62|35=0|34=1127|49=IRISPAR2|52=20250606-03:07:49.263|56=EXCHANGE|10=004|8=FIX.4.4|9=62|35=0|34=1128|49=IRISPAR2|52=20250606-03:07:59.263|56=EXCHANGE|10=006|8=FIX.4.4|9=62|35=0|34=1129|49=IRISPAR2|52=20250606-03:08:09.264|56=EXCHANGE|10=004|8=FIX.4.4|9=62|35=0|34=1130|49=IRISPAR2|52=20250606-03:08:19.264|56=EXCHANGE|10=253|8=FIX.4.4|9=62|35=0|34=1131|49=IRISPAR2|52=20250606-03:08:29.264|56=EXCHANGE|10=255|8=FIX.4.4|9=62|35=0|34=1132|49=IRISPAR2|52=20250606-03:08:39.264|56=EXCHANGE|10=001|8=FIX.4.4|9=62|35=0|34=1133|49=IRISPAR2|52=20250606-03:08:49.264|56=EXCHANGE|10=003|8=FIX.4.4|9=62|35=0|34=1134|49=IRISPAR2|52=20250606-03:08:59.264|56=EXCHANGE|10=005|8=FIX.4.4|9=62|35=0|34=1135|49=IRISPAR2|52=20250606-03:09:09.264|56=EXCHANGE|10=002|8=FIX.4.4|9=62|35=0|34=1136|49=IRISPAR2|52=20250606-03:09:19.264|56=EXCHANGE|10=004|8=FIX.4.4|9=62|35=0|34=1137|49=IRISPAR2|52=20250606-03:09:29.264|56=EXCHANGE|10=006|8=FIX.4.4|9=62|35=0|34=1138|49=IRISPAR2|52=20250606-03:09:39.264|56=EXCHANGE|10=008|8=FIX.4.4|9=62|35=0|34=1139|49=IRISPAR2|52=20250606-03:09:49.264|56=EXCHANGE|10=010|8=FIX.4.4|9=62|35=0|34=1140|49=IRISPAR2|52=20250606-03:09:59.265|56=EXCHANGE|10=004|8=FIX.4.4|9=62|35=0|34=1141|49=IRISPAR2|52=20250606-03:10:09.265|56=EXCHANGE|10=248|8=FIX.4.4|9=62|35=0|34=1142|49=IRISPAR2|52=20250606-03:10:19.265|56=EXCHANGE|10=250|8=FIX.4.4|9=62|35=0|34=1143|49=IRISPAR2|52=20250606-03:10:29.265|56=EXCHANGE|10=252|8=FIX.4.4|9=62|35=0|34=1144|49=IRISPAR2|52=20250606-03:10:39.265|56=EXCHANGE|10=254|8=FIX.4.4|9=62|35=0|34=1145|49=IRISPAR2|52=20250606-03:10:49.265|56=EXCHANGE|10=000|8=FIX.4.4|9=62|35=0|34=1146|49=IRISPAR2|52=20250606-03:10:59.265|56=EXCHANGE|10=002|8=FIX.4.4|9=62|35=0|34=1147|49=IRISPAR2|52=20250606-03:11:09.265|56=EXCHANGE|10=255|8=FIX.4.4|9=62|35=0|34=1148|49=IRISPAR2|52=20250606-03:11:19.266|56=EXCHANGE|10=002|8=FIX.4.4|9=62|35=0|34=1149|49=IRISPAR2|52=20250606-03:11:29.266|56=EXCHANGE|10=004|8=FIX.4.4|9=62|35=0|34=1150|49=IRISPAR2|52=20250606-03:11:39.266|56=EXCHANGE|10=253|8=FIX.4.4|9=62|35=0|34=1151|49=IRISPAR2|52=20250606-03:11:49.266|56=EXCHANGE|10=255|8=FIX.4.4|9=62|35=0|34=1152|49=IRISPAR2|52=20250606-03:11:59.266|56=EXCHANGE|10=001|8=FIX.4.4|9=62|35=0|34=1153|49=IRISPAR2|52=20250606-03:12:09.266|56=EXCHANGE|10=254|8=FIX.4.4|9=62|35=0|34=1154|49=IRISPAR2|52=20250606-03:12:19.266|56=EXCHANGE|10=000|8=FIX.4.4|9=62|35=0|34=1155|49=IRISPAR2|52=20250606-03:12:29.266|56=EXCHANGE|10=002|8=FIX.4.4|9=62|35=0|34=1156|49=IRISPAR2|52=20250606-03:12:39.267|56=EXCHANGE|10=005|8=FIX.4.4|9=62|35=0|34=1157|49=IRISPAR2|52=20250606-03:12:49.267|56=EXCHANGE|10=007|8=FIX.4.4|9=62|35=0|34=1158|49=IRISPAR2|52=20250606-03:12:59.267|56=EXCHANGE|10=009|8=FIX.4.4|9=62|35=0|34=1159|49=IRISPAR2|52=20250606-03:13:09.267|56=EXCHANGE|10=006|8=FIX.4.4|9=62|35=0|34=1160|49=IRISPAR2|52=20250606-03:13:19.267|56=EXCHANGE|10=255|8=FIX.4.4|9=62|35=0|34=1161|49=IRISPAR2|52=20250606-03:13:29.267|56=EXCHANGE|10=001|8=FIX.4.4|9=62|35=0|34=1162|49=IRISPAR2|52=20250606-03:13:39.267|56=EXCHANGE|10=003|8=FIX.4.4|9=62|35=0|34=1163|49=IRISPAR2|52=20250606-03:13:49.267|56=EXCHANGE|10=005|8=FIX.4.4|9=62|35=0|34=1164|49=IRISPAR2|52=20250606-03:13:59.267|56=EXCHANGE|10=007|8=FIX.4.4|9=62|35=0|34=1165|49=IRISPAR2|52=20250606-03:14:09.267|56=EXCHANGE|10=004|8=FIX.4.4|9=62|35=0|34=1166|49=IRISPAR2|52=20250606-03:14:19.268|56=EXCHANGE|10=007|8=FIX.4.4|9=62|35=0|34=1167|49=IRISPAR2|52=20250606-03:14:29.268|56=EXCHANGE|10=009|8=FIX.4.4|9=62|35=0|34=1168|49=IRISPAR2|52=20250606-03:14:39.268|56=EXCHANGE|10=011|8=FIX.4.4|9=62|35=0|34=1169|49=IRISPAR2|52=20250606-03:14:49.268|56=EXCHANGE|10=013|8=FIX.4.4|9=62|35=0|34=1170|49=IRISPAR2|52=20250606-03:14:59.268|56=EXCHANGE|10=006|8=FIX.4.4|9=62|35=0|34=1171|49=IRISPAR2|52=20250606-03:15:09.268|56=EXCHANGE|10=003|8=FIX.4.4|9=62|35=0|34=1172|49=IRISPAR2|52=20250606-03:15:19.268|56=EXCHANGE|10=005|8=FIX.4.4|9=62|35=0|34=1173|49=IRISPAR2|52=20250606-03:15:29.268|56=EXCHANGE|10=007|8=FIX.4.4|9=62|35=0|34=1174|49=IRISPAR2|52=20250606-03:15:39.268|56=EXCHANGE|10=009|8=FIX.4.4|9=62|35=0|34=1175|49=IRISPAR2|52=20250606-03:15:49.269|56=EXCHANGE|10=012|8=FIX.4.4|9=62|35=0|34=1176|49=IRISPAR2|52=20250606-03:15:59.269|56=EXCHANGE|10=014|8=FIX.4.4|9=62|35=0|34=1177|49=IRISPAR2|52=20250606-03:16:09.269|56=EXCHANGE|10=011|8=FIX.4.4|9=62|35=0|34=1178|49=IRISPAR2|52=20250606-03:16:19.269|56=EXCHANGE|10=013|8=FIX.4.4|9=62|35=0|34=1179|49=IRISPAR2|52=20250606-03:16:29.269|56=EXCHANGE|10=015|8=FIX.4.4|9=62|35=0|34=1180|49=IRISPAR2|52=20250606-03:16:39.269|56=EXCHANGE|10=008|8=FIX.4.4|9=62|35=0|34=1181|49=IRISPAR2|52=20250606-03:16:49.269|56=EXCHANGE|10=010|8=FIX.4.4|9=62|35=0|34=1182|49=IRISPAR2|52=20250606-03:16:59.269|56=EXCHANGE|10=012|8=FIX.4.4|9=62|35=0|34=1183|49=IRISPAR2|52=20250606-03:17:09.269|56=EXCHANGE|10=009|8=FIX.4.4|9=62|35=0|34=1184|49=IRISPAR2|52=20250606-03:17:19.269|56=EXCHANGE|10=011|8=FIX.4.4|9=62|35=0|34=1185|49=IRISPAR2|52=20250606-03:17:29.270|56=EXCHANGE|10=005|8=FIX.4.4|9=62|35=0|34=1186|49=IRISPAR2|52=20250606-03:17:39.270|56=EXCHANGE|10=007|8=FIX.4.4|9=62|35=0|34=1187|49=IRISPAR2|52=20250606-03:17:49.270|56=EXCHANGE|10=009|8=FIX.4.4|9=62|35=0|34=1188|49=IRISPAR2|52=20250606-03:17:59.270|56=EXCHANGE|10=011|8=FIX.4.4|9=62|35=0|34=1189|49=IRISPAR2|52=20250606-03:18:09.270|56=EXCHANGE|10=008|8=FIX.4.4|9=62|35=0|34=1190|49=IRISPAR2|52=20250606-03:18:19.270|56=EXCHANGE|10=001|8=FIX.4.4|9=62|35=0|34=1191|49=IRISPAR2|52=20250606-03:18:29.270|56=EXCHANGE|10=003|8=FIX.4.4|9=62|35=0|34=1192|49=IRISPAR2|52=20250606-03:18:39.270|56=EXCHANGE|10=005|8=FIX.4.4|9=62|35=0|34=1193|49=IRISPAR2|52=20250606-03:18:49.270|56=EXCHANGE|10=007|8=FIX.4.4|9=62|35=0|34=1194|49=IRISPAR2|52=20250606-03:18:59.270|56=EXCHANGE|10=009|8=FIX.4.4|9=62|35=0|34=1195|49=IRISPAR2|52=20250606-03:19:09.271|56=EXCHANGE|10=007|8=FIX.4.4|9=62|35=0|34=1196|49=IRISPAR2|52=20250606-03:19:19.271|56=EXCHANGE|10=009|8=FIX.4.4|9=62|35=0|34=1197|49=IRISPAR2|52=20250606-03:19:29.271|56=EXCHANGE|10=011|8=FIX.4.4|9=62|35=0|34=1198|49=IRISPAR2|52=20250606-03:19:39.271|56=EXCHANGE|10=013|8=FIX.4.4|9=62|35=0|34=1199|49=IRISPAR2|52=20250606-03:19:49.271|56=EXCHANGE|10=015|8=FIX.4.4|9=62|35=0|34=1200|49=IRISPAR2|52=20250606-03:19:59.271|56=EXCHANGE|10=255|8=FIX.4.4|9=62|35=0|34=1201|49=IRISPAR2|52=20250606-03:20:09.271|56=EXCHANGE|10=243|8=FIX.4.4|9=62|35=0|34=1202|49=IRISPAR2|52=20250606-03:20:19.271|56=EXCHANGE|10=245|8=FIX.4.4|9=62|35=0|34=1203|49=IRISPAR2|52=20250606-03:20:29.271|56=EXCHANGE|10=247|8=FIX.4.4|9=62|35=0|34=1204|49=IRISPA